:4000000000800020110000003DE800003DE8000080B500AF024A034B1B6813600EF03CFCBC760040FA46004010B5054C237833B9044B13B10448AFF300800123237010BD87
:400040007883FF1F0000000078330100084B10B51BB108480849AFF300800848036803B910BD074B002BFBD0BDE81040184700BF00000000783301007C83FF1F0881FF1F05
:400080000000000080B582B000AF62B6A54B08221A60A44B04221A600FF0E6FA0EF080FF0FF044F90FF09CFE10F016F89D4B01221A609C4B02221A6010F0FEFC9A4B0022A5
:4000C00083F85920984B002283F85A20964B002283F85B20954B002283F85920934B002283F85A20914B002283F85B200023BB7116E00023FB710DE0BA79F9798A481346A9
:400100005B001344DB000B44034400229A70FB790133FB71FB79172BEED9BB790133BB71BB79022BE5D90023BB7116E00023FB710DE0BA79F9797D4813465B001344DB001B
:400140000B44034400229A70FB790133FB71FB79172BEED9BB790133BB71BB79022BE5D905200EF04DFE002020210EF0BBFA704B1B78002B14D06E4B1B78202B10D80023F8
:40018000FB7108E0FB79FA796949895C694AD154FB790133FB71664B1B78FA799A42F1D920200F210EF09EFA614B1B78002B14D05F4B1B780F2B10D80023FB7108E0FB7986
:4001C000FA795B49895C5C4AD154FB790133FB71574B1B78FA799A42F1D9402020210EF081FA534B1B78002B14D0514B1B78202B10D80023FB7108E0FB79FA794C49895C42
:400200004E4AD154FB790133FB71494B1B78FA799A42F1D92F200C210EF064FA444B1B78002B14D0424B1B780C2B10D80023FB7108E0FB79FA793E49895C414AD154FB7977
:400240000133FB713A4B1B78FA799A42F1D9802020210EF047FA364B1B78002B14D0344B1B78202B10D80023FB7108E0FB79FA792F49895C334AD154FB790133FB712C4B3D
:400280001B78FA799A42F1D9A02020210EF02AFA274B1B78002B14D0254B1B78202B10D80023FB7108E0FB79FA792149895C264AD154FB790133FB711D4B1B78FA799A4285
:4002C000F1D940F2C71002210EF00CFA184B1B78012B07D1164B1A781C4B1A70144B5A781A4B5A704FF43D7002210EF0FBF9104B1B78012B07D10E4B1A78154B1A700C4BA3
:400300005A78134B5A70602009210EF0EBF9084B1B78092B31D8064B1B78002B2DD00023FB7122E000E100E05888FF1F8C84FF1F6885FF1F1088FF1FF484FF1F0C85FF1F84
:40034000D087FF1FC088FF1F3085FF1FEC86FF1FEC84FF1FFB790133FA790132A749895CA74AD154FB790133FB71FB79072BF1D9A24B1A78A24B1A700CE00123FB7106E09C
:40038000FB799F49FA79CA54FB790133FB71FB79082BF5D940F2A62004210EF0A3F9974B1B78042B00F29280944B1B78002B00F08D80924B1A78934B83F85C200023FB71FB
:4003C0000CE0FB79FA7901328C49895C8D4A13440A4683F85920FB790133FB71874B1B78FA799A42EDD300237B71864B93F85930DBB2012B0BD0834B93F85A30DBB2012B1F
:4004000005D0804B93F85B30DBB2012B01D101237B717C4B93F85930DBB2022B0BD0794B93F85A30DBB2022B05D0764B93F85B30DBB2022B03D17B7943F002037B71714B5A
:4004400093F85930DBB2032B0BD06E4B93F85A30DBB2032B05D06B4B93F85B30DBB2032B03D17B7943F004037B717B79013B062B2CD801A252F823F0950400009D04000060
:40048000B5040000A5040000AD040000BD040000C50400005C4B01221A8017E05A4B01221A8013E0584B01221A800FE0564B7C221A800BE0544B7D221A8007E0524B7F22DF
:4004C0001A8003E0504B7E221A8000BF40F2AA2004210EF007F9494B1B78042B00F29E80464B1B78002B00F09980444B1A78474B83F85C200023FB710CE0FB79FA790132CF
:400500003E49895C414A13440A4683F85920FB790133FB71394B1B78FA799A42EDD300237B713A4B93F85930DBB2012B0BD0374B93F85A30DBB2012B05D0344B93F85B30F9
:40054000DBB2012B01D101237B71304B93F85930DBB2022B0BD02D4B93F85A30DBB2022B05D02A4B93F85B30DBB2022B03D17B7943F002037B71254B93F85930DBB2032B30
:400580000BD0224B93F85A30DBB2032B05D01F4B93F85B30DBB2032B03D17B7943F004037B717B79013B062B38D801A252F823F0CD050000D5050000ED050000DD05000034
:4005C000E5050000F505000015060000104B01221A8023E00E4B01221A801FE00C4B01221A801BE00A4B7C221A8017E0084B7D221A8013E0064B7F221A800FE06885FF1F34
:40060000FC87FF1F5888FF1F6687FF1F8C84FF1F2E85FF1FAD4B7E221A8000BF40F2F62004210EF05FF8AA4B1B78042B00F29280A74B1B78002B00F08D80A54B1A78A54B84
:4006400083F85C200023FB710CE0FB79FA7901329F49895C9F4A13440A4683F85920FB790133FB719A4B1B78FA799A42EDD300237B71984B93F85930DBB2012B0BD0954B88
:4006800093F85A30DBB2012B05D0924B93F85B30DBB2012B01D101237B718E4B93F85930DBB2022B0BD08B4B93F85A30DBB2022B05D0884B93F85B30DBB2022B03D17B79A2
:4006C00043F002037B71834B93F85930DBB2032B0BD0804B93F85A30DBB2032B05D07D4B93F85B30DBB2032B03D17B7943F004037B717B79013B062B2CD801A252F823F002
:400700001D070000250700003D0700002D07000035070000450700004D0700006E4B01221A8017E06C4B01221A8013E06A4B01221A800FE0684B7C221A800BE0664B7D22BA
:400740001A8007E0644B7F221A8003E0624B7E221A8000BF40F2FA2004210DF0C3FF5C4B1B78042B00F29280594B1B78002B00F08D80574B1A78594B83F85C200023FB712B
:400780000CE0FB79FA7901325149895C534A13440A4683F85920FB790133FB714C4B1B78FA799A42EDD300237B714C4B93F85930DBB2012B0BD0494B93F85A30DBB2012B7F
:4007C00005D0464B93F85B30DBB2012B01D101237B71424B93F85930DBB2022B0BD03F4B93F85A30DBB2022B05D03C4B93F85B30DBB2022B03D17B7943F002037B71374BB9
:4008000093F85930DBB2032B0BD0344B93F85A30DBB2032B05D0314B93F85B30DBB2032B03D17B7943F004037B717B79013B062B2CD801A252F823F0550800005D08000088
:4008400075080000650800006D0800007D08000085080000224B01221A8017E0204B01221A8013E01E4B01221A800FE01C4B7C221A800BE01A4B7D221A8007E0184B7F22A3
:400880001A8003E0164B7E221A8000BF4FF4DE7002210DF027FF0E4B1B78012B06D10C4B5B7803F00F03DAB20E4B1A7040F2AE2011210DF017FF064B1B78112B22D8044B4F
:4008C0001B78002B1ED00023FB7116E02E85FF1F6885FF1FF086FF1F0C88FF1FC883FF1F4289FF1FEE86FF1FFB79FA797349895C734AD154FB790133FB71704B1B78FA7982
:400900009A42F1D94FF4307011210DF0EBFE6B4B1B78112B14D8694B1B78002B10D00023FB7108E0FB79FA796449895C654AD154FB790133FB71614B1B78FA799A42F1D923
:4009400040F2D12011210DF0CDFE5C4B1B78112B14D85A4B1B78002B10D00023FB7108E0FB79FA795549895C574AD154FB790133FB71524B1B78FA799A42F1D940F25A2005
:4009800006210DF0AFFE4D4B1B78032B07D04B4B1B78012B03D0494B1B78052B14D1474B5B7803F00F03DAB2484B5A70434B9B7803F00F03DAB2454B9A70404BDB7803F0E2
:4009C0000F03DAB2414BDA704FF4187002210DF089FE3A4B1B78012B04D1384B5A783C4B1A7002E03A4BFF221A7040F2622002210DF078FE314B1B78012B04D12F4B5A78DA
:400A0000334B1A7002E0324BFF221A704FF4497002210DF067FE294B1B78012B04D1274B5A782C4B1A7002E02A4BFF221A7040F2263002210DF056FE204B1B78012B04D1D9
:400A40001E4B5A78244B1A7002E0234BFF221A7040F29A2002210DF045FE184B1B78012B06D1164B5B7803F00F03DAB21B4B5A7040F2652002210DF035FE104B1B78012BE6
:400A800006D10E4B5B7803F00F03DAB2144B5A70144B642283F86020134B642283F86020124B642283F86020114B642283F8602005200EF0A5F90837BD4680BD6885FF1FB4
:400AC0005487FF1FA885FF1FE887FF1F0485FF1F5888FF1FF086FF1FC883FF1FE487FF1F5488FF1FE088FF1F6C87FF1F8886FF1F2884FF1F80B582B000AF03460A46FB7158
:400B00001346BB80FB79012B13D1BB88012019460DF0D6F8124B64221A70124B64221A70114B01221A7011480FF0DCFC0FF0A4FD12E0BB88022019460DF0C2F80C4B642212
:400B40001A700C4B64221A700B4B01221A700B480FF0E8FE0FF074FE0837BD4680BD00BF6887FF1FEE84FF1F8486FF1FB5A100005E85FF1FB985FF1FEF84FF1F29A20000C6
:400B800080B584B000AF0023FB73CAE00023FB7300BF09F057FC0346002BFAD032200EF02FF9634B1B78DAB2614B93F85C30DBB2104619460AF004FE32200EF021F95D4BB0
:400BC0001B78DAB25B4B93F85C30DBB2104619460AF0F6FD32200EF013F9574B1B78DAB2554B93F85C30DBB2104619460AF0E8FD32200EF005F9514B1B78DAB24F4B93F8C7
:400C00005C30DBB2104619460AF0DAFD32200EF0F7F801233B70464B1B78DBB27B703B464FF4187019460DF0FBFC0346002B04D001203C210DF044F803E0012055210DF056
:400C40003FF801233B703B4B1B78DBB27B703B4640F2622019460DF0E3FC0346002B04D002203C210DF02CF803E0022055210DF027F801233B70304B1B78DBB27B703B4618
:400C80004FF4497019460DF0CBFC0346002B04D001203C210DF014F803E0012055210DF00FF801233B70254B1B78DBB27B703B4640F2263019460DF0B3FC0346002B04D022
:400CC00002203C210CF0FCFF03E0022055210CF0F7FF1B4B00221A701A4B00221A701A4B00221A70194B00221A7002202E210CF0E7FF01202E210CF0E3FF154B00221A7020
:400D0000144B00221A70144B00221A70124B00225A70114B00229A700F4B0022DA700223FB73FB7B022B7FF431AF1037BD4680BD5888FF1F8C84FF1FF086FF1FC883FF1FCD
:400D40006887FF1F5E85FF1FEE84FF1FB985FF1FEF86FF1F6285FF1FB888FF1FB0B590B004AFB54B1B78DBB2682B02F2048601A252F823F0190F0000CF0F00005110000093
:400D800087170000A5190000BB1B0000751C0000551D0000F11D0000DB1E0000773900005B1F0000FF20000021220000A525000027260000CD27000001290000612A0000AB
:400DC000952C00000F2E00009D2E0000EB3100000B360000BF36000077390000773900007739000077390000773900007739000077390000773900007739000077390000F8
:400E000077390000773900007739000077390000773900007739000077390000773900007739000077390000773900007739000077390000773900007739000077390000B2
:400E40007739000077390000773900007739000077390000773900007739000077390000773900007739000077390000773900007739000077390000773900007739000072
:400E80007739000077390000773900007739000077390000773900007739000077390000773900007739000077390000773900007739000077390000773900007739000032
:400EC00077390000773900007739000077390000773900007739000077390000773900007739000077390000773900007739000077390000773900007739000077390000F2
:400F00007739000055380000B9380000EF3800002139000037390000474B01221A70002387F82F300CE097F82F3007F130021344002203F82C2C97F82F30013387F82F3082
:400F400097F82F30072BEED9002387F82F300BE097F82F30394A1344002283F8492097F82F30013387F82F3097F82F300A2BEFD9002387F82F300BE097F82F302F4A13443B
:400F8000002283F8542097F82F30013387F82F3097F82F30082BEFD9294B1B78DBB2184609F004FA034687F82D3097F82D300A2B07D00B2B01D002F0DEBC1F4B0B221A707D
:400FC00003E01D4B0B221A7000BF02F0D4BC1B4B93F86030642B1CD11A4B1B78DBB2012B17D8194B1B78DBB2012B12D8174B1B78DBB2012B0DD8124B5B78DBB20C2B02D01E
:401000000F4B1C225A700D4B002283F860200EF0EBF90FF079FA0FF03FFB074B03221A70012004210CF04CFE64200DF0E9FE0EF08FFF02F0A0BC00BF6887FF1FE088FF1F2B
:401040005888FF1F5E85FF1FEE84FF1FB985FF1F0EF036FF0346082B40F06983A54B1B78DBB2AA2B40F06183A24B9B79DBB2C32B40F05B839F4BDB79DBB23C2B40F05583FD
:401080009D4B00221A709D4B1B78DAB29C4B1B78DBB29A4280F0BD80964BDB78DBB2092B32D8964B1B78DBB20133DAB2934B1A70924B1B78DBB21A468E4BDB78D9B2914BED
:4010C00099548C4BDB78DBB23033D9B28E4B1B889DB28A4B1B78DBB29BB28C4A128892B2013292B202FB03F39AB2894B1B889BB213449CB2854B1B889BB2DBB2009301207D
:401100002A4623460CF028FE7A4BDB78DBB20A2B3CD1804B1B78DBB2012B0AD1774B1B78DBB2012B05D1774B5B78DBB2002B00D12CE0724B1B78DBB20133DAB26F4B1A70EC
:401140006E4B1B78DBB21A466E4B002199546E4B1B889DB2694B1B78DBB29BB26B4A128892B2013292B202FB03F39AB2684B1B889BB213449CB2654B1B889BB2DBB2009352
:40118000012030212A4623460CF0E6FD594BDB78DBB2512B3DD1594B1B78DBB2002B38D05D4B1B78DBB2002B33D1544B1B78DBB20133DAB2514B1A70504B1B78DBB21A4649
:4011C000564B1B78D9B24F4B9954544B1B78D9B24D4B1B889DB2494B1B78DBB29BB24B4A128892B2013292B202FB03F39AB2484B1B889BB213449CB2444B1B889BB2DBB204
:40120000009301202A4623460CF0A6FD424B01221A70384BDB78DBB20B2B40F0C780374B1B78DBB2002B40F085803A4B1B78DBB2013B032B00F2BA8001A252F823F000BF3C
:401240005112000061120000AF120000D1120000012005210CF034FD314B04221A7048E0304B93F84830012B07D12D4B04221A70012005210CF024FD3BE0204B00221A70EC
:401280001F4B07221A70224B04221A801E4B03221A801E4B01221A8001200A210CF010FD1F4B0D221A70144B00221A7021E01C4B00221A701C4B01225A701C4B00221A7098
:4012C00001202E210CF0FCFC194B00221A7010E0134B00221A70144B01225A70134B00221A7001202E210CF0EBFC114B00221A7000BF5BE07090FF1F8486FF1F4D87FF1F9D
:401300006385FF1F3488FF1F0885FF1F5C85FF1FB688FF1F0385FF1F8984FF1FE984FF1F6887FF1FE088FF1F5888FF1FEF86FF1FB888FF1FB74B1B889DB2B74B1B78DBB2D3
:401340009BB2B64A128892B2013292B202FB03F39AB2B34B1B889BB213449CB2AF4B1B889BB2DBB20093012020212A4623460CF0F3FCA94B1B78DBB21A46AA4B9B5CDAB2DD
:40138000A94B1B78DBB29A4202D1A84B00221A70A14B1B78DBB21A46A24B002199549E4B1B78DBB2013BDAB29B4B1A70A04BDB78DBB20C2B40F0B9819E4B1B78DBB2013B72
:4013C000032B00F2B28101A252F823F0DD1300008715000059160000D1160000002387F82F300CE097F82F3007F130021344002203F82C2C97F82F30013387F82F3097F858
:401400002F30072BEED9844B1B78DBB2002B00F0B980814B1B78DBB21A46824B9B5CDBB22E2B00F0AF80012387F82F3028E097F82F307C4AD35CDBB22E2B0FD097F82F305C
:40144000013B97F82F2077498A5CD2B23032D2B207F130010B4403F82C2C0CE097F82F30013B97F82F206F498A5CD2B207F130010B4403F82C2C97F82F30013387F82F3096
:40148000654B1B78DBB297F82F209A42CFD93B1D18460FF019FDC7E90801674BDB7E022B09D1D7E908014FF00002644B0FF0F8FC0346002B1AD1604BDB7E012B62D1D7E936
:4014C00008014FF000025E4B0FF0E0FC0346002B00D12AE1D7E908014FF000024FF000030FF0E8FC0346002B00D11EE14A4B1B7887F82F3015E097F82F30474A1278D2B2D3
:40150000114697F82F208A1A013246498A5CD1B2494A13440A46DA7697F82F30013B87F82F3097F82F30002BE5D1464B05221A70414B93F84830002B1CD1434B93F85C30B8
:40154000DBB2012B0CD0414B1B889BB2012B07D03E4B1B889BB2012019460CF0B1FB11E0384B0C221A70384B93F85930DAB2324B5A7607E0334B06221A70012007210CF0BE
:401580009FFBD2E0D1E0244B1B7887F82F3016E097F82F30204A1278D2B2114697F82F208A1A01321F498A5CD1B2234A13440A4683F8332097F82F30013B87F82F3097F89C
:4015C0002F30002BE4D11C4B93F84830012B07D11C4B04221A70012005210CF071FBA4E00D4B00221A701A4B07221A700C4B04221A80084B03221A80084B01221A8001207E
:401600000A210CF05DFB0F4B0D221A70114B00221A708AE00885FF1F4D87FF1F5C85FF1FB688FF1F3488FF1FE984FF1F8984FF1F7090FF1F0385FF1FE088FF1F000089400B
:4016400000208C406887FF1F5888FF1F6687FF1F6385FF1F8486FF1FBB4B1B7887F82F3018E097F82F30B84A1278D2B2114697F82F208A1A0132B5498A5CD2B23032D1B274
:40168000B34A13440A4683F8492097F82F30013B87F82F3097F82F30002BE2D1AD4B02221A70012025210CF00BFBA74B00221A70A94B04221A70A94B0A221A70A84B0222BC
:4016C0001A80A84B03221A80A74B01221A802CE09D4B1B7887F82F3018E097F82F309A4A1278D2B2114697F82F208A1A013297498A5CD2B23032D1B2954A13440A4683F876
:40170000542097F82F30013B87F82F3097F82F30002BE2D18F4B66221A70012039210CF0CFFA924B10225A7000BF0EF011FC904B1B78DBB21D2B24D9854B93F84830002B54
:401740001FD1854B1B78DBB2022B1AD17E4B00221A70824B07221A70814B04221A80814B03221A80804B01221A8001200A210CF0A7FA784B0D221A707D4B00221A7002F012
:40178000FAB802F0F8B80EF09BFB0346082B40F00781784B1B78DBB2AA2B40F0FD80754B9B79DBB2C32B40F0F780724BDB79DBB23C2B40F0F1806F4BDB78DBB20E2B61D008
:4017C0000E2B02DC0D2B07D0E6E0452B00F0B4807E2B00F0D380DFE0002387F82F300BE097F82F305A4A1344002283F8332097F82F30013387F82F3097F82F300A2BEFD90E
:40180000534B93F86030312B0BD1524B04221A70012005210CF054FA4D4B002283F848202FE04B4B93F86030302B07D14F4B1C225A7001204121FFF75DF922E0444B93F8BC
:401840006030322B0ED0424B93F86030002B09D03F4B93F86030012B04D03D4B93F86030642B0ED13B4B04221A70012005210CF027FA374B002283F848203C4B1C225A708B
:401880008AE089E0002387F82F300BE097F82F302F4A1344002283F8332097F82F30013387F82F3097F82F300A2BEFD9284B93F86030312B0BD1274B10221A700120122188
:4018C0000CF0FEF9224B012283F8482033E0204B93F86030302B07D1244B1C225A7001204121FFF707F926E0194B93F86030322B0ED0174B93F86030002B09D0144B93F89B
:401900006030012B04D0124B93F86030642B12D1104B64221A70012055210CF0D1F9144B01221A7014480EF0DDFD0EF0A5FE0F4B1C225A7030E02FE0064B11221A700120D4
:4019400083210CF0BDF927E04D87FF1F3488FF1FE088FF1F6887FF1F0385FF1F6385FF1FB688FF1F0885FF1F5C85FF1F5888FF1F8486FF1F7090FF1FB5A10000AD4B002245
:401980001A70AD4B00221A7001202E210CF098F9AA4B00221A7000BF0EF0DAFA01F0EBBF01F0E9BF0EF08CFA0346082B40F00381A34B1B78DBB2AA2B40F0F980A04B9B7957
:4019C000DBB2C32B40F0F3809D4BDB79DBB23C2B40F0ED809A4BDB78DBB2102B48D0102B02DC0F2B06D0E2E03B2B00F0D880432B7ED0DCE0002387F82F300AE097F82F30FA
:401A0000904A13440022DA7697F82F30013387F82F3097F82F30072BF0D9864B02221A70894B00221A70894B01221A70884B2E221A70884B06221A70824B0222DA76864B56
:401A400000221A70012006210CF03AF9834B04221A80834B03221A80824B01221A800123009301202421032204230CF075F99EE0002387F82F300AE097F82F30714A134462
:401A80000022DA7697F82F30013387F82F3097F82F30072BF0D9674B02221A706A4B00221A706A4B01221A70694B2E221A706E4B5B78DAB2674B1A70624B0122DA76664BF5
:401AC00000221A7001200D210CF0FAF8634B04221A80634B03221A80624B01221A800123009301204721032204230CF035F95EE0002387F82F300AE097F82F30514A1344F9
:401B00000022DA7697F82F30013387F82F3097F82F30072BF0D94B4B0322DA76052387F82F300AE097F82F30464A13440922DA7697F82F30013387F82F3097F82F30062BE0
:401B4000F0D9404B93F84830002B1FD1474B93F85C30DBB2012B0FD0454B1B889BB2012B0AD0434B1B889BB2012019460CF0A8F8304B05221A7011E02E4B0C221A703B4BBE
:401B800093F85930DAB22F4B5A7607E0294B06221A70012007210CF093F808E007E0254B03221A70012004210CF08AF800BF0EF0CFF901F0E0BE01F0DEBE0EF081F903464A
:401BC000082B34D11E4B1B78DBB2AA2B2BD11C4B9B79DBB2C32B26D1194BDB79DBB23C2B21D1174BDB78DBB2802B04D0812B09D07F2B0ED014E0134B01225A760D4B0C222F
:401C00001A700DE00F4B03225A760A4B0C221A7006E00C4B02225A76064B0C221A7000BF32200DF0EDF80EF093F901F0A4BE01F0A2BE00BF6887FF1FB888FF1FEF86FF1FB9
:401C40007090FF1FE088FF1F4D87FF1F0385FF1FE984FF1F6385FF1F8984FF1FB688FF1F0885FF1F5C85FF1F0485FF1F5888FF1F6687FF1F32200DF0C3F80EF021F903464B
:401C8000082B24D1C24B1B78DBB2AA2B1BD1C04B9B79DBB2C32B16D1BD4BDB79DBB23C2B11D1BB4BDB78DBB27E2B0CD1B94B00221A70B94B00221A7001202E210CF000F82B
:401CC000B64B00221A700EF043F901F054BEB44B1B78DBB2184608F069FB034687F82F3097F82F30072B06D1AA4B07221A7032200DF086F82CE097F82F30002B0ED1322038
:401D00000DF07EF8A64B1B78DAB207F10C03104601211A46022308F0E9FF19E097F82F300C2B04D101205521FEF7E4FE10E097F82F300B2B03D1974B0B221A7008E097F8E3
:401D40002F300A2B04D1934B0B221A7001F013BE01F011BE0A200DF053F8914B1B78DBB2184608F0E5FB03461A468E4B9A768D4B9B7E002B3AD08B4B93F84830002B18D19A
:401D8000884B5A7E874B9B7E013B85490B4493F85930DBB29A4206D17E4B08221A700A200DF02EF822E001205521FEF7A3FE01F0E2BD7C4B93F84830012B06D1754B0822A0
:401DC0001A700A200DF01CF810E0764B93F84830022B0BD16F4B66221A70012039210BF06FFF6F4B1F225A7001F0C5BD01F0C3BD0A200DF005F86A4B1B78DBB2184608F0B9
:401E0000D5FA0346072B66D1664B93F84830002B51D1644B9B7E022B09D0032B0DD0012B11D140F2A71006210CF05CFC0BE040F2AD1006210CF056FC05E040F2B310062185
:401E40000CF050FC00BF584B5B783B76564B9B787B76554BDB78BB76534B1B79FB76524B5B793B77504B1B78052B1BD14C4B1B78D9B24C4B9B7E07F11802084611461A46DF
:401E800009F074FB0346012B07D1424B09221A700CF0BCFA0CF002FB1DE001205521FEF729FE18E001205521FEF724FE3C4B1C225A7001F060BD374B66221A70012039217E
:401EC0000BF0FEFE364B09225A700CF09FFA0CF0E5FA01F050BD01F04EBD0A200CF090FF2F4B1B78DBB2184608F060FA0346072B31D10A200CF084FF294B1B78D9B2294BE0
:401F00009A7E284BDB7E08461146284A08F0EEFE0346002B04D101205521FEF7EBFD1AE00A200CF06DFF1E4B1B78DBB243F01003DBB218460DF074F9164B0B221A70184BDA
:401F400008225A70154B00221A7001202E210BF0B7FE01F010BD01F00EBD32200CF050FF0F4B1B78DBB2184608F020FA03460A2B62D00B2B04D0062B00F0A68001F0FBBC97
:401F800064200CF03DFF002387F82F3021E000BF7090FF1F6887FF1FB888FF1FEF86FF1F5888FF1FE088FF1F6885FF1FFB88FF1F97F82F308D4A13440022DA7197F82F30E1
:401FC0008A4A134400221A7497F82F30013387F82F3097F82F30082BEAD9854B1B78DBB2184608F063FB0346012B03D1814B0F221A7082E0002387F82F300CE097F82F3071
:402000007D4AD35C032019460CF0DEFB97F82F30013387F82F3097F82F30122BEED903200A210CF0D1FB03200A210CF0CDFB03200A210CF0C9FB60E0002387F82F3010E0FA
:4020400097F82F30694A13440022DA7197F82F30664A134400221A7497F82F30013387F82F3097F82F30082BEAD9614B1B78DBB2184608F01BFB0346012B03D15D4B0F2218
:402080001A703AE0002387F82F300CE097F82F30594AD35C032019460CF096FB97F82F30013387F82F3097F82F30122BEED903200A210CF089FB03200A210CF085FB032013
:4020C0000A210CF081FB18E04A4B64221A700CF09DF90CF0E3F9464B1B78DBB2184608F0E5FA434B0C225A7044480EF0FBF90EF0C3FA434B01221A7000BF01F03CBC3B4B28
:4021000093F84830002B35D13E4B5B78DBB2002B16D13D4B00221A703C4B07221A703C4B04221A803B4B03221A803B4B01221A8001200A210BF0C4FD2E4B0D221A7036E0E3
:4021400001200E210BF0BCFD2A4B02221A702E4B00221A70314B02221A702C4B0A221A702B4B02221A802B4B03221A802A4B01221A801CE01D4B93F84830012B07D11D4B4E
:402180000F221A70194B012283F847200FE0174B93F84830022B0AD1012007210BF090FD144B06221A70114B002283F84720002387F82F300BE097F82F300C4A13440022B4
:4021C00083F83E2097F82F30013387F82F3097F82F30082BEFD909480EF084F90EF04CFA074B00221A7001F0C6BB00BFE088FF1F5888FF1F6887FF1F5C81FF1FB5A10000FC
:402200008486FF1FEC84FF1F4D87FF1F6385FF1FB688FF1F0885FF1F5C85FF1F0385FF1F0DF04EFE0346082B40F0B081944B1B78DBB2AA2B40F0A881914B9B79DBB2C32B86
:4022400040F0A2818E4BDB79DBB23C2B40F09C818C4B00221A708C4B1B78DAB28B4B1B78DBB29A4280F0F180854BDB78DBB2092B34D8854B1B78DBB20133DAB2824B1A707A
:40228000814B1B78DBB21A467D4BDB78DBB23033D9B27F4B99547A4BDB78DBB23033D9B27C4B1B889DB2784B1B78DBB29BB27A4A128892B2013292B202FB03F39AB2774BEF
:4022C0001B889BB213449CB2734B1B889BB2DBB2009301202A4623460BF03EFD684BDB78DBB20A2B2CD1684B1B78DBB20133DAB2654B1A70644B1B78DBB21A46644B30218A
:402300009954644B1B889DB25F4B1B78DBB29BB2614A128892B2013292B202FB03F39AB25E4B1B889BB213449CB25B4B1B889BB2DBB20093012030212A4623460BF00CFD76
:402340004F4BDB78DBB26A2B2CD14F4B1B78DBB20133DAB24C4B1A704B4B1B78DBB21A464B4B2D2199544B4B1B889DB2464B1B78DBB29BB2484A128892B2013292B202FB65
:4023800003F39AB2454B1B889BB213449CB2424B1B889BB2DBB2009301202D212A4623460BF0DAFC364BDB78DBB21A2B4DD9344BDB78DBB2422B48D8002387F82F3040E027
:4023C0002F4BDB78DAB297F82F303549CB5C9A4232D12D4B1B78DBB20133DAB22A4B1A70294B1B78DBB21A4697F82F304133D9B2274B995497F82F304133D9B2254B1B887B
:402400009DB2214B1B78DBB29BB2234A128892B2013292B202FB03F39AB2204B1B889BB213449CB21C4B1B889BB2DBB2009301202A4623460BF090FC97F82F30013387F8DA
:402440002F3097F82F30192BBAD90D4BDB78DBB20B2B53D10C4B1B78DBB2002B28D1114B5B78DBB21A2B49D00F4B002283F83E2001200B210BF024FC0C4B0E221A703DE006
:402480007090FF1F8486FF1F4D87FF1F6385FF1F3488FF1F0885FF1F5C85FF1FB688FF1F0C81FF1F5888FF1FE088FF1F6887FF1FB34B1B889DB2B34B1B78DBB29BB2B24A6B
:4024C000128892B2013292B202FB03F39AB2AF4B1B889BB213449CB2AB4B1B889BB2DBB20093012020212A4623460BF035FCA54B1B78DBB2013BDAB2A24B1A70A44BDB78BB
:40250000DBB20C2B40D19F4B1B78DBB2002B3BD0A04B1B78DAB2A04B83F83E20012387F82F3010E097F82F3097F82F209B498A5CD1B2994A13440A4683F83E2097F82F305C
:40254000013387F82F308F4B1B78DBB297F82F209A42E7D9924B5B78DBB21A2B0AD0914B0E221A7001200B210BF0AAFB8E4B00221A7009E08B4B66221A70012039210BF02A
:402580009FFB874B1B225A700DF0E2FC864B1B78DBB21D2B04D9834B64221A7001F0EBB901F0E9B90DF08CFC0346082B2FD1784B1B78DBB2AA2B28D1754B9B79DBB2C32BB0
:4025C00023D1734BDB79DBB23C2B1ED1704BDB78DBB2382B0DD0392B17D1012007210BF06FFB704B06221A706B4B012283F847200BE0012007210BF063FB6A4B06221A7001
:40260000654B002283F8472000BF0DF0A1FC664B1B78DBB21D2B04D9624B64221A7001F0AAB901F0A8B95E4B1B78DAB25C4B93F85C30DBB21046194609F0C2F803461A4610
:40264000574B93F85C30DBB29A4273D30BF0DEFE0BF024FF544B00221A704F4B93F84830002B0BD04F4B67221A70012039210BF027FB494B012283F8472002E0494B682231
:402680001A70474B0C225A70434B93F86030322B09D0414B93F86030002B04D03E4B93F86030642B69D13C4B93F84830002B64D1394B93F84730012B5FD13C4B5B78DAB262
:4026C0003B4B5B781046002140F2AF320BF03CF9374B5B7818461B210CF076F8344B5B78184640210CF070F8314B5B7818460A210CF06AF82E4B5B7818460A210CF064F896
:40270000274B1B78D8B22A4B5978234B9B7E013B234A134493F85930DAB2264B0093264B0193264B0293264B0393264B0AF07AFC01F021B9002387F82F300CE097F82F3000
:40274000214AD35C032019460CF03EF897F82F30013387F82F3097F82F30142BEED903200A210CF031F803200A210CF02DF803200A210CF029F801F0FEB801F0FCB800BFBF
:402780000885FF1F4D87FF1F5C85FF1FB688FF1F7090FF1F6385FF1FE088FF1F3488FF1F5888FF1F6887FF1F8486FF1FEC86FF1FE487FF1FF088FF1FE788FF1F1E89FF1F69
:4027C0001389FF1FE288FF1F4481FF1F01200BF0B1FC0346012B6CD1012033210BF00AFD0346002B65D0002387F82F300FE097F82F4001200BF084FD03461A468A4B2344A9
:4028000083F8232097F82F30013387F82F3097F82F30072BEBD9854B00221A70002387F82F3014E0814B197897F82F307E4A134493F82330084619460BF0BCFD03461A4633
:402840007A4B1A7097F82F30013387F82F3097F82F30062BE6D9744B93F82A20734B1B789A4226D1012013210BF02AFA704B00221A7070480DF036FE0DF0FEFE6E4B652276
:402880001A706E4B02221A806C4B0E225A806C4B00221A706B4B02221A706B4B0A221A706A4B02221A806A4B03221A80694B01221A800DF005FB0346082B1FD1664B1B781E
:4028C000DBB2AA2B16D1644B9B79DBB2C32B11D1614BDB79DBB23C2B0CD15F4BDB78DBB23B2B07D1544B00221A7001202E210BF0E7F900BF0DF02CFB01F03DB801F03BB893
:402900000DF0DEFA0346082B40F08B80524B1B78DBB2AA2B40F081804F4B9B79DBB2C32B7BD14D4BDB79DBB23C2B76D14A4BDB78DBB2462B09D0462B02DC3B2B65D06CE0B7
:40294000552B2ED0B52B46D067E0374B93F86030322B04D0344B93F86030002B04D101205521FEF7C7F858E0012039210BF0A8F9314B66221A70394B0D225A70304B0022F2
:402980001A70304B03221A702F4B0A221A702F4B02221A802E4B03221A802E4B01221A803BE0254B12221A70274B00221A70012025210BF085F9224B00221A70224B0A2294
:4029C0001A70224B03221A80214B03221A80214B01221A8021E0144B93F86030322B04D0114B93F86030002B04D101205521FEF781F812E0104B66221A70012039210BF0D0
:402A00005FF9164B19225A7007E00B4B03221A70012004210BF054F900BF0DF099FA00F0AABF00F0A8BF00BFE088FF1F5085FF1F8486FF1FB5A100006887FF1F6889FF1F8D
:402A40004D87FF1F0385FF1F6385FF1FB688FF1F0885FF1F5C85FF1F7090FF1F5888FF1F0DF02EFA0346082B40F01281AF4B1B78DBB2AA2B40F00881AC4B9B79DBB2C32B04
:402A800040F00281A94BDB79DBB23C2B40F0FC80A74B1B78DAB2A74B1B78DBB29A426CD2A24BDB78DBB2092B33D8A14B1B78DBB201339E4AD278D2B23032D1B29E4A134418
:402AC0000A4683F854209D4B1B889DB2984B1B78DBB29BB29A4A128892B2013292B202FB03F39AB2974B1B889BB213449CB2944B1B889BB2DBB2009301202A212A4623464A
:402B00000BF02AF98A4B1B78DBB20133DAB2884B1A70864BDB78DBB20A2B2ED1844B1B78DBB20133844A1344302283F85420834B1B889DB27E4B1B78DBB29BB2804A12889D
:402B400092B2013292B202FB03F39AB27D4B1B889BB213449CB27A4B1B889BB2DBB2009301202A212A4623460BF0F6F8704B1B78DBB20133DAB26E4B1A706C4BDB78DBB286
:402B80000B2B38D16B4B1B78DBB2002B0DD16E4B00221A706D4B00221A7001202E210BF08FF86B4B00221A7025E0614B1B78DBB2013BDAB25E4B1A70604B1B889DB25C4BCA
:402BC0001B78DBB29BB25E4A128892B2013292B202FB03F39AB25B4B1B889BB213449CB2574B1B889BB2DBB20093012020212A4623460BF0B1F84D4BDB78DBB20C2B43D19D
:402C00004B4B1B78DBB2002B3ED0494B1B78DAB2494B83F85420002387F82E30464B93F85430042B2DD1012387F82F3015E097F82F30414A134493F8542097F82F30454960
:402C4000CB5C9A4204D197F82E30013387F82E3097F82F30013387F82F3097F82F30042BE5D997F82E30042B07D1374B13221A7001205D210BF024F806E0334B00221A70A8
:402C800002E0314B00221A700DF062F900F073BE00F071BE0DF014F90346082B40F0B580224B1B78DBB2AA2B40F0A8801F4B9B79DBB2C32B40F0A2801C4BDB79DBB23C2BD3
:402CC00040F09C80194BDB78DBB2652B26D0652B03DC582B06D05A2B90E07E2B00F08A80962B8BE0184B14221A70124B00221A7001203E210AF0E4FF0BF088FB0346012BB6
:402D000002D101200BF08CF80BF0C8FB0346012B03D101200BF0FAF870E06FE0012037210AF0CEFF002387F82F3022E07090FF1F4D87FF1F6385FF1FE088FF1F0885FF1FE2
:402D40005C85FF1FB688FF1F6887FF1FB888FF1FEF86FF1F2881FF1F97F82F309E4AD35C032019460BF030FD97F82F30013387F82F3097F82F30102BEED903200A210BF04B
:402D800023FD03200A210BF01FFD03200A210BF01BFD03200A210BF017FD002387F82F300CE097F82F308C4AD35C042019460BF00BFD97F82F30013387F82F3097F82F307C
:402DC000102BEED904200A210BF0FEFC04200A210BF0FAFC04200A210BF0F6FC04200A210BF0F2FC01206B210AF06AFF7B4B17221A7003E0794B00221A7000BF64200BF0AF
:402E0000FFFF0DF0A5F800F0B6BD00F0B4BD0DF057F80346082B3FD1714B1B78DBB2AA2B33D16F4B9B79DBB2C32B2ED16C4BDB79DBB23C2B29D16A4BDB78DBB23F2B04D095
:402E40007E2B1ED03E2B0ED01FE0664B00221A70654B00221A70614B15221A70012040210AF02EFF11E05F4B00221A705E4B00221A705A4B16221A7001203F210AF020FF09
:402E800003E0564B00221A7000BF64200BF0B8FF0DF05EF800F06FBD00F06DBD0DF010F80346082B40F0A0814D4B1B78DBB2AA2B40F094814A4B9B79DBB2C32B40F08E815D
:402EC000474BDB79DBB23C2B40F08881454B1B78DBB2042B00F21B8101A252F823F000BFF52E0000672F0000F12F00000F3100009F3000003A4BDB78DBB2012B1AD8394BA4
:402F00001B78DBB20133DAB2364B1A70344BDB78DBB23033DAB2334B1B78DBB2012011461A460BF071F82E4BDB78DBB21B01DAB22E4B5A702A4BDB78DBB20A2B12D1294B59
:402F40001B78DBB20133DAB2264B1A70274B00225A70244B1B78DBB2012030211A460BF053F8D4E0D3E01E4BDB78DBB2092B1CD81C4B1B78DBB20133DAB21A4B1A70184B00
:402F8000DB78DBB23033DAB2164B1B78DBB2012011461A460BF038F8114BDB78DBB2134A52781343DAB2114B5A700D4BDB78DBB20A2B0FD10B4B1B78DBB20133DAB2094B7C
:402FC0001A70084B1B78DBB2012030211A460BF01BF89CE09BE000BF3081FF1F6887FF1F7090FF1F6385FF1F8984FF1FF084FF1FB24BDB78DBB2052B29D8B14B1B78DBB257
:403000000133DAB2AE4B1A70AD4B1B78DBB201203A211A460AF0F8FFA94B1B78DBB20133DAB2A74B1A70A54BDB78DBB23033DAB2A34B1B78DBB2012011461A460AF0E4FF96
:403040009E4BDB78DBB21B01DAB29E4B1A709B4BDB78DBB20A2B21D1994B1B78DBB20133DAB2974B1A70964B1B78DBB201203A211A460AF0C9FF924B1B78DBB20133DAB2F3
:403080008F4B1A708E4B1B78DBB2012030211A460AF0BAFF8B4B00221A7038E037E0874BDB78DBB2092B1CD8854B1B78DBB20133DAB2834B1A70814BDB78DBB23033DAB200
:4030C0007F4B1B78DBB2012011461A460AF09CFF7A4BDB78DBB27B4A12781343DAB2794B1A70764BDB78DBB20A2B0FD1744B1B78DBB20133DAB2724B1A70714B1B78DBB2DD
:40310000012030211A460AF07FFFFFE700BF6B4BDB78DBB2402B1AD16B4B1B78DBB2002B08D1694B01221A700120702106220AF06BFF07E0644B00221A700120612106222E
:403140000AF062FF01206D2107220AF05DFF5B4BDB78DBB20B2B1BD1594B1B78DBB2002B07D15A4B13221A7001205D210AF0A8FD0EE0534B1B78DBB2012020211A460AF04D
:4031800043FF4F4B1B78DBB2013BDAB24C4B1A704A4BDB78DBB20C2B20D1494B1B78DBB2052B1BD1484B1B78DBB243F00203DBB25901444B5B78DAB2CBB21343DBB2DAB211
:4031C000404B5A700BF0B2F90346012B06D13F4B13221A7001205D210AF072FD64200BF00FFE0CF0B5FEC6E3C5E30CF069FE0346082B40F00982314B1B78DBB2AA2B40F070
:40320000FD812E4B9B79DBB2C32B40F0F7812B4BDB79DBB23C2B40F0F181294B1B78DBB2072B00F2B48101A252F823F04D320000D7320000473300008F350000F533000025
:40324000653400008F350000133500001B4BDB78DBB2032B1AD8194BDB78DBB23033DAB2174B1B78DBB2012011461A460AF0CCFE134B1B78DBB20133DAB2114B1A700F4B74
:40328000DB78DBB21B01DAB2114B1A700B4BDB78DBB20A2B1ED10E4B00221A70084B1B78DBB2012030211A460AF0AEFE044B1B78DBB20133DAB2024B1A7068E17090FF1FE9
:4032C0006385FF1FF084FF1F8984FF1F6887FF1F0888FF1F5BE1AA4BDB78DBB2092B1CD8A74BDB78DBB23033DAB2A64B1B78DBB2012011461A460AF087FEA14BDB78DBB222
:40330000A14A12781343DAB29F4B1A709D4B1B78DBB20133DAB29B4B1A70994BDB78DBB20A2B0FD1974B1B78DBB2012030211A460AF06AFE934B1B78DBB20133DAB2914BE1
:403340001A7024E123E18E4BDB78DBB2012B29D88C4B1B78DBB201202F211A460AF054FE884B1B78DBB20133DAB2864B1A70844BDB78DBB23033DAB2824B1B78DBB2012006
:4033800011461A460AF040FE7D4BDB78DBB21B01DAB27D4B5A707B4B1B78DBB20133DAB2784B1A70764BDB78DBB20A2B21D1754B1B78DBB201202F211A460AF025FE714BF7
:4033C0001B78DBB20133DAB26E4B1A706D4B1B78DBB2012030211A460AF016FE6A4B00225A70684B1B78DBB20133DAB2654B1A70CDE0CCE0624BDB78DBB2092B1CD8604BCB
:40340000DB78DBB23033DAB25E4B1B78DBB2012011461A460AF0F8FD594BDB78DBB25A4A52781343DAB2584B5A70564B1B78DBB20133DAB2534B1A70514BDB78DBB20A2B92
:403440000FD1504B1B78DBB2012030211A460AF0DBFD4C4B1B78DBB20133DAB2494B1A7095E094E0464BDB78DBB2092B29D8454B1B78DBB201202F211A460AF0C5FD414B20
:403480001B78DBB20133DAB23E4B1A703C4BDB78DBB23033DAB23B4B1B78DBB2012011461A460AF0B1FD364BDB78DBB21B01DAB2354B9A70334B1B78DBB20133DAB2314B30
:4034C0001A702F4BDB78DBB20A2B21D12D4B1B78DBB201202F211A460AF096FD294B1B78DBB20133DAB2274B1A70264B1B78DBB2012030211A460AF087FD234B00229A7000
:40350000204B1B78DBB20133DAB21E4B1A703EE03DE01B4BDB78DBB2092B1CD8184BDB78DBB23033DAB2174B1B78DBB2012011461A460AF069FD124BDB78DBB2124A927815
:403540001343DAB2104B9A700E4B1B78DBB20133DAB20C4B1A700A4BDB78DBB20A2B15D1084B1B78DBB2012030211A460AF04CFD044B1B78DBB20133DAB2024B1A7005E027
:403580007090FF1F6385FF1F0888FF1F00BFC14BDB78DBB20B2B1BD1BF4B1B78DBB2002B07D1BE4B13221A7001205D210AF088FB0EE0B94B1B78DBB2013BDAB2B64B1A70F6
:4035C000B54B1B78DBB2012020211A460AF01CFDB04BDB78DBB20C2B10D1AF4B1B78DBB2082B0BD10AF0DEFF0346012B06D1AB4B13221A7001205D210AF062FB64200BF06D
:40360000FFFB0CF0A5FCB6E1B5E10CF059FC0346082B53D19F4B1B78DBB2AA2B48D19D4B9B79DBB2C32B43D19A4BDB79DBB23C2B3ED1984BDB78DBB2392B04D07E2B33D06F
:40364000382B29D034E0964B01221A70944B03225A70944B01221A70924B04225A7040F29A208F490AF0DCFF0346012B13D140F265208C490AF0D4FF0346012B0BD1012068
:4036800068210AF01DFB4FF4FA700BF0B9FB834B00221A700CE00BE0804B18221A70012067210AF00DFB03E07C4B00221A7000BF64200BF0A5FB0CF04BFC5CE15BE10CF09C
:4036C000FFFB0346082B40F0C480724B1B78DBB2AA2B40F0B8806F4B9B79DBB2C32B40F0B2806C4BDB79DBB23C2B40F0AC80694BDB78DBB27E3B102B00F2A58001A252F834
:4037000023F000BF3F38000047380000473800004738000047380000473800004738000047380000473800004738000047380000473800004738000047380000493700004D
:403740009B370000ED370000554B01221A70544B04225A70534B01221A70524B04225A7040F29A204E490AF05BFF0346012B13D140F265204B490AF053FF0346012B0BD187
:4037800001206A210AF09CFA4FF4FA700BF038FB424B00221A7056E055E0414B01221A703F4B03225A703F4B01221A703D4B03225A7040F29A203A490AF032FF0346012BDF
:4037C00013D140F2652037490AF02AFF0346012B0BD1012069210AF073FA4FF4FA700BF00FFB2E4B00221A702DE02CE02C4B01221A702B4B00225A702A4B01221A70294B1C
:4038000000225A7040F29A2025490AF009FF0346012B13D140F2652022490AF001FF0346012B0BD101206C210AF04AFA4FF4FA700BF0E6FA194B00221A7004E003E0174BCD
:4038400000221A7000BF64200BF0DAFA0CF080FB91E090E0144B1B78DBB2032B19D90F4B00221A700CF050FE0CF016FF0E4B00221A700E4B00221A700D4B5B78DBB20C2B39
:4038800007D001202E210AF01BFA0A4B00221A7071E070E07090FF1F6385FF1F6887FF1FE487FF1F5488FF1F8486FF1FB888FF1F5888FF1FEF86FF1F304B1B78DBB2012B7E
:4038C00014D90CF021FE0CF0E7FE2D4B1B889BB2DAB22C4B1A702A4B5B889BB2012019460AF0EEF9254B00221A7044E043E0264B93F86030322B04D0234B93F86030002B10
:4039000003D101205521FDF7F5F8204B5B78DBB2012B04D101205521FDF7ECF82BE02AE0164B00221A7001202E210AF0C9F9154B0B221A701FE0144B93F86030002B09D11D
:40394000134B00221A70114B01225A70114B00221A700FE00C4B93F86030642B0AD10BF043FD0B4B00221A70084B01225A70094B00221A7000BF3037BD46B0BD8486FF1FE6
:403980006889FF1F6887FF1FE088FF1F5888FF1FEF86FF1FB888FF1FB0B590B004AFB34B1B78DBB2682B02F2008601A252F823F0553B00000B3C0000853C0000BB4300005D
:4039C000D9450000EF470000A948000089490000254A00000F4B0000AB6500008F4B0000334D0000554E0000D95100005B520000015400003555000095560000C958000018
:403A0000435A0000D15A00001F5E00003F620000F3620000AB650000AB650000AB650000AB650000AB650000AB650000AB650000AB650000AB650000AB650000AB6500009B
:403A4000AB650000AB650000AB650000AB650000AB650000AB650000AB650000AB650000AB650000AB650000AB650000AB650000AB650000AB650000AB650000AB65000046
:403A8000AB650000AB650000AB650000AB650000AB650000AB650000AB650000AB650000AB650000AB650000AB650000AB650000AB650000AB650000AB650000AB65000006
:403AC000AB650000AB650000AB650000AB650000AB650000AB650000AB650000AB650000AB650000AB650000AB650000AB650000AB650000AB650000AB650000AB650000C6
:403B0000AB650000AB650000AB650000AB650000AB650000AB650000AB650000AB650000AB650000AB650000AB650000AB650000AB650000AB650000AB650000AB65000085
:403B400089640000ED64000023650000556500006B650000454B01221A70002387F82F300CE097F82F3007F130021344002203F82C2C97F82F30013387F82F3097F82F30F9
:403B8000072BEED9002387F82F300BE097F82F30374A1344002283F8492097F82F30013387F82F3097F82F300A2BEFD9002387F82F300BE097F82F302D4A1344002283F824
:403BC000542097F82F30013387F82F3097F82F30082BEFD9274B1B78DBB2184606F0E6FB034687F82D3097F82D300A2B07D00B2B01D002F0DABC1D4B0B221A7003E01B4B8D
:403C00000B221A7000BF02F0D0BC194B93F86030642B1CD1184B1B78DBB2012B17D8174B1B78DBB2012B12D8154B1B78DBB2012B0DD8104B5B78DBB20C2B02D00D4B1C2274
:403C40005A700B4B002283F860200BF0CDFB074B03221A70022004210AF032F864200BF0CFF80CF0F1FA02F0A0BC00BF5E85FF1F6C87FF1F8C84FF1F6887FF1FEE84FF1FC1
:403C8000B985FF1F0CF098FA0346082B40F06983A54B1B78DBB2AA2B40F06183A24B9B79DBB2C32B40F05B839F4BDB79DBB23C2B40F055839D4B00221A709D4B1B78DAB22A
:403CC0009C4B1B78DBB29A4280F0BD80964BDB78DBB2092B32D8964B1B78DBB20133DAB2934B1A70924B1B78DBB21A468E4BDB78D9B2914B99548C4BDB78DBB23033D9B28A
:403D00008E4B1B889DB28A4B1B78DBB29BB28C4A128892B2013292B202FB03F39AB2894B1B889BB213449CB2854B1B889BB2DBB2009302202A4623460AF00EF87A4BDB78B0
:403D4000DBB20A2B3CD1804B1B78DBB2012B0AD1774B1B78DBB2012B05D1774B5B78DBB2002B00D12CE0724B1B78DBB20133DAB26F4B1A706E4B1B78DBB21A466E4B002180
:403D800099546E4B1B889DB2694B1B78DBB29BB26B4A128892B2013292B202FB03F39AB2684B1B889BB213449CB2654B1B889BB2DBB20093022030212A46234609F0CCFFE9
:403DC000594BDB78DBB2512B3DD1594B1B78DBB2002B38D05D4B1B78DBB2002B33D1544B1B78DBB20133DAB2514B1A70504B1B78DBB21A46564B1B78D9B24F4B9954544B22
:403E00001B78D9B24D4B1B889DB2494B1B78DBB29BB24B4A128892B2013292B202FB03F39AB2484B1B889BB213449CB2444B1B889BB2DBB2009302202A46234609F08CFF6A
:403E4000424B01221A70384BDB78DBB20B2B40F0C780374B1B78DBB2002B40F085803A4B1B78DBB2013B032B00F2BA8001A252F823F000BF853E0000953E0000E33E000045
:403E8000053F00000220052109F01AFF314B04221A7048E0304B93F84830012B07D12D4B04221A700220052109F00AFF3BE0204B00221A701F4B07221A70224B04221A80A0
:403EC0001E4B03221A801E4B01221A8002200A2109F0F6FE1F4B0D221A70144B00221A7021E01C4B00221A701C4B01225A701C4B00221A7002202E2109F0E2FE194B0022C1
:403F00005A7010E0134B00221A70144B01225A70134B00221A7002202E2109F0D1FE114B00225A7000BF5BE07890FF1FEF84FF1FBC88FF1F5288FF1F4889FF1F4E87FF1FF9
:403F40006085FF1FE687FF1F5185FF1F6485FF1F5385FF1F5E85FF1F6C87FF1F8C84FF1F6285FF1FB888FF1FB74B1B889DB2B74B1B78DBB29BB2B64A128892B2013292B267
:403F800002FB03F39AB2B34B1B889BB213449CB2AF4B1B889BB2DBB20093022020212A46234609F0D9FEA94B1B78DBB21A46AA4B9B5CDAB2A94B1B78DBB29A4202D1A84B77
:403FC00000221A70A14B1B78DBB21A46A24B002199549E4B1B78DBB2013BDAB29B4B1A70A04BDB78DBB20C2B40F0B9819E4B1B78DBB2013B032B00F2B28101A252F823F069
:4040000011400000BB4100008D42000005430000002387F82F300CE097F82F3007F130021344002203F82C2C97F82F30013387F82F3097F82F30072BEED9844B1B78DBB275
:40404000002B00F0B980814B1B78DBB21A46824B9B5CDBB22E2B00F0AF80012387F82F3028E097F82F307C4AD35CDBB22E2B0FD097F82F30013B97F82F2077498A5CD2B2F3
:404080003032D2B207F130010B4403F82C2C0CE097F82F30013B97F82F206F498A5CD2B207F130010B4403F82C2C97F82F30013387F82F30654B1B78DBB297F82F209A42E4
:4040C000CFD93B1D18460CF0FFFEC7E90801674BDB7E022B09D1D7E908014FF00002644B0CF0DEFE0346002B1AD1604BDB7E012B62D1D7E908014FF000025E4B0CF0C6FED8
:404100000346002B00D12AE1D7E908014FF000024FF000030CF0CEFE0346002B00D11EE14A4B1B7887F82F3015E097F82F30474A1278D2B2114697F82F208A1A01324649B4
:404140008A5CD1B2494A13440A46DA7697F82F30013B87F82F3097F82F30002BE5D1464B05221A70414B93F84830002B1CD1434B93F85C30DBB2012B0CD0414B1B889BB2D6
:40418000012B07D03E4B1B889BB20220194609F097FD11E0384B0C221A70384B93F85930DAB2324B5A7607E0334B06221A700220072109F085FDD2E0D1E0244B1B7887F819
:4041C0002F3016E097F82F30204A1278D2B2114697F82F208A1A01321F498A5CD1B2234A13440A4683F8332097F82F30013B87F82F3097F82F30002BE4D11C4B93F8483005
:40420000012B07D11C4B04221A700220052109F057FDA4E00D4B00221A701A4B07221A700C4B04221A80084B03221A80084B01221A8002200A2109F043FD0F4B0D221A705C
:40424000114B00221A708AE04E87FF1FBC88FF1F6085FF1FE687FF1F4889FF1F5385FF1F6485FF1F7890FF1F5185FF1F6C87FF1F0000894000208C405E85FF1F8C84FF1FEE
:404280002E85FF1F5288FF1FEF84FF1FBB4B1B7887F82F3018E097F82F30B84A1278D2B2114697F82F208A1A0132B5498A5CD2B23032D1B2B34A13440A4683F8492097F8C7
:4042C0002F30013B87F82F3097F82F30002BE2D1AD4B02221A700220252109F0F1FCA74B00221A70A94B04221A70A94B0A221A70A84B02221A80A84B03221A80A74B012221
:404300001A802CE09D4B1B7887F82F3018E097F82F309A4A1278D2B2114697F82F208A1A013297498A5CD2B23032D1B2954A13440A4683F8542097F82F30013B87F82F30EE
:4043400097F82F30002BE2D18F4B66221A700220392109F0B5FC924B10225A7000BF0BF073FF904B1B78DBB21D2B24D9854B93F84830002B1FD1854B1B78DBB2022B1AD124
:404380007E4B00221A70824B07221A70814B04221A80814B03221A80804B01221A8002200A2109F08DFC784B0D221A707D4B00221A7002F0FAB802F0F8B80BF0FDFE034625
:4043C000082B40F00781784B1B78DBB2AA2B40F0FD80754B9B79DBB2C32B40F0F780724BDB79DBB23C2B40F0F1806F4BDB78DBB20E2B61D00E2B02DC0D2B07D0E6E0452B71
:4044000000F0B4807E2B00F0D380DFE0002387F82F300BE097F82F305A4A1344002283F8332097F82F30013387F82F3097F82F300A2BEFD9534B93F86030312B0BD1524B6F
:4044400004221A700220052109F03AFC4D4B002283F848202FE04B4B93F86030302B07D14F4B1C225A7002204121FCF743FB22E0444B93F86030322B0ED0424B93F860309F
:40448000002B09D03F4B93F86030012B04D03D4B93F86030642B0ED13B4B04221A700220052109F00DFC374B002283F848203C4B1C225A708AE089E0002387F82F300BE0ED
:4044C00097F82F302F4A1344002283F8332097F82F30013387F82F3097F82F300A2BEFD9284B93F86030312B0BD1274B10221A700220122109F0E4FB224B012283F848208F
:4045000033E0204B93F86030302B07D1244B1C225A7002204121FCF7EDFA26E0194B93F86030322B0ED0174B93F86030002B09D0144B93F86030012B04D0124B93F86030A7
:40454000642B12D1104B64221A700220552109F0B7FB144B01221A7014480CF0E3F90CF06FF90F4B1C225A7030E02FE0064B11221A700220832109F0A3FB27E0BC88FF1F22
:404580004889FF1F6C87FF1F5E85FF1F5185FF1F5288FF1FE687FF1F4E87FF1F6085FF1F8C84FF1FEF84FF1F7890FF1F29A20000AD4B00221A70AD4B00225A7002202E21E4
:4045C00009F07EFBAA4B00221A7000BF0BF03CFE01F0EBBF01F0E9BF0BF0EEFD0346082B40F00381A34B1B78DBB2AA2B40F0F980A04B9B79DBB2C32B40F0F3809D4BDB7985
:40460000DBB23C2B40F0ED809A4BDB78DBB2102B48D0102B02DC0F2B06D0E2E03B2B00F0D880432B7ED0DCE0002387F82F300AE097F82F30904A13440022DA7697F82F3056
:40464000013387F82F3097F82F30072BF0D9864B02221A70894B00221A70894B01221A70884B2E221A70884B06221A70824B0222DA76864B00221A700220062109F020FB72
:40468000834B04221A80834B03221A80824B01221A8001230093022024210322042309F05BFB9EE0002387F82F300AE097F82F30714A13440022DA7697F82F30013387F820
:4046C0002F3097F82F30072BF0D9674B02221A706A4B00221A706A4B01221A70694B2E221A706E4B5B78DAB2674B1A70624B0122DA76664B00221A7002200D2109F0E0FACD
:40470000634B04221A80634B03221A80624B01221A8001230093022047210322042309F01BFB5EE0002387F82F300AE097F82F30514A13440022DA7697F82F30013387F87C
:404740002F3097F82F30072BF0D94B4B0322DA76052387F82F300AE097F82F30464A13440922DA7697F82F30013387F82F3097F82F30062BF0D9404B93F84830002B1FD115
:40478000474B93F85C30DBB2012B0FD0454B1B889BB2012B0AD0434B1B889BB20220194609F08EFA304B05221A7011E02E4B0C221A703B4B93F85930DAB22F4B5A7607E00D
:4047C000294B06221A700220072109F079FA08E007E0254B03221A700220042109F070FA00BF0BF031FD01F0E0BE01F0DEBE0BF0E3FC0346082B34D11E4B1B78DBB2AA2B88
:404800002BD11C4B9B79DBB2C32B26D1194BDB79DBB23C2B21D1174BDB78DBB2802B04D0812B09D07F2B0ED014E0134B01225A760D4B0C221A700DE00F4B03225A760A4B3D
:404840000C221A7006E00C4B02225A76064B0C221A7000BF32200AF0D3FA0BF0F5FC01F0A4BE01F0A2BE00BF5E85FF1FB888FF1F6285FF1F7890FF1F6C87FF1FBC88FF1F22
:404880005185FF1F5385FF1F5288FF1F6485FF1FE687FF1F4E87FF1F6085FF1F0485FF1F8C84FF1F2E85FF1F32200AF0A9FA0BF083FC0346082B24D1C24B1B78DBB2AA2B0C
:4048C0001BD1C04B9B79DBB2C32B16D1BD4BDB79DBB23C2B11D1BB4BDB78DBB27E2B0CD1B94B00221A70B94B00225A7002202E2109F0E6F9B64B00221A700BF0A5FC01F08A
:4049000054BEB44B1B78DBB2184605F04FFD034687F82F3097F82F30072B06D1AA4B07221A7032200AF06CFA2CE097F82F30002B0ED132200AF064FAA64B1B78DAB207F179
:404940000C03104601211A46022306F0CFF919E097F82F300C2B04D102205521FCF7CAF810E097F82F300B2B03D1974B0B221A7008E097F82F300A2B04D1934B0B221A7037
:4049800001F013BE01F011BE0A200AF039FA914B1B78DBB2184605F0CBFD03461A468E4B9A768D4B9B7E002B3AD08B4B93F84830002B18D1884B5A7E874B9B7E013B8549C2
:4049C0000B4493F85930DBB29A4206D17E4B08221A700A200AF014FA22E002205521FCF789F801F0E2BD7C4B93F84830012B06D1754B08221A700A200AF002FA10E0764BB5
:404A000093F84830022B0BD16F4B66221A700220392109F055F96F4B1F225A7001F0C5BD01F0C3BD0A200AF0EBF96A4B1B78DBB2184605F0BBFC0346072B66D1664B93F85D
:404A40004830002B51D1644B9B7E022B09D0032B0DD0012B11D140F2E220062109F042FE0BE04FF43A70062109F03CFE05E040F2EE20062109F036FE00BF584B5B783B7665
:404A8000564B9B787B76554BDB78BB76534B1B79FB76524B5B793B77504B1B78052B1BD14C4B1B78D9B24C4B9B7E07F11802084611461A4606F05AFD0346012B07D1424B7A
:404AC00009221A7009F0A2FC09F0E8FC1DE002205521FCF70FF818E002205521FCF70AF83C4B1C225A7001F060BD374B66221A700220392109F0E4F8364B09225A7009F088
:404B000085FC09F0CBFC01F050BD01F04EBD0A200AF076F92F4B1B78DBB2184605F046FC0346072B31D10A200AF06AF9294B1B78D9B2294B9A7E284BDB7E08461146284A73
:404B400006F0D4F80346002B04D102205521FBF7D1FF1AE00A200AF053F91E4B1B78DBB243F01003DBB218460AF05AFB164B0B221A70184B08225A70154B00221A700220C0
:404B80002E2109F09DF801F010BD01F00EBD32200AF036F90F4B1B78DBB2184605F006FC03460A2B62D00B2B04D0062B00F0A68001F0FBBC64200AF023F9002387F82F3010
:404BC00021E000BF7890FF1F5E85FF1FB888FF1F6285FF1F8C84FF1F6C87FF1F6885FF1F8787FF1F97F82F308D4A13440022DA7197F82F308A4A134400221A7497F82F30B5
:404C0000013387F82F3097F82F30082BEAD9854B1B78DBB2184605F049FD0346012B03D1814B0F221A7082E0002387F82F300CE097F82F307D4AD35C0320194609F0C4FDB6
:404C400097F82F30013387F82F3097F82F30122BEED903200A2109F0B7FD03200A2109F0B3FD03200A2109F0AFFD60E0002387F82F3010E097F82F30694A13440022DA71C7
:404C800097F82F30664A134400221A7497F82F30013387F82F3097F82F30082BEAD9614B1B78DBB2184605F001FD0346012B03D15D4B0F221A703AE0002387F82F300CE09B
:404CC00097F82F30594AD35C0320194609F07CFD97F82F30013387F82F3097F82F30122BEED903200A2109F06FFD03200A2109F06BFD03200A2109F067FD18E04A4B6422EE
:404D00001A7009F083FB09F0C9FB464B1B78DBB2184605F0CBFC434B0C225A7044480BF001FE0BF08DFD434B01221A7000BF01F03CBC3B4B93F84830002B35D13E4B5B7860
:404D4000DBB2002B16D13D4B00221A703C4B07221A703C4B04221A803B4B03221A803B4B01221A8002200A2108F0AAFF2E4B0D221A7036E002200E2108F0A2FF2A4B02229E
:404D80001A702E4B00221A70314B02221A702C4B0A221A702B4B02221A802B4B03221A802A4B01221A801CE01D4B93F84830012B07D11D4B0F221A70194B012283F847205B
:404DC0000FE0174B93F84830022B0AD10220072108F076FF144B06221A70114B002283F84720002387F82F300BE097F82F300C4A1344002283F83E2097F82F30013387F80C
:404E00002F3097F82F30082BEFD909480BF08AFD0BF016FD074B00221A7001F0C6BB00BF6C87FF1F8C84FF1F5E85FF1F5C81FF1F29A20000EF84FF1FEC84FF1FBC88FF1F93
:404E40005288FF1FE687FF1F4E87FF1F6085FF1F5185FF1F0BF0B0F90346082B40F0B081944B1B78DBB2AA2B40F0A881914B9B79DBB2C32B40F0A2818E4BDB79DBB23C2B38
:404E800040F09C818C4B00221A708C4B1B78DAB28B4B1B78DBB29A4280F0F180854BDB78DBB2092B34D8854B1B78DBB20133DAB2824B1A70814B1B78DBB21A467D4BDB781B
:404EC000DBB23033D9B27F4B99547A4BDB78DBB23033D9B27C4B1B889DB2784B1B78DBB29BB27A4A128892B2013292B202FB03F39AB2774B1B889BB213449CB2734B1B88F4
:404F00009BB2DBB2009302202A46234608F024FF684BDB78DBB20A2B2CD1684B1B78DBB20133DAB2654B1A70644B1B78DBB21A46644B30219954644B1B889DB25F4B1B7862
:404F4000DBB29BB2614A128892B2013292B202FB03F39AB25E4B1B889BB213449CB25B4B1B889BB2DBB20093022030212A46234608F0F2FE4F4BDB78DBB26A2B2CD14F4B4A
:404F80001B78DBB20133DAB24C4B1A704B4B1B78DBB21A464B4B2D2199544B4B1B889DB2464B1B78DBB29BB2484A128892B2013292B202FB03F39AB2454B1B889BB2134486
:404FC0009CB2424B1B889BB2DBB2009302202D212A46234608F0C0FE364BDB78DBB21A2B4DD9344BDB78DBB2422B48D8002387F82F3040E02F4BDB78DAB297F82F30354929
:40500000CB5C9A4232D12D4B1B78DBB20133DAB22A4B1A70294B1B78DBB21A4697F82F304133D9B2274B995497F82F304133D9B2254B1B889DB2214B1B78DBB29BB2234A3E
:40504000128892B2013292B202FB03F39AB2204B1B889BB213449CB21C4B1B889BB2DBB2009302202A46234608F076FE97F82F30013387F82F3097F82F30192BBAD90D4BA1
:40508000DB78DBB20B2B53D10C4B1B78DBB2002B28D1114B5B78DBB21A2B49D00F4B002283F83E2002200B2108F00AFE0C4B0E221A703DE07890FF1FEF84FF1FBC88FF1F17
:4050C0005288FF1F4889FF1F4E87FF1F6085FF1FE687FF1F0C81FF1F8C84FF1F6C87FF1F5E85FF1FB34B1B889DB2B34B1B78DBB29BB2B24A128892B2013292B202FB03F3BE
:405100009AB2AF4B1B889BB213449CB2AB4B1B889BB2DBB20093022020212A46234608F01BFEA54B1B78DBB2013BDAB2A24B1A70A44BDB78DBB20C2B40D19F4B1B78DBB2D1
:40514000002B3BD0A04B1B78DAB2A04B83F83E20012387F82F3010E097F82F3097F82F209B498A5CD1B2994A13440A4683F83E2097F82F30013387F82F308F4B1B78DBB2C3
:4051800097F82F209A42E7D9924B5B78DBB21A2B0AD0914B0E221A7002200B2108F090FD8E4B00221A7009E08B4B66221A700220392108F085FD874B1B225A700BF044F854
:4051C000864B1B78DBB21D2B04D9834B64221A7001F0EBB901F0E9B90AF0EEFF0346082B2FD1784B1B78DBB2AA2B28D1754B9B79DBB2C32B23D1734BDB79DBB23C2B1ED147
:40520000704BDB78DBB2382B0DD0392B17D10220072108F055FD704B06221A706B4B012283F847200BE00220072108F049FD6A4B06221A70654B002283F8472000BF0BF043
:4052400003F8664B1B78DBB21D2B04D9624B64221A7001F0AAB901F0A8B95E4B1B78DAB25C4B93F85C30DBB21046194606F0A8FA03461A46574B93F85C30DBB29A4273D369
:4052800009F0C4F809F00AF9544B00221A704F4B93F84830002B0BD04F4B67221A700220392108F00DFD494B012283F8472002E0494B68221A70474B0C225A70434B93F85E
:4052C0006030322B09D0414B93F86030002B04D03E4B93F86030642B69D13C4B93F84830002B64D1394B93F84730012B5FD13C4B5B78DAB23B4B5B781046002140F2AF3240
:4053000008F022FB374B5B7818461B2109F05CFA344B5B781846402109F056FA314B5B7818460A2109F050FA2E4B5B7818460A2109F04AFA274B1B78D8B22A4B5978234B50
:405340009B7E013B234A134493F85930DAB2264B0093264B0193264B0293264B0393264B07F060FE01F021B9002387F82F300CE097F82F30214AD35C0320194609F024FABF
:4053800097F82F30013387F82F3097F82F30142BEED903200A2109F017FA03200A2109F013FA03200A2109F00FFA01F0FEB801F0FCB800BF4E87FF1FBC88FF1F6085FF1F9A
:4053C000E687FF1F7890FF1F5288FF1F6C87FF1F4889FF1F8C84FF1F5E85FF1FEF84FF1FEC86FF1F5488FF1F7C87FF1F7387FF1FAA87FF1F9F87FF1F6E87FF1F4481FF1FF8
:40540000022008F097FE0346012B6CD10220332108F0F0FE0346002B65D0002387F82F300FE097F82F40022008F06AFF03461A468A4B234483F8232097F82F30013387F851
:405440002F3097F82F30072BEBD9854B00221A70002387F82F3014E0814B197897F82F307E4A134493F823300846194608F0A2FF03461A467A4B1A7097F82F30013387F851
:405480002F3097F82F30062BE6D9744B93F82A20734B1B789A4226D10220132108F010FC704B00221A7070480BF03CFA0BF0C8F96E4B65221A706E4B02229A806C4B0E22E9
:4054C000DA806C4B00221A706B4B02221A706B4B0A221A706A4B02221A806A4B03221A80694B01221A800AF067FE0346082B1FD1664B1B78DBB2AA2B16D1644B9B79DBB21F
:40550000C32B11D1614BDB79DBB23C2B0CD15F4BDB78DBB23B2B07D1544B00221A7002202E2108F0CDFB00BF0AF08EFE01F03DB801F03BB80AF040FE0346082B40F08B8088
:40554000524B1B78DBB2AA2B40F081804F4B9B79DBB2C32B7BD14D4BDB79DBB23C2B76D14A4BDB78DBB2462B09D0462B02DC3B2B65D06CE0552B2ED0B52B46D067E0374B9A
:4055800093F86030322B04D0344B93F86030002B04D102205521FBF7ADFA58E00220392108F08EFB314B66221A70394B0D225A70304B00221A70304B03221A702F4B0A229D
:4055C0001A702F4B02221A802E4B03221A802E4B01221A803BE0254B12221A70274B00221A700220252108F06BFB224B00221A70224B0A221A70224B03221A80214B032255
:405600001A80214B01221A8021E0144B93F86030322B04D0114B93F86030002B04D102205521FBF767FA12E0104B66221A700220392108F045FB164B19225A7007E00B4BE3
:4056400003221A700220042108F03AFB00BF0AF0FBFD00F0AABF00F0A8BF00BF6C87FF1F5085FF1FEF84FF1F29A200005E85FF1F6889FF1FBC88FF1F5185FF1F5288FF1F29
:40568000E687FF1F4E87FF1F6085FF1F7890FF1F8C84FF1F0AF090FD0346082B40F01281AF4B1B78DBB2AA2B40F00881AC4B9B79DBB2C32B40F00281A94BDB79DBB23C2B32
:4056C00040F0FC80A74B1B78DAB2A74B1B78DBB29A426CD2A24BDB78DBB2092B33D8A14B1B78DBB201339E4AD278D2B23032D1B29E4A13440A4683F854209D4B1B889DB282
:40570000984B1B78DBB29BB29A4A128892B2013292B202FB03F39AB2974B1B889BB213449CB2944B1B889BB2DBB2009302202A212A46234608F010FB8A4B1B78DBB20133C9
:40574000DAB2884B1A70864BDB78DBB20A2B2ED1844B1B78DBB20133844A1344302283F85420834B1B889DB27E4B1B78DBB29BB2804A128892B2013292B202FB03F39AB27E
:405780007D4B1B889BB213449CB27A4B1B889BB2DBB2009302202A212A46234608F0DCFA704B1B78DBB20133DAB26E4B1A706C4BDB78DBB20B2B38D16B4B1B78DBB2002BEE
:4057C0000DD16E4B00221A706D4B00225A7002202E2108F075FA6B4B00221A7025E0614B1B78DBB2013BDAB25E4B1A70604B1B889DB25C4B1B78DBB29BB25E4A128892B285
:40580000013292B202FB03F39AB25B4B1B889BB213449CB2574B1B889BB2DBB20093022020212A46234608F097FA4D4BDB78DBB20C2B43D14B4B1B78DBB2002B3ED0494BBA
:405840001B78DAB2494B83F85420002387F82E30464B93F85430042B2DD1012387F82F3015E097F82F30414A134493F8542097F82F304549CB5C9A4204D197F82E3001337E
:4058800087F82E3097F82F30013387F82F3097F82F30042BE5D997F82E30042B07D1374B13221A7002205D2108F00AFA06E0334B00221A7002E0314B00221A700AF0C4FC8B
:4058C00000F073BE00F071BE0AF076FC0346082B40F0B580224B1B78DBB2AA2B40F0A8801F4B9B79DBB2C32B40F0A2801C4BDB79DBB23C2B40F09C80194BDB78DBB2652B47
:4059000026D0652B03DC582B06D05A2B90E07E2B00F08A80962B8BE0184B14221A70124B00221A7002203E2108F0CAF908F06EFD0346012B02D1022008F072FA08F0AEFDA9
:405940000346012B03D1022008F0E0FA70E06FE00220372108F0B4F9002387F82F3022E07890FF1FBC88FF1F5288FF1F6C87FF1F4E87FF1F6085FF1FE687FF1F5E85FF1F16
:40598000B888FF1F6285FF1F2881FF1F97F82F309E4AD35C0320194608F016FF97F82F30013387F82F3097F82F30102BEED903200A2108F009FF03200A2108F005FF03207E
:4059C0000A2108F001FF03200A2108F0FDFE002387F82F300CE097F82F308C4AD35C0420194608F0F1FE97F82F30013387F82F3097F82F30102BEED904200A2108F0E4FEE0
:405A000004200A2108F0E0FE04200A2108F0DCFE04200A2108F0D8FE02206B2108F050F97B4B17221A7003E0794B00221A7000BF642009F0E5F90AF007FC00F0B6BD00F0CE
:405A4000B4BD0AF0B9FB0346082B3FD1714B1B78DBB2AA2B33D16F4B9B79DBB2C32B2ED16C4BDB79DBB23C2B29D16A4BDB78DBB23F2B04D07E2B1ED03E2B0ED01FE0664B24
:405A800000221A70654B00221A70614B15221A700220402108F014F911E05F4B00221A705E4B00221A705A4B16221A7002203F2108F006F903E0564B00221A7000BF6420FA
:405AC00009F09EF90AF0C0FB00F06FBD00F06DBD0AF072FB0346082B40F0A0814D4B1B78DBB2AA2B40F094814A4B9B79DBB2C32B40F08E81474BDB79DBB23C2B40F08881AF
:405B0000454B1B78DBB2042B00F21B8101A252F823F000BF295B00009B5B0000255C0000435D0000D35C00003A4BDB78DBB2012B1AD8394B1B78DBB20133DAB2364B1A707D
:405B4000344BDB78DBB23033DAB2334B1B78DBB2022011461A4608F057FA2E4BDB78DBB21B01DAB22E4B5A702A4BDB78DBB20A2B12D1294B1B78DBB20133DAB2264B1A7017
:405B8000274B00225A70244B1B78DBB2022030211A4608F039FAD4E0D3E01E4BDB78DBB2092B1CD81C4B1B78DBB20133DAB21A4B1A70184BDB78DBB23033DAB2164B1B78C6
:405BC000DBB2022011461A4608F01EFA114BDB78DBB2134A52781343DAB2114B5A700D4BDB78DBB20A2B0FD10B4B1B78DBB20133DAB2094B1A70084B1B78DBB2022030217D
:405C00001A4608F001FA9CE09BE000BF3081FF1F5E85FF1F7890FF1F5288FF1F6485FF1FF084FF1FB24BDB78DBB2052B29D8B14B1B78DBB20133DAB2AE4B1A70AD4B1B78DC
:405C4000DBB202203A211A4608F0DEF9A94B1B78DBB20133DAB2A74B1A70A54BDB78DBB23033DAB2A34B1B78DBB2022011461A4608F0CAF99E4BDB78DBB21B01DAB29E4BE0
:405C80001A709B4BDB78DBB20A2B21D1994B1B78DBB20133DAB2974B1A70964B1B78DBB202203A211A4608F0AFF9924B1B78DBB20133DAB28F4B1A708E4B1B78DBB2022083
:405CC00030211A4608F0A0F98B4B00221A7038E037E0874BDB78DBB2092B1CD8854B1B78DBB20133DAB2834B1A70814BDB78DBB23033DAB27F4B1B78DBB2022011461A4671
:405D000008F082F97A4BDB78DBB27B4A12781343DAB2794B1A70764BDB78DBB20A2B0FD1744B1B78DBB20133DAB2724B1A70714B1B78DBB2022030211A4608F065F9FFE745
:405D400000BF6B4BDB78DBB2402B1AD16B4B1B78DBB2002B08D1694B01221A7002207021062208F051F907E0644B00221A7002206121062208F048F902206D21072208F008
:405D800043F95B4BDB78DBB20B2B1BD1594B1B78DBB2002B07D15A4B13221A7002205D2107F08EFF0EE0534B1B78DBB2022020211A4608F029F94F4B1B78DBB2013BDAB2A5
:405DC0004C4B1A704A4BDB78DBB20C2B20D1494B1B78DBB2052B1BD1484B1B78DBB243F00203DBB25901444B5B78DAB2CBB21343DBB2DAB2404B5A7008F098FB0346012B14
:405E000006D13F4B13221A7002205D2107F058FF642008F0F5FF0AF017FAC6E3C5E30AF0CBF90346082B40F00982314B1B78DBB2AA2B40F0FD812E4B9B79DBB2C32B40F03C
:405E4000F7812B4BDB79DBB23C2B40F0F181294B1B78DBB2072B00F2B48101A252F823F0815E00000B5F00007B5F0000C36100002960000099600000C361000047610000C8
:405E80001B4BDB78DBB2032B1AD8194BDB78DBB23033DAB2174B1B78DBB2022011461A4608F0B2F8134B1B78DBB20133DAB2114B1A700F4BDB78DBB21B01DAB2114B1A7060
:405EC0000B4BDB78DBB20A2B1ED10E4B00221A70084B1B78DBB2022030211A4608F094F8044B1B78DBB20133DAB2024B1A7068E17890FF1F5288FF1FF084FF1F6485FF1F73
:405F00005E85FF1F0888FF1F5BE1AA4BDB78DBB2092B1CD8A74BDB78DBB23033DAB2A64B1B78DBB2022011461A4608F06DF8A14BDB78DBB2A14A12781343DAB29F4B1A70DA
:405F40009D4B1B78DBB20133DAB29B4B1A70994BDB78DBB20A2B0FD1974B1B78DBB2022030211A4608F050F8934B1B78DBB20133DAB2914B1A7024E123E18E4BDB78DBB215
:405F8000012B29D88C4B1B78DBB202202F211A4608F03AF8884B1B78DBB20133DAB2864B1A70844BDB78DBB23033DAB2824B1B78DBB2022011461A4608F026F87D4BDB781E
:405FC000DBB21B01DAB27D4B5A707B4B1B78DBB20133DAB2784B1A70764BDB78DBB20A2B21D1754B1B78DBB202202F211A4608F00BF8714B1B78DBB20133DAB26E4B1A7093
:406000006D4B1B78DBB2022030211A4607F0FCFF6A4B00225A70684B1B78DBB20133DAB2654B1A70CDE0CCE0624BDB78DBB2092B1CD8604BDB78DBB23033DAB25E4B1B7891
:40604000DBB2022011461A4607F0DEFF594BDB78DBB25A4A52781343DAB2584B5A70564B1B78DBB20133DAB2534B1A70514BDB78DBB20A2B0FD1504B1B78DBB2022030213D
:406080001A4607F0C1FF4C4B1B78DBB20133DAB2494B1A7095E094E0464BDB78DBB2092B29D8454B1B78DBB202202F211A4607F0ABFF414B1B78DBB20133DAB23E4B1A7003
:4060C0003C4BDB78DBB23033DAB23B4B1B78DBB2022011461A4607F097FF364BDB78DBB21B01DAB2354B9A70334B1B78DBB20133DAB2314B1A702F4BDB78DBB20A2B21D1C6
:406100002D4B1B78DBB202202F211A4607F07CFF294B1B78DBB20133DAB2274B1A70264B1B78DBB2022030211A4607F06DFF234B00229A70204B1B78DBB20133DAB21E4B1E
:406140001A703EE03DE01B4BDB78DBB2092B1CD8184BDB78DBB23033DAB2174B1B78DBB2022011461A4607F04FFF124BDB78DBB2124A92781343DAB2104B9A700E4B1B7844
:40618000DBB20133DAB20C4B1A700A4BDB78DBB20A2B15D1084B1B78DBB2022030211A4607F032FF044B1B78DBB20133DAB2024B1A7005E07890FF1F5288FF1F0888FF1F3C
:4061C00000BFC14BDB78DBB20B2B1BD1BF4B1B78DBB2002B07D1BE4B13221A7002205D2107F06EFD0EE0B94B1B78DBB2013BDAB2B64B1A70B54B1B78DBB2022020211A4693
:4062000007F002FFB04BDB78DBB20C2B10D1AF4B1B78DBB2082B0BD108F0C4F90346012B06D1AB4B13221A7002205D2107F048FD642008F0E5FD0AF007F8B6E1B5E109F03B
:40624000BBFF0346082B53D19F4B1B78DBB2AA2B48D19D4B9B79DBB2C32B43D19A4BDB79DBB23C2B3ED1984BDB78DBB2392B04D07E2B33D0382B29D034E0964B01221A7060
:40628000944B03225A70944B01221A70924B04225A7040F29A208F4908F0C2F90346012B13D140F265208C4908F0BAF90346012B0BD10220682107F003FD4FF4FA7008F018
:4062C0009FFD834B00221A700CE00BE0804B18221A700220672107F0F3FC03E07C4B00221A7000BF642008F08BFD09F0ADFF5CE15BE109F061FF0346082B40F0C480724B55
:406300001B78DBB2AA2B40F0B8806F4B9B79DBB2C32B40F0B2806C4BDB79DBB23C2B40F0AC80694BDB78DBB27E3B102B00F2A58001A252F823F000BF736400007B640000E6
:406340007B6400007B6400007B6400007B6400007B6400007B6400007B6400007B6400007B6400007B6400007B6400007B6400007D630000CF63000021640000554B01224F
:406380001A70544B04225A70534B01221A70524B04225A7040F29A204E4908F041F90346012B13D140F265204B4908F039F90346012B0BD102206A2107F082FC4FF4FA7049
:4063C00008F01EFD424B00221A7056E055E0414B01221A703F4B03225A703F4B01221A703D4B03225A7040F29A203A4908F018F90346012B13D140F26520374908F010F97D
:406400000346012B0BD10220692107F059FC4FF4FA7008F0F5FC2E4B00221A702DE02CE02C4B01221A702B4B00225A702A4B01221A70294B00225A7040F29A20254908F0E5
:40644000EFF80346012B13D140F26520224908F0E7F80346012B0BD102206C2107F030FC4FF4FA7008F0CCFC194B00221A7004E003E0174B00221A7000BF642008F0C0FC77
:4064800009F0E2FE91E090E0144B1B78DBB2032B19D90F4B00221A700AF056FA0AF0E0F90E4B00221A700E4B00225A700D4B5B78DBB20C2B07D002202E2107F001FC0A4B96
:4064C00000221A7071E070E07890FF1F5288FF1F5E85FF1FE487FF1F5488FF1FEF84FF1FB888FF1F8C84FF1F6285FF1F304B1B78DBB2012B14D90AF027FA0AF0B1F92D4BA0
:406500009B889BB2DAB22C4B1A702A4BDB889BB20220194607F0D4FB254B00221A7044E043E0264B93F86030322B04D0234B93F86030002B03D102205521FAF7DBFA204B81
:406540005B78DBB2012B04D102205521FAF7D2FA2BE02AE0164B00221A7002202E2107F0AFFB154B64221A701FE0144B93F86030002B09D1134B00221A70114B01225A70F0
:40658000114B00225A700FE00C4B93F86030642B0AD108F029FF0B4B00221A70084B01225A70094B00225A7000BF3037BD46B0BDEF84FF1F6889FF1F5E85FF1F6C87FF1FDE
:4065C0008C84FF1F6285FF1FB888FF1FB0B590B004AFAC4B1B78DBB2682B01F28A8601A252F823F089670000236800009D6800007F6F000069710000B77300002F740000F0
:406600004B750000E7750000C7760000F38200004777000001790000F9790000797D0000F77D0000997F0000C9800000F3820000F3820000F3820000F3820000F3820000CE
:40664000F3820000F3820000F3820000F3820000F3820000F3820000F3820000F3820000F3820000F3820000F3820000F3820000F3820000F3820000F3820000F3820000CA
:40668000F3820000F3820000F3820000F3820000F3820000F3820000F3820000F3820000F3820000F3820000F3820000F3820000F3820000F3820000F3820000F38200008A
:4066C000F3820000F3820000F3820000F3820000F3820000F3820000F3820000F3820000F3820000F3820000F3820000F3820000F3820000F3820000F3820000F38200004A
:40670000F3820000F3820000F3820000F3820000F3820000F3820000F3820000F3820000F3820000F3820000F3820000F3820000F3820000F3820000F3820000F382000009
:40674000F3820000F3820000F3820000F3820000F3820000F3820000F3820000F3820000F3820000F3820000F3820000F3820000F3820000B5810000F58100002B820000CF
:406780005D820000738200003E4B01221A70002387F82F300BE097F82F303B4A1344002283F8492097F82F30013387F82F3097F82F300A2BEFD9002387F82F3012E097F8A6
:4067C0002F30314A1344002283F8542097F82F302D4A1344002283F83E2097F82F30013387F82F3097F82F30082BE8D9274B1B78DBB2184603F0DAFD034687F82E3097F84F
:406800002E300A2B07D00B2B01D001F072BD1D4B0B221A7003E01B4B0B221A7000BF01F068BD194B93F86030642B1CD1184B1B78DBB2012B17D8174B1B78DBB2012B12D8A2
:40684000154B1B78DBB2012B0DD8104B5B78DBB20C2B02D00D4B1C225A700B4B002283F8602008F0C1FD074B03221A700120042107F026FA642008F0C3FA09F069FB01F055
:4068800038BD00BFEE84FF1F8886FF1FF086FF1F6887FF1F5E85FF1FB985FF1F09F010FB0346082B40F06983A54B1B78DBB2AA2B40F05F83A24B9B79DBB2C32B40F059834F
:4068C0009F4BDB79DBB23C2B40F053839D4B00221A709D4B1B78DAB29C4B1B78DBB29A4280F0BD80964BDB78DBB2092B32D8964B1B78DBB20133DAB2934B1A70924B1B789D
:40690000DBB21A468E4BDB78D9B2914B99548C4BDB78DBB23033D9B28E4B1B889DB28A4B1B78DBB29BB28C4A128892B2013292B202FB03F39AB2894B1B889BB213449CB265
:40694000854B1B889BB2DBB2009301202A46234607F002FA7A4BDB78DBB20A2B3CD1804B1B78DBB2012B0AD1774B1B78DBB2012B05D1774B5B78DBB2002B00D12CE0724BA6
:406980001B78DBB20133DAB26F4B1A706E4B1B78DBB21A466E4B002199546E4B1B889DB2694B1B78DBB29BB26B4A128892B2013292B202FB03F39AB2684B1B889BB21344A4
:4069C0009CB2654B1B889BB2DBB20093012030212A46234607F0C0F9594BDB78DBB2512B3DD1594B1B78DBB2002B38D05D4B1B78DBB2002B33D1544B1B78DBB20133DAB213
:406A0000514B1A70504B1B78DBB21A46564B1B78D9B24F4B9954544B1B78D9B24D4B1B889DB2494B1B78DBB29BB24B4A128892B2013292B202FB03F39AB2484B1B889BB2DB
:406A400013449CB2444B1B889BB2DBB2009301202A46234607F080F9424B01221A70384BDB78DBB20B2B40F0C780374B1B78DBB2002B40F085803A4B1B78DBB2013B032B0D
:406A800000F2BA8001A252F823F000BF9D6A0000AD6A0000FB6A00001D6B00000120052107F00EF9314B04221A7048E0304B93F84830012B07D12D4B04221A700120052156
:406AC00007F0FEF83BE0204B00221A701F4B07221A70224B04221A801E4B03221A801E4B01221A8001200A2107F0EAF81F4B0D221A70154B00221A7021E01C4B00221A7077
:406B00001C4B01225A701C4B00221A7001202E2107F0D6F8194B00229A7010E0134B00221A70144B01225A70134B00221A7001202E2107F0C5F8114B00229A7000BF5BE033
:406B40007090FF1F8486FF1F4D87FF1F6385FF1F3488FF1F0885FF1F5C85FF1FB688FF1F0385FF1F8984FF1FE984FF1FEE84FF1F8886FF1FF086FF1FEF86FF1FB888FF1F5A
:406B8000B74B1B889DB2B74B1B78DBB29BB2B64A128892B2013292B202FB03F39AB2B34B1B889BB213449CB2AF4B1B889BB2DBB20093012020212A46234607F0CDF8A94B56
:406BC0001B78DBB21A46AA4B9B5CDAB2A94B1B78DBB29A4202D1A84B00221A70A14B1B78DBB21A46A24B002199549E4B1B78DBB2013BDAB29B4B1A70A04BDB78DBB20C2B91
:406C000040F0B7819E4B1B78DBB2013B032B00F2B08101A252F823F0296C0000D36D0000A16E0000196F0000002387F82F300CE097F82F3007F130021344002203F82C2C19
:406C400097F82F30013387F82F3097F82F30072BEED9844B1B78DBB2002B00F0B980814B1B78DBB21A46824B9B5CDBB22E2B00F0AF80012387F82F3028E097F82F307C4A17
:406C8000D35CDBB22E2B0FD097F82F30013B97F82F2077498A5CD2B23032D2B207F130010B4403F82C2C0CE097F82F30013B97F82F206F498A5CD2B207F130010B4403F874
:406CC0002C2C97F82F30013387F82F30654B1B78DBB297F82F209A42CFD93B1D18460AF0F3F8C7E90801674BDB7E022B09D1D7E908014FF00002644B0AF0D2F80346002BB3
:406D00001AD1604BDB7E012B62D1D7E908014FF000025E4B0AF0BAF80346002B00D128E1D7E908014FF000024FF000030AF0C2F80346002B00D11CE14A4B1B7887F82F3010
:406D400015E097F82F30474A1278D2B2114697F82F208A1A013246498A5CD1B2494A13440A46DA7697F82F30013B87F82F3097F82F30002BE5D1464B05221A70414B93F8D3
:406D80004830002B1CD1434B93F85C30DBB2012B0CD0414B1B889BB2012B07D03E4B1B889BB20120194606F08BFF11E0384B0C221A70384B93F85930DAB2324B5A7607E08E
:406DC000334B06221A700120072106F079FFD0E0CFE0244B1B7887F82F3016E097F82F30204A1278D2B2114697F82F208A1A01321F498A5CD1B2234A13440A4683F8332052
:406E000097F82F30013B87F82F3097F82F30002BE4D11C4B93F84830012B07D11C4B04221A700120052106F04BFFA2E00D4B00221A701A4B07221A700C4B04221A80084B68
:406E400003221A80084B01221A8001200A2106F037FF0F4B0D221A70024B00221A7088E00885FF1F4D87FF1F5C85FF1FB688FF1F3488FF1FE984FF1F8984FF1F7090FF1FB1
:406E80000385FF1F8886FF1F0000894000208C40EE84FF1FF086FF1F0C88FF1F6385FF1FC24B1B7887F82F3018E097F82F30BF4A1278D2B2114697F82F208A1A0132BC49E3
:406EC0008A5CD2B23032D1B2BA4A13440A4683F8492097F82F30013B87F82F3097F82F30002BE2D1B44B02221A700120252106F0E7FEAE4B00221A70B04B04221A70B04BA6
:406F00000A221A70AF4B02221A80AF4B03221A80AE4B01221A802CE0A44B1B7887F82F3018E097F82F30A14A1278D2B2114697F82F208A1A01329E498A5CD2B23032D1B2E7
:406F40009C4A13440A4683F8542097F82F30013B87F82F3097F82F30002BE2D1964B66221A700120392106F0ABFE994B10225A7000BF08F0EDFF01F0BCB901F0BAB908F06F
:406F80009FFF0346082B40F0ED80924B1B78DBB2AA2B40F0E3808F4B9B79DBB2C32B40F0DD808C4BDB79DBB23C2B40F0D780894BDB78DBB20E2B61D00E2B02DC0D2B07D0D5
:406FC000CCE0452B00F0B4807E2B00F0B980C5E0002387F82F300BE097F82F30754A1344002283F8332097F82F30013387F82F3097F82F300A2BEFD96E4B93F86030312BDF
:407000000BD16D4B04221A700120052106F058FE684B002283F848202FE0664B93F86030302B07D16A4B1C225A7001204121F9F761FD22E05F4B93F86030322B0ED05D4B7B
:4070400093F86030002B09D05A4B93F86030012B04D0584B93F86030642B0ED1564B04221A700120052106F02BFE524B002283F84820574B1C225A7070E06FE0002387F8C1
:407080002F300BE097F82F304A4A1344002283F8332097F82F30013387F82F3097F82F300A2BEFD9434B93F86030312B0BD1424B10221A700120122106F002FE3D4B0122B3
:4070C00083F8482033E03B4B93F86030302B07D13F4B1C225A7001204121F9F70BFD26E0344B93F86030322B0ED0324B93F86030002B09D02F4B93F86030012B04D02D4B35
:4071000093F86030642B12D12B4B64221A700120552106F0D5FD304B01221A702F4809F0E1F909F0A9FA2A4B1C225A7016E015E0214B11221A700120832106F0C1FD0DE0D8
:407140001D4B00221A70264B00229A7001202E2106F0B6FD234B00221A7000BF08F0F8FE01F0C7B801F0C5B808F0AAFE0346082B40F01F81174B1B78DBB2AA2B40F0158197
:40718000144B9B79DBB2C32B40F00F81114BDB79DBB23C2B40F009810E4BDB78DBB2102B66D0102B20DC0F2B24D0FEE04D87FF1F3488FF1F8886FF1FEE84FF1F0385FF1FA8
:4071C0006385FF1FB688FF1F0885FF1F5C85FF1FF086FF1F7090FF1F8486FF1FB5A10000B888FF1FEF86FF1F3B2B00F0D680432B7CD0DAE0002387F82F300AE097F82F3069
:40720000BD4A13440022DA7697F82F30013387F82F3097F82F30072BF0D9B84B02221A70B74B00221A70B74B01221A70B64B2E221A70B64B06221A70AF4B0222DA76B44B8C
