:400000000080002011000000B94C0100B94C010080B500AF024A034B1B68136014F07AFEBC760040FA46004010B5054C237833B9044B13B10448AFF300800123237010BD7F
:400040007883FF1F00000000D8990100084B10B51BB108480849AFF300800848036803B910BD074B002BFBD0BDE81040184700BF00000000D89901007C83FF1F0881FF1F79
:400080000000000080B582B000AF62B6A54B08221A60A44B04221A6015F014FE15F0C0F915F084FB16F0CAF916F044FB9D4B01221A609C4B02221A6017F02CF89A4B00224C
:4000C00083F85920984B002283F85A20964B002283F85B20954B002283F85920934B002283F85A20914B002283F85B200023BB7116E00023FB710DE0BA79F9798A481346A9
:400100005B001344DB000B44034400229A70FB790133FB71FB79172BEED9BB790133BB71BB79022BE5D90023BB7116E00023FB710DE0BA79F9797D4813465B001344DB001B
:400140000B44034400229A70FB790133FB71FB79172BEED9BB790133BB71BB79022BE5D9052015F08DF80020202114F0F9FC704B1B78002B14D06E4B1B78202B10D8002371
:40018000FB7108E0FB79FA796949895C694AD154FB790133FB71664B1B78FA799A42F1D920200F2114F0DCFC614B1B78002B14D05F4B1B780F2B10D80023FB7108E0FB7940
:4001C000FA795B49895C5C4AD154FB790133FB71574B1B78FA799A42F1D94020202114F0BFFC534B1B78002B14D0514B1B78202B10D80023FB7108E0FB79FA794C49895CFC
:400200004E4AD154FB790133FB71494B1B78FA799A42F1D92F200C2114F0A2FC444B1B78002B14D0424B1B780C2B10D80023FB7108E0FB79FA793E49895C414AD154FB7931
:400240000133FB713A4B1B78FA799A42F1D98020202114F085FC364B1B78002B14D0344B1B78202B10D80023FB7108E0FB79FA792F49895C334AD154FB790133FB712C4BF7
:400280001B78FA799A42F1D9A020202114F068FC274B1B78002B14D0254B1B78202B10D80023FB7108E0FB79FA792149895C264AD154FB790133FB711D4B1B78FA799A423F
:4002C000F1D940F2C710022114F04AFC184B1B78012B07D1164B1A781C4B1A70144B5A781A4B5A704FF43D70022114F039FC104B1B78012B07D10E4B1A78154B1A700C4B16
:400300005A78134B5A706020092114F029FC084B1B78092B31D8064B1B78002B2DD00023FB7122E000E100E05888FF1F8C84FF1F6885FF1F1088FF1FF484FF1F0C85FF1F3D
:40034000D087FF1FC088FF1F3085FF1FEC86FF1FEC84FF1FFB790133FA790132A749895CA74AD154FB790133FB71FB79072BF1D9A24B1A78A24B1A700CE00123FB7106E09C
:40038000FB799F49FA79CA54FB790133FB71FB79082BF5D940F2A620042114F0E1FB974B1B78042B00F29280944B1B78002B00F08D80924B1A78934B83F85C200023FB71B5
:4003C0000CE0FB79FA7901328C49895C8D4A13440A4683F85920FB790133FB71874B1B78FA799A42EDD300237B71864B93F85930DBB2012B0BD0834B93F85A30DBB2012B1F
:4004000005D0804B93F85B30DBB2012B01D101237B717C4B93F85930DBB2022B0BD0794B93F85A30DBB2022B05D0764B93F85B30DBB2022B03D17B7943F002037B71714B5A
:4004400093F85930DBB2032B0BD06E4B93F85A30DBB2032B05D06B4B93F85B30DBB2032B03D17B7943F004037B717B79013B062B2CD801A252F823F0950400009D04000060
:40048000B5040000A5040000AD040000BD040000C50400005C4B01221A8017E05A4B01221A8013E0584B01221A800FE0564B7C221A800BE0544B7D221A8007E0524B7F22DF
:4004C0001A8003E0504B7E221A8000BF40F2AA20042114F045FB494B1B78042B00F29E80464B1B78002B00F09980444B1A78474B83F85C200023FB710CE0FB79FA79013289
:400500003E49895C414A13440A4683F85920FB790133FB71394B1B78FA799A42EDD300237B71384B93F85930DBB2012B0BD0354B93F85A30DBB2012B05D0324B93F85B30FF
:40054000DBB2012B01D101237B712E4B93F85930DBB2022B0BD02B4B93F85A30DBB2022B05D0284B93F85B30DBB2022B03D17B7943F002037B71234B93F85930DBB2032B38
:400580000BD0204B93F85A30DBB2032B05D01D4B93F85B30DBB2032B03D17B7943F004037B717B79013B062B38D801A252F823F0CD050000D5050000ED050000DD05000038
:4005C000E5050000F505000015060000104B01221A8023E00E4B01221A801FE00C4B01221A801BE00A4B7C221A8017E0084B7D221A8013E0064B7F221A800FE06885FF1F34
:40060000FC87FF1F5888FF1F6687FF1F8C84FF1F2E85FF1FAD4B7E221A8000BF40F2F620042114F09DFAAA4B1B78042B00F29280A74B1B78002B00F08D80A54B1A78A54B3E
:4006400083F85C200023FB710CE0FB79FA7901329F49895C9F4A13440A4683F85920FB790133FB719A4B1B78FA799A42EDD300237B71994B93F85930DBB2012B0BD0964B86
:4006800093F85A30DBB2012B05D0934B93F85B30DBB2012B01D101237B718F4B93F85930DBB2022B0BD08C4B93F85A30DBB2022B05D0894B93F85B30DBB2022B03D17B799E
:4006C00043F002037B71844B93F85930DBB2032B0BD0814B93F85A30DBB2032B05D07E4B93F85B30DBB2032B03D17B7943F004037B717B79013B062B2CD801A252F823F0FF
:400700001D070000250700003D0700002D07000035070000450700004D0700006F4B01221A8017E06D4B01221A8013E06B4B01221A800FE0694B7C221A800BE0674B7D22B5
:400740001A8007E0654B7F221A8003E0634B7E221A8000BF40F2FA20042114F001FA5C4B1B78042B00F29280594B1B78002B00F08D80574B1A785A4B83F85C200023FB71E8
:400780000CE0FB79FA7901325149895C544A13440A4683F85920FB790133FB714C4B1B78FA799A42EDD300237B714B4B93F85930DBB2012B0BD0484B93F85A30DBB2012B80
:4007C00005D0454B93F85B30DBB2012B01D101237B71414B93F85930DBB2022B0BD03E4B93F85A30DBB2022B05D03B4B93F85B30DBB2022B03D17B7943F002037B71364BBE
:4008000093F85930DBB2032B0BD0334B93F85A30DBB2032B05D0304B93F85B30DBB2032B03D17B7943F004037B717B79013B062B2CD801A252F823F0550800005D0800008A
:4008400075080000650800006D0800007D08000085080000234B01221A8017E0214B01221A8013E01F4B01221A800FE01D4B7C221A800BE01B4B7D221A8007E0194B7F229D
:400880001A8003E0174B7E221A8000BF4FF4DE70022114F065F90E4B1B78012B06D10C4B5B7803F00F03DAB20F4B1A7040F2AE20112114F055F9064B1B78112B24D8044BCD
:4008C0001B78002B20D00023FB7118E02E85FF1F6885FF1FF086FF1F5888FF1F0C88FF1FC883FF1F4289FF1FEE86FF1FFB79FA797349895C734AD154FB790133FB71704B86
:400900001B78FA799A42F1D94FF43070112114F027F96B4B1B78112B14D8694B1B78002B10D00023FB7108E0FB79FA796449895C654AD154FB790133FB71614B1B78FA7985
:400940009A42F1D940F2D120112114F009F95C4B1B78112B14D85A4B1B78002B10D00023FB7108E0FB79FA795549895C574AD154FB790133FB71524B1B78FA799A42F1D9CD
:4009800040F25A20062114F0EBF84D4B1B78032B07D04B4B1B78012B03D0494B1B78052B14D1474B5B7803F00F03DAB2484B5A70434B9B7803F00F03DAB2454B9A70404B3F
:4009C000DB7803F00F03DAB2414BDA704FF41870022114F0C5F83A4B1B78012B04D1384B5A783C4B1A7002E03A4BFF221A7040F26220022114F0B4F8314B1B78012B04D166
:400A00002F4B5A78334B1A7002E0324BFF221A704FF44970022114F0A3F8294B1B78012B04D1274B5A782C4B1A7002E02A4BFF221A7040F22630022114F092F8204B1B7814
:400A4000012B04D11E4B5A78244B1A7002E0234BFF221A7040F29A20022114F081F8184B1B78012B06D1164B5B7803F00F03DAB21B4B5A7040F26520022114F071F8104B2A
:400A80001B78012B06D10E4B5B7803F00F03DAB2144B5A70144B642283F86020134B642283F86020124B642283F86020114B642283F86020052014F0E3FB0837BD4680BDBA
:400AC0006885FF1F5487FF1FA885FF1FE887FF1F0485FF1F5888FF1FF086FF1FC883FF1FE487FF1F5488FF1FE088FF1F6C87FF1F8886FF1F2884FF1F80B5C4B000AF3B1DB8
:400B000018600A46BB1C1A8007F108031A4A19464FF48073084611461A4616F033FD002387F80F310023A7F80C3116E0B7F80C313A1D126813441A7897F80F31534087F8E7
:400B40000B3197F80B3107F10802D35C87F80F31B7F80C310133A7F80C31B7F80C21BB1C1B88013B9A42E1DB97F80F31184607F58877BD4680BD00BFE099010080B582B050
:400B800000AF03460A46FB711346BB80FB79012B13D1BB880120194613F0D0FA124B64221A70124B64221A70114B01221A70114815F0C6FF16F08EF812E0BB880220194691
:400BC00013F0BCFA0C4B64221A700C4B64221A700B4B01221A700B4816F0D2F916F05EF90837BD4680BD00BF6887FF1FEE84FF1F8486FF1F250601005E85FF1FB985FF1F5E
:400C0000EF84FF1F9906010080B584B000AF0023FB73CAE00023FB7300BF0FF051FE0346002BFAD0322014F02BFB634B1B78DAB2614B93F85C30DBB21046194610F0FEFF09
:400C4000322014F01DFB5D4B1B78DAB25B4B93F85C30DBB21046194610F0F0FF322014F00FFB574B1B78DAB2554B93F85C30DBB21046194610F0E2FF322014F001FB514B68
:400C80001B78DAB24F4B93F85C30DBB21046194610F0D4FF322014F0F3FA01233B70464B1B78DBB27B703B464FF41870194613F0F5FE0346002B04D001203C2113F03EFAFF
:400CC00003E00120552113F039FA01233B703B4B1B78DBB27B703B4640F26220194613F0DDFE0346002B04D002203C2113F026FA03E00220552113F021FA01233B70304BA5
:400D00001B78DBB27B703B464FF44970194613F0C5FE0346002B04D001203C2113F00EFA03E00120552113F009FA01233B70254B1B78DBB27B703B4640F22630194613F000
:400D4000ADFE0346002B04D002203C2113F0F6F903E00220552113F0F1F91B4B00221A701A4B00221A701A4B00221A70194B00221A7002202E2113F0E1F901202E2113F0A2
:400D8000DDF9154B00221A70144B00221A70144B00221A70124B00225A70114B00229A700F4B0022DA700223FB73FB7B022B7FF431AF1037BD4680BD5888FF1F8C84FF1F68
:400DC000F086FF1FC883FF1F6887FF1F5E85FF1FEE84FF1FB985FF1FEF86FF1F6285FF1FB888FF1F90B5ADF2FC5D00AF14F0F8FD0346052B46F28E8114F0F2FD0346A7F886
:400E0000EE3540F6B83014F05DFA14F0E9FD0346A7F8EC35B7F8EE25B7F8EC359A4246F0798114F0DDFD0346A7F8F6350023A7F8F4350DE0B7F8F44514F086FD03461A46A4
:400E400007F110031A55B7F8F4350133A7F8F43514F0C6FD0346002BECD107F110031B78BC2B46F04F8107F110035B78BB2B46F0498107F110039B78B82B46F0438107F1EA
:400E80001003DA78BE4B1B78DBB29A4218D007F11003DA78BB4B1B78DBB29A4210D007F11003DA78B84B1B78DBB29A4208D007F11003DA78B54B1B78DBB29A4246F022813B
:400EC00007F11002B7F8F63510461946FFF714FE03461946B7F8F635013B07F11002D35C994246F00F81AA4B00221A70A94BB8221A70A84BAD225A70A64BAF229A7007F170
:400F00001003DA78A34BDA70A34B00221A7007F110031B79A03B162B06F2B38001A252F823F000BF99470000810F0000532B0000CB2B0000712F000083700000837000006B
:400F4000FF6C00007F100000571700001920000043500000D9350000FD3B0000FB430000CD400000E94B00006F4D0000D3520000B756000077580000055D0000BB59000045
:400F800007F11003DA787E4B1B78DBB29A4216D1804BD1221A717A4B5B78DAB27D4B5A717C480721FFF7A8FD03461A46794B9A71794B01221A700723A7F8F6355DE007F18F
:400FC0001003DA786F4B1B78DBB29A4216D1714BD1221A716B4B5B78DAB26E4B5A716D480721FFF789FD03461A466A4B9A716A4B01221A700723A7F8F6353EE007F11003DB
:40100000DA78614B1B78DBB29A4216D1614BD1221A715D4B5B78DAB25E4B5A715D480721FFF76AFD03461A465A4B9A715A4B01221A700723A7F8F6351FE007F11003DA7805
:40104000524B1B78DBB29A4217D1524BD1221A714E4B5B78DAB24F4B5A714E480721FFF74BFD03461A464B4B9A714B4B01221A700723A7F8F63506F004B806F002B807F1A0
:401080001003DA783E4B1B78DBB29A4240F0D980404BD8221A71414B9A7E3E4B5A713F4BDA7E3C4B9A710123A7F8F2350EE0B7F8F2350633B7F8F22538490A44D17E354AF7
:4010C000D154B7F8F2350133A7F8F235B7F8F235072BECD92F4B54229A730023A7F8F2351DE0B7F8F23503F10F012C4B9B7E5A1EB7F8F23503F10C00214C13465B0013441B
:40110000DB00034423449B78DBB203F00F03DAB2204B5A54B7F8F2350133A7F8F235B7F8F2350B2BDDD90023A7F8F2351BE0B7F8F23503F11B01194B9B7E5A1EB7F8F205E5
:401140000F4C13465B001344DB00034423449B78DBB203F00F03DAB20E4B5A54B7F8F2350133A7F8F235B7F8F2350B2BDFD9094B502283F827200023A7F8F2352CE000BF78
:401180005888FF1F8C84FF1FF086FF1FC883FF1F5087FF1FBC85FF1F5285FF1FE088FF1FB7F8F23503F12801BA4B9B7E5A1EB7F8F205B94C13469B0013442344034448338F
:4011C0009B78DBB203F00F03DAB2B44B5A54B7F8F2350133A7F8F235B7F8F235042BDFD9AE4B482283F82D20AD4B1A78AB4B83F82E20AB4B5A78A94B83F82F20A74B462230
:4012000083F83020A74B1A78A44B83F83120A54B5A78A24B83F83220A24B9A789F4B83F833209E483521FFF767FC03461A469B4B83F834209C4B01221A703523A7F8F635C8
:4012400087E207F11003DA78984B1B78DBB29A4240F0C880914BD8221A71954B9A7E8F4B5A71934BDA7E8D4B9A710123A7F8F2350EE0B7F8F2350633B7F8F2258C490A446A
:40128000D17E864AD154B7F8F2350133A7F8F235B7F8F235072BECD9804B54229A730023A7F8F2351DE0B7F8F23503F10F01804B9B7E5A1EB7F8F23503F10C007B4C1346ED
:4012C0005B001344DB00034423449B78DBB203F00F03DAB2714B5A54B7F8F2350133A7F8F235B7F8F2350B2BDDD90023A7F8F2351BE0B7F8F23503F11B016D4B9B7E5A1E73
:40130000B7F8F205694C13465B001344DB00034423449B78DBB203F00F03DAB25F4B5A54B7F8F2350133A7F8F235B7F8F2350B2BDFD95A4B502283F827200023A7F8F235DF
:401340001BE0B7F8F23503F12801594B9B7E5A1EB7F8F205554C13469B0013442344034448339B78DBB203F00F03DAB24B4B5A54B7F8F2350133A7F8F235B7F8F235042B45
:40138000DFD9464B482283F82D20454B1A78434B83F82E20424B5A78404B83F82F203F4B462283F830203F4B1A783C4B83F831203C4B5A78394B83F832203A4B9A78374B96
:4013C00083F8332035483521FFF796FB03461A46324B83F83420344B01221A703523A7F8F635B6E107F11003DA78324B1B78DBB29A4240F0DC80294BD8221A712E4B9A7EFF
:40140000264B5A712C4BDA7E244B9A710123A7F8F2350EE0B7F8F2350633B7F8F22526490A44D17E1D4AD154B7F8F2350133A7F8F235B7F8F235072BECD9184B54229A735F
:401440000023A7F8F2351DE0B7F8F23503F10F01194B9B7E5A1EB7F8F23503F10C00154C13465B001344DB00034423449B78DBB203F00F03DAB2094B5A54B7F8F2350133AF
:40148000A7F8F235B7F8F2350B2BDDD90023A7F8F2352FE0E088FF1F5888FF1FBC85FF1FF084FF1F0888FF1F5285FF1F8C84FF1F6C87FF1FF086FF1F8886FF1FB7F8F235BF
:4014C00003F11B01BD4B9B7E5A1EB7F8F205BC4C13465B001344DB00034423449B78DBB203F00F03DAB2B74B5A54B7F8F2350133A7F8F235B7F8F2350B2BDFD9B14B50221E
:4015000083F827200023A7F8F2351BE0B7F8F23503F12801A94B9B7E5A1EB7F8F205A84C13469B0013442344034448339B78DBB203F00F03DAB2A34B5A54B7F8F2350133A8
:40154000A7F8F235B7F8F235042BDFD99D4B482283F82D209C4B1A789A4B83F82E209A4B5A78984B83F82F20964B462283F83020964B1A78934B83F83120944B5A78914B85
:4015800083F83220914B9A788E4B83F833208D483521FFF7B1FA03461A468A4B83F834208B4B01221A703523A7F8F635D1E007F11003DA78874B1B78DBB29A4240F0C980B6
:4015C000804BD8221A71844B9A7E7E4B5A71824BDA7E7C4B9A710123A7F8F2350EE0B7F8F2350633B7F8F2257B490A44D17E754AD154B7F8F2350133A7F8F235B7F8F23591
:40160000072BECD96F4B54229A730023A7F8F2351DE0B7F8F23503F10F016F4B9B7E5A1EB7F8F23503F10C006A4C13465B001344DB00034423449B78DBB203F00F03DAB21A
:40164000604B5A54B7F8F2350133A7F8F235B7F8F2350B2BDDD90023A7F8F2351BE0B7F8F23503F11B015C4B9B7E5A1EB7F8F205584C13465B001344DB00034423449B788C
:40168000DBB203F00F03DAB24E4B5A54B7F8F2350133A7F8F235B7F8F2350B2BDFD9494B502283F827200023A7F8F2351BE0B7F8F23503F12801484B9B7E5A1EB7F8F205C8
:4016C000444C13469B0013442344034448339B78DBB203F00F03DAB23A4B5A54B7F8F2350133A7F8F235B7F8F235042BDFD9354B482283F82D20344B1A78324B83F82E20EC
:40170000314B5A782F4B83F82F202E4B462283F830202E4B1A782B4B83F831202B4B5A78284B83F83220294B9A78264B83F8332024483521FFF7E0F903461A46214B83F8B0
:401740003420234B01221A703523A7F8F63505F098BC05F096BC07F11003DA781F4B1B78DBB29A4240F01681164BD9221A711C4B9A7E144B5A711A4BDA7E124B9A710123E5
:40178000A7F8F2350EE0B7F8F2350633B7F8F22513490A44D17E0B4AD154B7F8F2350133A7F8F235B7F8F235072BECD9054B54229A730023A7F8F23532E000BF8886FF1FD7
:4017C000F086FF1FBC85FF1FF084FF1F0888FF1F5285FF1FC883FF1F2884FF1F5888FF1FE088FF1FB7F8F23503F10F01A94B9B7E5A1EB7F8F23503F10C00A74C13465B002E
:401800001344DB00034423449B78DBB203F00F03DAB2A24B5A54B7F8F2350133A7F8F235B7F8F2350B2BDDD90023A7F8F2351BE0B7F8F23503F11B01964B9B7E5A1EB7F87F
:40184000F205954C13465B001344DB00034423449B78DBB203F00F03DAB2904B5A54B7F8F2350133A7F8F235B7F8F2350B2BDFD98A4B502283F827200023A7F8F2351BE0C1
:40188000B7F8F23503F12801824B9B7E5A1EB7F8F205814C13469B0013442344034448339B78DBB203F00F03DAB27C4B5A54B7F8F2350133A7F8F235B7F8F235042BDFD9BD
:4018C000764B482283F82D20754B1A78734B83F82E20734B5A78714B83F82F206F4B462283F830206F4B1A786C4B83F831206D4B5A786A4B83F832206A4B9A78674B83F84A
:401900003320664B492283F834200023A7F8F2350FE0B7F8F2353533B7F8F2255D490A4492F823105D4AD154B7F8F2350133A7F8F235B7F8F235072BEBD9584B4B2283F8E9
:401940003D200023A7F8F23510E0B7F8F2353E33B7F8F22501324F490A4492F833104F4AD154B7F8F2350133A7F8F235B7F8F235092BEAD949484921FFF7BEF803461A4693
:40198000464B83F84820484B01221A704923A7F8F6353FE307F11003DA78444B1B78DBB29A4240F011813D4BD9221A71404B9A7E3A4B5A713E4BDA7E384B9A710123A7F83E
:4019C000F2350EE0B7F8F2350633B7F8F22538490A44D17E314AD154B7F8F2350133A7F8F235B7F8F235072BECD92C4B54229A730023A7F8F2351DE0B7F8F23503F10F01E8
:401A00002B4B9B7E5A1EB7F8F23503F10C00274C13465B001344DB00034423449B78DBB203F00F03DAB21D4B5A54B7F8F2350133A7F8F235B7F8F2350B2BDDD90023A7F827
:401A4000F2351BE0B7F8F23503F11B01184B9B7E5A1EB7F8F205154C13465B001344DB00034423449B78DBB203F00F03DAB20B4B5A54B7F8F2350133A7F8F235B7F8F235F4
:401A80000B2BDFD9054B502283F827200023A7F8F2352BE0E088FF1F5888FF1FBC85FF1FF084FF1F0888FF1F5285FF1F8C84FF1F6C87FF1FB7F8F23503F12801B54B9B7E5D
:401AC0005A1EB7F8F205B44C13469B0013442344034448339B78DBB203F00F03DAB2AF4B5A54B7F8F2350133A7F8F235B7F8F235042BDFD9A94B482283F82D20A84B1A7843
:401B0000A64B83F82E20A64B5A78A44B83F82F20A24B462283F83020A24B1A789F4B83F83120A04B5A789D4B83F832209D4B9A789A4B83F83320994B492283F834200023BA
:401B4000A7F8F2350FE0B7F8F2353533B7F8F22590490A4492F82310904AD154B7F8F2350133A7F8F235B7F8F235072BEBD98B4B4B2283F83D200023A7F8F23510E0B7F88A
:401B8000F2353E33B7F8F225013282490A4492F83310824AD154B7F8F2350133A7F8F235B7F8F235092BEAD97C484921FEF7A4FF03461A46794B83F848207B4B01221A7097
:401BC0004923A7F8F63525E207F11003DA78774B1B78DBB29A4240F01281704BD9221A71734B9A7E6D4B5A71714BDA7E6B4B9A710123A7F8F2350EE0B7F8F2350633B7F8C5
:401C0000F2256B490A44D17E644AD154B7F8F2350133A7F8F235B7F8F235072BECD95F4B54229A730023A7F8F2351DE0B7F8F23503F10F015E4B9B7E5A1EB7F8F23503F1DB
:401C40000C005A4C13465B001344DB00034423449B78DBB203F00F03DAB2504B5A54B7F8F2350133A7F8F235B7F8F2350B2BDDD90023A7F8F2351BE0B7F8F23503F11B0148
:401C80004B4B9B7E5A1EB7F8F205484C13465B001344DB00034423449B78DBB203F00F03DAB23E4B5A54B7F8F2350133A7F8F235B7F8F2350B2BDFD9384B502283F827207C
:401CC0000023A7F8F2351BE0B7F8F23503F12801374B9B7E5A1EB7F8F205344C13469B0013442344034448339B78DBB203F00F03DAB22A4B5A54B7F8F2350133A7F8F2353C
:401D0000B7F8F235042BDFD9244B482283F82D20234B1A78214B83F82E20214B5A781F4B83F82F201D4B462283F830201D4B1A781A4B83F831201B4B5A78184B83F8322070
:401D4000184B9A78154B83F83320144B492283F834200023A7F8F2350FE0B7F8F2353533B7F8F22512490A4492F823100B4AD154B7F8F2350133A7F8F235B7F8F235072B93
:401D8000EBD9064B4B2283F83D200023A7F8F23521E000BF6C87FF1F8C84FF1FBC85FF1FF084FF1F0888FF1F5285FF1FF086FF1F8886FF1FB7F8F2353E33B7F8F22501324D
:401DC000BF490A4492F83310BE4AD154B7F8F2350133A7F8F235B7F8F235092BEAD9B9484921FEF789FE03461A46B64B83F84820B54B01221A704923A7F8F6350AE107F1BC
:401E00001003DA78B14B1B78DBB29A4240F00281AC4BD9221A71AE4B9A7EAA4B5A71AC4BDA7EA84B9A710123A7F8F2350EE0B7F8F2350633B7F8F225A5490A44D17EA14AD4
:401E4000D154B7F8F2350133A7F8F235B7F8F235072BECD99B4B54229A730023A7F8F2351DE0B7F8F23503F10F01994B9B7E5A1EB7F8F23503F10C00944C13465B00134441
:401E8000DB00034423449B78DBB203F00F03DAB28C4B5A54B7F8F2350133A7F8F235B7F8F2350B2BDDD90023A7F8F2351BE0B7F8F23503F11B01864B9B7E5A1EB7F8F2057F
:401EC000824C13465B001344DB00034423449B78DBB203F00F03DAB27A4B5A54B7F8F2350133A7F8F235B7F8F2350B2BDFD9754B502283F827200023A7F8F2351BE0B7F8C1
:401F0000F23503F12801724B9B7E5A1EB7F8F2056E4C13469B0013442344034448339B78DBB203F00F03DAB2664B5A54B7F8F2350133A7F8F235B7F8F235042BDFD9614B72
:401F4000482283F82D20634B1A785E4B83F82E20604B5A785B4B83F82F205A4B462283F830205D4B1A78574B83F831205A4B5A78544B83F83220584B9A78524B83F833200D
:401F8000504B492283F834200023A7F8F2350FE0B7F8F2353533B7F8F2254D490A4492F82310484AD154B7F8F2350133A7F8F235B7F8F235072BEBD9424B4B2283F83D20AA
:401FC0000023A7F8F23510E0B7F8F2353E33B7F8F22501323E490A4492F83310394AD154B7F8F2350133A7F8F235B7F8F235092BEAD934484921FEF77FFD03461A46314B65
:4020000083F84820304B01221A704923A7F8F63505F037B805F035B807F11003DA782F4B1B78DBB29A4240F05F81264BDA221A712B4B5A7E234B5A71224B44229A71294BE5
:402040005B78DBB2062B1AD10023A7F8F23511E0B7F8F2350733B7F8F22521490A44D27902F00F02D1B2174AD154B7F8F2350133A7F8F235B7F8F235062BE9D919E001236F
:40208000A7F8F23511E0B7F8F2350633B7F8F22513490A44D27902F00F02D1B2094AD154B7F8F2350133A7F8F235B7F8F235072BE9D9044B56229A730023A7F8F23525E045
:4020C0008886FF1FBC85FF1F5285FF1FC883FF1F2884FF1FF084FF1F0888FF1F5888FF1FE088FF1F0485FF1FB7F8F2350F33B7F8F225C9490A44127C02F00F02D1B2C74A5F
:40210000D154B7F8F2350133A7F8F235B7F8F235062BE9D9C14B54229A750023A7F8F2351DE0B7F8F23503F11701BB4B5B7E5A1EB7F8F23503F10C00B94C13465B0013444B
:40214000DB00034423449B78DBB203F00F03DAB2B24B5A54B7F8F2350133A7F8F235B7F8F2350B2BDDD90023A7F8F2351BE0B7F8F23503F12301A84B5B7E5A1EB7F8F205AC
:40218000A74C13465B001344DB00034423449B78DBB203F00F03DAB2A04B5A54B7F8F2350133A7F8F235B7F8F2350B2BDFD99B4B502283F82F200023A7F8F2351BE0B7F885
:4021C000F23503F13001944B5B7E5A1EB7F8F205934C13469B0013442344034448339B78DBB203F00F03DAB28C4B5A54B7F8F2350133A7F8F235B7F8F235052BDFD9874B54
:40220000482283F83520874B1A78844B83F83620844B5A78814B83F83720804B462283F83820814B1A787D4B83F839207E4B5A787A4B83F83A207C4B9A78784B83F83B207A
:40224000764B502283F83C200123A7F8F2350FE0B7F8F2353C33B7F8F2256F490A4492F83E106E4AD154B7F8F2350133A7F8F235B7F8F235082BEBD9684B492283F844201B
:40228000654B93F84720654B83F84520634B4B2283F846200023A7F8F23510E0B7F8F2354733B7F8F22501325B490A4492F833105A4AD154B7F8F2350133A7F8F235B7F8C7
:4022C000F235092BEAD955485221FEF715FC03461A46524B83F85120544B01221A705223A7F8F63500F033BC07F11003DA78504B1B78DBB29A4240F05D81484BDA221A71F2
:402300004C4B5A7E454B5A71444B44229A714A4B5B78DBB2062B1AD10023A7F8F23511E0B7F8F2350733B7F8F22542490A44D27902F00F02D1B2394AD154B7F8F2350133B6
:40234000A7F8F235B7F8F235062BE9D919E00123A7F8F23511E0B7F8F2350633B7F8F22534490A44D27902F00F02D1B22B4AD154B7F8F2350133A7F8F235B7F8F235072B17
:40238000E9D9264B56229A730023A7F8F23511E0B7F8F2350F33B7F8F22526490A44127C02F00F02D1B21D4AD154B7F8F2350133A7F8F235B7F8F235062BE9D9174B5422DF
:4023C0009A750023A7F8F2351DE0B7F8F23503F11701184B5B7E5A1EB7F8F23503F10C00134C13465B001344DB00034423449B78DBB203F00F03DAB2084B5A54B7F8F23581
:402400000133A7F8F235B7F8F2350B2BDDD90023A7F8F2352EE000BFE088FF1FBC85FF1F5888FF1FF084FF1F0888FF1F5285FF1F8C84FF1F6C87FF1F0485FF1FB7F8F23556
:4024400003F12301BB4B5B7E5A1EB7F8F205BA4C13465B001344DB00034423449B78DBB203F00F03DAB2B54B5A54B7F8F2350133A7F8F235B7F8F2350B2BDFD9AF4B5022CE
:4024800083F82F200023A7F8F2351BE0B7F8F23503F13001A74B5B7E5A1EB7F8F205A64C13469B0013442344034448339B78DBB203F00F03DAB2A14B5A54B7F8F23501334F
:4024C000A7F8F235B7F8F235052BDFD99B4B482283F835209A4B1A78984B83F83620984B5A78964B83F83720944B462283F83820944B1A78914B83F83920924B5A788F4BE1
:4025000083F83A208F4B9A788C4B83F83B208B4B502283F83C200123A7F8F2350FE0B7F8F2353C33B7F8F22582490A4492F83E10824AD154B7F8F2350133A7F8F235B7F8C9
:40254000F235082BEBD97D4B492283F84420794B93F84720794B83F84520784B4B2283F846200023A7F8F23510E0B7F8F2354733B7F8F22501326F490A4492F833106F4A12
:40258000D154B7F8F2350133A7F8F235B7F8F235092BEAD969485221FEF7AEFA03461A46664B83F85120684B01221A705223A7F8F635CCE207F11003DA78644B1B78DBB2D9
:4025C0009A4240F05D815D4BDA221A71604B5A7E5A4B5A71594B44229A715E4B5B78DBB2062B1AD10023A7F8F23511E0B7F8F2350733B7F8F22556490A44D27902F00F02AA
:40260000D1B24E4AD154B7F8F2350133A7F8F235B7F8F235062BE9D919E00123A7F8F23511E0B7F8F2350633B7F8F22548490A44D27902F00F02D1B2404AD154B7F8F235E3
:402640000133A7F8F235B7F8F235072BE9D93B4B56229A730023A7F8F23511E0B7F8F2350F33B7F8F2253A490A44127C02F00F02D1B2324AD154B7F8F2350133A7F8F2357D
:40268000B7F8F235062BE9D92C4B54229A750023A7F8F2351DE0B7F8F23503F117012C4B5B7E5A1EB7F8F23503F10C00274C13465B001344DB00034423449B78DBB203F055
:4026C0000F03DAB21D4B5A54B7F8F2350133A7F8F235B7F8F2350B2BDDD90023A7F8F2351BE0B7F8F23503F12301194B5B7E5A1EB7F8F205154C13465B001344DB000344D9
:4027000023449B78DBB203F00F03DAB20B4B5A54B7F8F2350133A7F8F235B7F8F2350B2BDFD9064B502283F82F200023A7F8F2352EE000BF6C87FF1F8C84FF1FBC85FF1F88
:40274000F084FF1F0888FF1F5285FF1FF086FF1F8886FF1F0485FF1FB7F8F23503F13001A74B5B7E5A1EB7F8F205A64C13469B0013442344034448339B78DBB203F00F03CE
:40278000DAB2A14B5A54B7F8F2350133A7F8F235B7F8F235052BDFD99B4B482283F835209A4B1A78984B83F83620984B5A78964B83F83720944B462283F83820944B1A7827
:4027C000914B83F83920924B5A788F4B83F83A208F4B9A788C4B83F83B208B4B502283F83C200123A7F8F2350FE0B7F8F2353C33B7F8F22582490A4492F83E10824AD1544D
:40280000B7F8F2350133A7F8F235B7F8F235082BEBD97D4B492283F84420794B93F84720794B83F84520784B4B2283F846200023A7F8F23510E0B7F8F2354733B7F8F2258F
:4028400001326F490A4492F833106F4AD154B7F8F2350133A7F8F235B7F8F235092BEAD969485221FEF748F903461A46664B83F85120684B01221A705223A7F8F63566E151
:4028800007F11003DA78644B1B78DBB29A4240F05E815D4BDA221A71604B5A7E5A4B5A71594B44229A715E4B5B78DBB2062B1AD10023A7F8F23511E0B7F8F2350733B7F80C
:4028C000F22556490A44D27902F00F02D1B24E4AD154B7F8F2350133A7F8F235B7F8F235062BE9D919E00123A7F8F23511E0B7F8F2350633B7F8F22548490A44D27902F0E8
:402900000F02D1B2404AD154B7F8F2350133A7F8F235B7F8F235072BE9D93B4B56229A730023A7F8F23511E0B7F8F2350F33B7F8F2253A490A44127C02F00F02D1B2324A96
:40294000D154B7F8F2350133A7F8F235B7F8F235062BE9D92C4B54229A750023A7F8F2351DE0B7F8F23503F117012C4B5B7E5A1EB7F8F23503F10C00274C13465B001344B9
:40298000DB00034423449B78DBB203F00F03DAB21D4B5A54B7F8F2350133A7F8F235B7F8F2350B2BDDD90023A7F8F2351BE0B7F8F23503F12301194B5B7E5A1EB7F8F20588
:4029C000154C13465B001344DB00034423449B78DBB203F00F03DAB20B4B5A54B7F8F2350133A7F8F235B7F8F2350B2BDFD9064B502283F82F200023A7F8F2352EE000BFD6
:402A00008886FF1FF086FF1FBC85FF1FF084FF1F0888FF1F5285FF1FC883FF1F2884FF1F0485FF1FB7F8F23503F13001C64B5B7E5A1EB7F8F205C54C13469B0013442344A2
:402A4000034448339B78DBB203F00F03DAB2C04B5A54B7F8F2350133A7F8F235B7F8F235052BDFD9BA4B482283F83520B94B1A78B74B83F83620B74B5A78B54B83F83720CE
:402A8000B34B462283F83820B34B1A78B04B83F83920B14B5A78AE4B83F83A20AE4B9A78AB4B83F83B20AA4B502283F83C200123A7F8F2350FE0B7F8F2353C33B7F8F225E9
:402AC000A1490A4492F83E10A14AD154B7F8F2350133A7F8F235B7F8F235082BEBD99C4B492283F84420984B93F84720984B83F84520974B4B2283F846200023A7F8F23537
:402B000010E0B7F8F2354733B7F8F22501328E490A4492F833108E4AD154B7F8F2350133A7F8F235B7F8F235092BEAD988485221FDF7E2FF03461A46854B83F85120874B81
:402B400001221A705223A7F8F63504F09ABA04F098BA07F110035A797E4B1A7007F110039A797C4B5A7007F11003DA797A4B1A7007F110031A7A784B5A7007F110035A7A43
:402B8000754B9A70724BD2221A71714B04225A716F480721FDF7B0FF03461A466C4B9A7111F002FF0346012B07D111F039FF0346012B02D1664B03225A71684B01221A70A4
:402BC0000723A7F8F63504F05CBA0523A7F8F2350123A7F8F43512E0B7F8F435B7F8F22507F11001895C5E4AD154B7F8F2350133A7F8F235B7F8F4350133A7F8F435B7F85F
:402C0000F23507F11002D35C2A2BE5D1B7F8F435DBB2013BDAB2524B1A700020504911F03DFFB7F8F2350133A7F8F2350123A7F8F43512E0B7F8F435B7F8F22507F110018A
:402C4000895C484AD154B7F8F2350133A7F8F235B7F8F4350133A7F8F435B7F8F23507F11002D35C2A2BE5D1B7F8F435DBB2013BDAB23C4B1A7040203A4911F00FFFB7F81B
:402C8000F2350133A7F8F2350123A7F8F43512E0B7F8F435B7F8F22507F11001895C324AD154B7F8F2350133A7F8F235B7F8F4350133A7F8F435B7F8F23507F11002D35C35
:402CC0002A2BE5D1B7F8F435DBB2013BDAB2264B1A702F20244911F0E1FEB7F8F2350133A7F8F2350123A7F8F43512E0B7F8F435B7F8F22507F11001895C1C4AD154B7F891
:402D0000F2350133A7F8F235B7F8F4350133A7F8F435B7F8F23507F11002D35C2A2BE5D1B7F8F435DBB2013BDAB2104B1A7020200E4911F0B3FEB7F8F2350133A7F8F23559
:402D40000123A7F8F43526E02884FF1FC883FF1FBC85FF1FF084FF1F0888FF1F5285FF1F1088FF1F0C85FF1FD087FF1FF484FF1FB7F8F435B7F8F22507F11001895C754ADF
:402D8000D154B7F8F2350133A7F8F235B7F8F4350133A7F8F435B7F8F23507F11002D35C2A2BE5D1B7F8F435DBB2013BDAB2694B1A7040F2AE20674911F070FEB7F8F235D0
:402DC0000133A7F8F2350123A7F8F43512E0B7F8F435B7F8F22507F11001895C5E4AD154B7F8F2350133A7F8F235B7F8F4350133A7F8F435B7F8F23507F11002D35C2A2B9A
:402E0000E5D1B7F8F435DBB2013BDAB2524B1A704FF43070504911F041FEB7F8F2350133A7F8F2350123A7F8F43512E0B7F8F435B7F8F22507F11001895C484AD154B7F82C
:402E4000F2350133A7F8F235B7F8F4350133A7F8F435B7F8F23507F11002D35C2A2BE5D1B7F8F435DBB2013BDAB23C4B1A7040F2D1203A4911F012FEB7F8F2350133A7F8A5
:402E8000F2350123A7F8F43512E0B7F8F435B7F8F22507F11001895C314AD154B7F8F2350133A7F8F235B7F8F4350133A7F8F435B7F8F23507F11002D35C2A2BE5D1284BB0
:402EC00001221A7040F2C710254911F0E7FDB7F8F2350133A7F8F2350123A7F8F43514E0B7F8F435B7F8F22507F110018A5C303AD1B21C4AD154B7F8F2350133A7F8F23544
:402F0000B7F8F4350133A7F8F435B7F8F23507F11002D35C2A2BE3D1124B01221A704FF43D70104911F0BAFD0F4BD3221A710E4B03225A710C480721FDF7DEFD03461A4683
:402F4000094B9A71094B01221A700723A7F8F63504F097B85487FF1FA885FF1FE887FF1FEC86FF1FEC84FF1FBC85FF1F5285FF1F07F110035B7903F00F03DAB2BB4B5A7037
:402F800007F11003DB7903F00F03DAB2B74B9A7007F110035B7A03F00F03DAB2B34BDA70B24B03221A7040F25A20B04911F076FD07F11003DA78AE4B1B78DBB29A4240F015
:402FC000AC8007F11003DB7A03F00F03DAB2A84B83F85C20A64B93F85C30DAB23B461A7007F110035B7B03F00F03DAB2A04B83F859209F4B93F85930DAB23B465A7007F10D
:403000001003DB7B03F00F03DAB2994B83F85A20974B93F85A30DAB23B469A7007F110035B7C03F00F03DAB2914B83F85B20904B93F85B30DAB23B46DA703B4640F2A620A9
:40304000194611F02BFD0023A7F8F4353B465B78012B07D03B469B78012B03D03B46DB78012B02D10123A7F8F4353B465B78022B07D03B469B78022B03D03B46DB78022B47
:4030800005D1B7F8F43543F00203A7F8F4353B465B78032B07D03B469B78032B03D03B46DB78032B05D1B7F8F43543F00403A7F8F435B7F8F435013B062B00F2618201A205
:4030C00052F823F0E1300000E930000001310000F1300000F93000000931000011310000644B01221A8017E0624B01221A8013E0604B01221A800FE05E4B7C221A800BE06E
:403100005C4B7D221A8007E05A4B7F221A8003E0584B7E221A8000BF32E207F11003DA78554B1B78DBB29A4240F0B78007F11003DB7A03F00F03DAB24F4B83F85C204E4BDA
:4031400093F85C30DAB23B461A7007F110035B7B03F00F03DAB2484B83F85920464B93F85930DAB23B465A7007F11003DB7B03F00F03DAB2404B83F85A203F4B93F85A301B
:40318000DAB23B469A7007F110035B7C03F00F03DAB2394B83F85B20374B93F85B30DAB23B46DA703B4640F2AA20194611F076FC0023A7F8F4353B465B78012B07D03B460A
:4031C0009B78012B03D03B46DB78012B02D10123A7F8F4353B465B78022B07D03B469B78022B03D03B46DB78022B05D1B7F8F43543F00203A7F8F4353B465B78032B07D00A
:403200003B469B78032B03D03B46DB78032B05D1B7F8F43543F00403A7F8F435B7F8F435013B062B00F2AC8101A252F823F000BF4D32000055320000813200005D320000DC
:403240006532000089320000913200000B4B01221A8021E0094B01221A801DE0074B01221A8019E0054B7C221A8015E00485FF1F5888FF1F6687FF1F8C84FF1F2E85FF1FE3
:40328000B84B7D221A8007E0B64B7F221A8003E0B44B7E221A8000BF72E107F11003DA78B14B1B78DBB29A4240F0AD8007F11003DB7A03F00F03DAB2AB4B83F85C20AA4BFC
:4032C00093F85C30DAB23B461A7007F110035B7B03F00F03DAB2A44B83F85920A24B93F85930DAB23B465A7007F11003DB7B03F00F03DAB29C4B83F85A209B4B93F85A302A
:40330000DAB23B469A7007F110035B7C03F00F03DAB2954B83F85B20934B93F85B30DAB23B46DA703B4640F2F620194611F0B6FB0023A7F8F4353B465B78012B07D03B4645
:403340009B78012B03D03B46DB78012B02D10123A7F8F4353B465B78022B07D03B469B78022B03D03B46DB78022B05D1B7F8F43543F00203A7F8F4353B465B78032B07D088
:403380003B469B78032B03D03B46DB78032B05D1B7F8F43543F00403A7F8F435B7F8F435013B062B00F2EC8001A252F823F000BFCD330000D5330000ED330000DD3300002C
:4033C000E5330000F5330000FD330000674B01221A8017E0654B01221A8013E0634B01221A800FE0614B7C221A800BE05F4B7D221A8007E05D4B7F221A8003E05B4B7E2298
:403400001A8000BFBCE007F11003DA78584B1B78DBB29A4240F0B48007F11003DB7A03F00F03DAB2524B83F85C20514B93F85C30DAB23B461A7007F110035B7B03F00F0382
:40344000DAB24B4B83F85920494B93F85930DAB23B465A7007F11003DB7B03F00F03DAB2434B83F85A20424B93F85A30DAB23B469A7007F110035B7C03F00F03DAB23C4B8F
:4034800083F85B203A4B93F85B30DAB23B46DA703B4640F2FA20194611F000FB0023A7F8F4353B465B78012B07D03B469B78012B03D03B46DB78012B02D10123A7F8F43568
:4034C0003B465B78022B07D03B469B78022B03D03B46DB78022B05D1B7F8F43543F00203A7F8F4353B465B78032B07D03B469B78032B03D03B46DB78032B05D1B7F8F43593
:4035000043F00403A7F8F435B7F8F435013B062B36D801A252F823F0353500003D35000055350000453500004D3500005D350000793500000F4B01221A8021E00D4B012201
:403540001A801DE00B4B01221A8019E0094B7C221A8015E0074B7D221A8011E0054B7F221A800DE02E85FF1FF086FF1F0C88FF1FC883FF1F4289FF1FC64B7E221A8000BFC0
:4035800007F11003DB7C03F00F03DAB2C24B1A703B4601221A70C04B1B78DAB23B465A703B464FF4DE70194611F078FABB4BD4221A71BA4B03225A71B8480721FDF79CFACC
:4035C00003461A46B54B9A71B54B01221A700723A7F8F63503F055BDB04BDC221A71AF4B31225A7107F11003DA78AE4B1B78DBB29A4240F0AF800023A7F8F23513E0B7F899
:40360000F2350633B7F8F2250C32A6490A449278D2B202F00F02D1B2A04AD154B7F8F2350133A7F8F235B7F8F2350B2BE7D90023A7F8F23512E0B7F8F2351233B7F8F2256E
:4036400098490A449278D2B202F00F02D1B2934AD154B7F8F2350133A7F8F235B7F8F2350B2BE8D98D4B32229A770023A7F8F23513E0B7F8F2351F33B7F8F2250C32894951
:403680000A44927ED2B202F00F02D1B2834AD154B7F8F2350133A7F8F235B7F8F2350B2BE7D90023A7F8F23512E0B7F8F2352B33B7F8F2257B490A44927ED2B202F00F0296
:4036C000D1B2764AD154B7F8F2350133A7F8F235B7F8F2350B2BE8D9704B332283F837200023A7F8F23514E0B7F8F2353833B7F8F2250C326B490A4492F83220D2B202F06D
:403700000F02D1B2654AD154B7F8F2350133A7F8F235B7F8F2350B2BE6D90023A7F8F23513E0B7F8F2354433B7F8F2255D490A4492F83220D2B202F00F02D1B2574AD154F7
:40374000B7F8F2350133A7F8F235B7F8F2350B2BE7D933E207F11003DA78534B1B78DBB29A4240F0BC800023A7F8F23513E0B7F8F2350633B7F8F2250C324B490A4492785A
:40378000D2B202F00F02D1B2444AD154B7F8F2350133A7F8F235B7F8F2350B2BE7D90023A7F8F23512E0B7F8F2351233B7F8F2253D490A449278D2B202F00F02D1B2374A8B
:4037C000D154B7F8F2350133A7F8F235B7F8F2350B2BE8D9314B32229A770023A7F8F23513E0B7F8F2351F33B7F8F2250C322E490A44927ED2B202F00F02D1B2274AD154A9
:40380000B7F8F2350133A7F8F235B7F8F2350B2BE7D90023A7F8F23512E0B7F8F2352B33B7F8F22520490A44927ED2B202F00F02D1B21A4AD154B7F8F2350133A7F8F235ED
:40384000B7F8F2350B2BE8D9144B332283F837200023A7F8F23514E0B7F8F2353833B7F8F2250C3210490A4492F83220D2B202F00F02D1B2094AD154B7F8F2350133A7F825
:40388000F235B7F8F2350B2BE6D90023A7F8F23520E000BF4289FF1FEE86FF1FBC85FF1F5285FF1F5888FF1F8C84FF1FB7F8F2354433B7F8F225CC490A4492F83220D2B29D
:4038C00002F00F02D1B2C94AD154B7F8F2350133A7F8F235B7F8F2350B2BE7D96EE107F11003DA78C24B1B78DBB29A4240F0AF800023A7F8F23513E0B7F8F2350633B7F8C0
:40390000F2250C32BA490A449278D2B202F00F02D1B2B64AD154B7F8F2350133A7F8F235B7F8F2350B2BE7D90023A7F8F23512E0B7F8F2351233B7F8F225AD490A44927802
:40394000D2B202F00F02D1B2A84AD154B7F8F2350133A7F8F235B7F8F2350B2BE8D9A34B32229A770023A7F8F23513E0B7F8F2351F33B7F8F2250C329D490A44927ED2B266
:4039800002F00F02D1B2994AD154B7F8F2350133A7F8F235B7F8F2350B2BE7D90023A7F8F23512E0B7F8F2352B33B7F8F22590490A44927ED2B202F00F02D1B28B4AD154CD
:4039C000B7F8F2350133A7F8F235B7F8F2350B2BE8D9864B332283F837200023A7F8F23514E0B7F8F2353833B7F8F2250C3280490A4492F83220D2B202F00F02D1B27B4A4E
:403A0000D154B7F8F2350133A7F8F235B7F8F2350B2BE6D90023A7F8F23513E0B7F8F2354433B7F8F22572490A4492F83220D2B202F00F02D1B26D4AD154B7F8F235013302
:403A4000A7F8F235B7F8F2350B2BE7D9B6E007F11003DA78674B1B78DBB29A4240F0AE800023A7F8F23513E0B7F8F2350633B7F8F2250C325F490A449278D2B202F00F023F
:403A8000D1B25A4AD154B7F8F2350133A7F8F235B7F8F2350B2BE7D90023A7F8F23512E0B7F8F2351233B7F8F22552490A449278D2B202F00F02D1B24C4AD154B7F8F235D4
:403AC0000133A7F8F235B7F8F2350B2BE8D9474B32229A770023A7F8F23513E0B7F8F2351F33B7F8F2250C3242490A44927ED2B202F00F02D1B23D4AD154B7F8F235013357
:403B0000A7F8F235B7F8F2350B2BE7D90023A7F8F23512E0B7F8F2352B33B7F8F22535490A44927ED2B202F00F02D1B22F4AD154B7F8F2350133A7F8F235B7F8F2350B2BBE
:403B4000E8D92A4B332283F837200023A7F8F23514E0B7F8F2353833B7F8F2250C3225490A4492F83220D2B202F00F02D1B21F4AD154B7F8F2350133A7F8F235B7F8F235F0
:403B80000B2BE6D90023A7F8F23513E0B7F8F2354433B7F8F22517490A4492F83220D2B202F00F02D1B2114AD154B7F8F2350133A7F8F235B7F8F2350B2BE7D90B4B3422C5
:403BC00083F8502009485221FCF796FF03461A46064B83F85120084B01221A705223A7F8F63503F04EBA00BF8C84FF1FBC85FF1FF086FF1FC883FF1F5285FF1F07F1100325
:403C00009B79303BDAB23B461A7007F11003DB79303BDAB23B465A7007F110031B7A303BDAB23B469A7007F110035B7A303BDAB23B46DA7007F110039B7A303BDAB23B4671
:403C40001A7107F11003D97807F110035B793A46084611461A460DF0C7FE0346012B40F03382CA4BDD221A71C84B03225A71C7480721FCF741FF03461A46C44B9A71C44BFF
:403C800001221A700723A7F8F63507F11003DA78C04B1B78DBB29A427CD107F110035B795A1E3B461878BB4913469B0013440B44483302469A7007F110035B795A1E3B4607
:403CC0005878B44913469B0013440B44493302469A7007F110035B795A1E3B469878AD4913469B0013440B444A3302469A7007F110035B795A1E3B46D878A64913469B003D
:403D000013440B444B3302469A7007F110035B795A1E3B4618799F4913469B0013440B444C3302469A703B461A793B465A713B46DA783B461A713B469A783B46DA703B4633
:403D40005A783B469A703B461A783B465A703B4605221A7007F110035B79022B0BD0032B10D0012B00D0AFE13B4640F2A710194610F094FE0DE03B4640F2AD10194610F0BE
:403D80008DFE06E03B4640F2B310194610F086FE00BF99E107F11003DA787F4B1B78DBB29A427CD107F110035B795A1E3B461878794913469B0013440B44483302469A70FF
:403DC00007F110035B795A1E3B465878724913469B0013440B44493302469A7007F110035B795A1E3B4698786B4913469B0013440B444A3302469A7007F110035B795A1E9C
:403E00003B46D878644913469B0013440B444B3302469A7007F110035B795A1E3B4618795D4913469B0013440B444C3302469A703B461A793B465A713B46DA783B461A71E1
:403E40003B469A783B46DA703B465A783B469A703B461A783B465A703B4605221A7007F110035B79022B0BD0032B10D0012B00D02AE13B4640F2E220194610F00FFE0DE06C
:403E80003B464FF43A70194610F008FE06E03B4640F2EE20194610F001FE00BF14E107F11003DA783D4B1B78DBB29A4240F0878007F110035B795A1E3B461878374913461D
:403EC0009B0013440B44483302469A7007F110035B795A1E3B465878304913469B0013440B44493302469A7007F110035B795A1E3B469878294913469B0013440B444A33BA
:403F000002469A7007F110035B795A1E3B46D878224913469B0013440B444B3302469A7007F110035B795A1E3B4618791B4913469B0013440B444C3302469A703B461A79E6
:403F40003B465A713B46DA783B461A713B469A783B46DA703B465A783B469A703B461A783B465A703B4605221A7007F110035B79022B15D0032B1AD0012B00D0A4E03B4640
:403F80004FF44070194610F089FD17E0BC85FF1F5285FF1F5888FF1F8C84FF1FF086FF1F3B4640F20630194610F078FD06E03B464FF44370194610F071FD00BF84E007F11C
:403FC0001003DA78A34B1B78DBB29A427CD107F110035B795A1E3B4618789E4913469B0013440B44483302469A7007F110035B795A1E3B465878974913469B0013440B444D
:40400000493302469A7007F110035B795A1E3B469878904913469B0013440B444A3302469A7007F110035B795A1E3B46D878894913469B0013440B444B3302469A7007F12C
:4040400010035B795A1E3B461879824913469B0013440B444C3302469A703B461A793B465A713B46DA783B461A713B469A783B46DA703B465A783B469A703B461A783B468A
:404080005A703B4605221A7007F110035B79022B0CD0032B11D0012B01D002F0F2BF3B4640F21230194610F0F9FC0DE03B464FF44670194610F0F2FC06E03B4640F21E3089
:4040C000194610F0EBFC00BF02F0DBBF624BDF221A7107F110035A795F4B5A7107F11003DA785E4B1B78DBB29A4255D107F110035B795A1E594913469B0013440B4448336D
:404100009B78DBB203F00F03DAB2534B9A7107F110035B795A1E514913469B0013440B4449339B78DBB203F00F03DAB24A4BDA7107F110035B795A1E484913469B0013445A
:404140000B444A339B78DBB203F00F03DAB2424B1A7207F110035B795A1E404913469B0013440B444B339B78DBB203F00F03DAB2394B5A7207F110035B795A1E3749134680
:404180009B0013440B444C339B78DBB203F00F03DAB2314B9A7220E107F11003DA78304B1B78DBB29A425DD107F110035B795A1E2B4913469B0013440B4448339B78DBB203
:4041C00003F00F03DAB2244B9A7107F110035B795A1E234913469B0013440B4449339B78DBB203F00F03DAB21B4BDA7107F110035B795A1E1A4913469B0013440B444A3328
:404200009B78DBB203F00F03DAB2134B1A7207F110035B795A1E124913469B0013440B444B339B78DBB203F00F03DAB20A4B5A7207F110035B795A1E094913469B00134453
:404240000B444C339B78DBB203F00F03DAB2024B9A72C2E0C883FF1FBC85FF1F5888FF1F8C84FF1F07F11003DA78B54B1B78DBB29A4255D107F110035B795A1EB049134628
:404280009B0013440B4448339B78DBB203F00F03DAB2AC4B9A7107F110035B795A1EA84913469B0013440B4449339B78DBB203F00F03DAB2A34BDA7107F110035B795A1EF0
:4042C0009F4913469B0013440B444A339B78DBB203F00F03DAB29B4B1A7207F110035B795A1E974913469B0013440B444B339B78DBB203F00F03DAB2924B5A7207F11003E8
:404300005B795A1E8E4913469B0013440B444C339B78DBB203F00F03DAB28A4B9A725CE007F11003DA78884B1B78DBB29A4254D107F110035B795A1E834913469B00134434
:404340000B4448339B78DBB203F00F03DAB27D4B9A7107F110035B795A1E7B4913469B0013440B4449339B78DBB203F00F03DAB2744BDA7107F110035B795A1E7249134698
:404380009B0013440B444A339B78DBB203F00F03DAB26C4B1A7207F110035B795A1E6A4913469B0013440B444B339B78DBB203F00F03DAB2634B5A7207F110035B795A1EA7
:4043C000614913469B0013440B444C339B78DBB203F00F03DAB25B4B9A725A480C21FCF78BFB03461A46574BDA72584B01221A700C23A7F8F63502F044BE07F11003DB789D
:4044000018460CF011FA0346072B40F0A4810A2010F036FF07F11003DA793B465A7007F110031A7A3B469A7007F110035A7A3B46DA7007F110039B79012B1CD13B462E2262
:404440001A7107F110039A7A3B465A7107F11003DA7A3B469A7107F110031A7B3B46DA7107F110035A7B3B461A7207F110039A7B3B465A7218E007F110039A7A3B461A7172
:4044800007F11003DA7A3B465A7107F110031A7B3B469A7107F110035A7B3B46DA7107F110039A7B3B461A72012387F8F13507F11003DA78264B1B78DBB29A420FD1254B69
:4044C00093F84830022B64D107F110035A79214B9B7E9A425DD0002387F8F13559E007F11003DA781C4B1B78DBB29A420FD11B4B93F84830022B4CD107F110035A79174B57
:404500009B7E9A4245D0002387F8F13541E007F11003DA780A4B1B78DBB29A4222D1104B93F84830022B34D107F110035A790C4B9B7E9A422DD0002387F8F13529E000BFA0
:40454000F086FF1FBC85FF1FC883FF1F5285FF1F5888FF1FE088FF1F8C84FF1F6C87FF1F8886FF1F07F11003DA78974B1B78DBB29A420ED1954B93F84830022B09D107F1FF
:4045800010035A79914B9B7E9A4202D0002387F8F13597F8F135012B40F0C78007F11003D87807F11003597907F110039B793A460CF0DAFD0346012B77D10A2010F060FE63
:4045C00007F11003DB7843F01003DBB2184611F067F807F11003DA787D4B1B78DBB29A420DD17B4B0B225A707A4B0B221A707A4B00221A7001202E210FF0A0FD40E007F1FF
:404600001003DA78754B1B78DBB29A420DD1734B0B225A70724B0B221A70724B00221A7002202E210FF08AFD2AE007F11003DA786D4B1B78DBB29A420DD16B4B0B225A704C
:404640006A4B0B221A70644B00221A7001202E210FF074FD14E007F11003DA785A4B1B78DBB29A420CD1584B0B225A70604B0B221A705C4B00221A7002202E210FF05EFDAA
:404680005C4BDE221A715B4B03225A7159480721FCF732FA03461A46564B9A71564B01221A700723A7F8F63574E007F11003DA78474B1B78DBB29A4207D1454B01225A701F
:4046C00001205521FCF75AFA64E007F11003DA78424B1B78DBB29A4207D1404B01225A7002205521FCF74AFA54E007F11003DA783D4B1B78DBB29A4207D13B4B01225A7033
:4047000001205521FCF73AFA44E007F11003DA782D4B1B78DBB29A423CD12B4B01225A7002205521FCF72AFA34E0324BDE221A71304B04225A712F480721FCF7DDF903466E
:404740001A462C4B9A712C4B01221A700723A7F8F63502F096BC07F11003DB7818460CF063F80346092B15D1224BDE221A71214B03225A711F480721FCF7BEF903461A464F
:404780001C4B9A711C4B01221A700723A7F8F63502F077BC02F075BC164BD0221A71154B03225A7113480721FCF7A6F903461A46104B9A71104B00221A700723A7F8F635EA
:4047C0000023A7F8F23525E0C883FF1F2884FF1F5888FF1F6887FF1FEF86FF1F8C84FF1F5E85FF1F6285FF1FF086FF1FEE84FF1FB985FF1FBC85FF1F5285FF1FB7F8F2351C
:40480000B34AD35C184611F073F9B7F8F2350133A7F8F235B7F8F225B7F8F6359A42EDD307F11003DA78AB4B1B78DBB29A4269D1A84B5B78DBB20B2B1DD0A74B00221A70D8
:4048400012F090F912F056FAA44B00221A70A14B5B78DBB2192B04D09E4B5B78DBB21B2B06D101202E210FF069FC9D4B00221A70984B01225A709B4B5B78DAB29A4B5B78C1
:404880001046002140F2AF320FF09CFA964B5B7818461B2110F0D6F9934B5B781846402110F0D0F9904B5B7818460A2110F0CAF98D4B5B7818460A2110F0C4F90023A7F8D6
:4048C000F23510E0884B5978B7F8F235073307F11002D35C0846194610F0B4F9B7F8F2350133A7F8F235B7F8F22507F110035B79194607F110039B791B020B439A42E1D36C
:4049000002F0BFBB07F11003DA78784B1B78DBB29A4269D1754B5B78DBB20B2B1DD0744B00221A7012F03EFB12F0C8FA714B00221A706E4B5B78DBB2192B04D06B4B5B78E6
:40494000DBB21B2B06D102202E210FF0F7FB644B00225A70654B01225A70624B5B78DAB2654B5B781046002140F2AF320FF02AFA614B5B7818461B2110F064F95E4B5B78C5
:404980001846402110F05EF95B4B5B7818460A2110F058F9584B5B7818460A2110F052F90023A7F8F23510E0534B5978B7F8F235073307F11002D35C0846194610F042F9CB
:4049C000B7F8F2350133A7F8F235B7F8F22507F110035B79194607F110039B791B020B439A42E1D302F04DBB07F11003DA78434B1B78DBB29A4240F08580404B5B78DBB2C8
:404A00000B2B1DD03E4B00221A7012F0ABF812F071F9324B00221A70384B5B78DBB2192B04D0364B5B78DBB21B2B06D101202E210FF084FB2A4B00229A70304B01225A70F4
:404A4000284B5B78DAB2284B5B781046002140F2AF320FF0B7F9244B5B7818461B2110F0F1F8214B5B781846402110F0EBF81E4B5B7818460A2110F0E5F81B4B5B78184606
:404A80000A2110F0DFF80023A7F8F23510E0164B5978B7F8F235073307F11002D35C0846194610F0CFF8B7F8F2350133A7F8F235B7F8F22507F110035B79194607F110034D
:404AC0009B791B020B439A42E1D302F0DABA00BFBC85FF1F5888FF1F6887FF1FEF86FF1FB888FF1FEC86FF1FE487FF1F8C84FF1F5E85FF1F6285FF1F5488FF1FF086FF1F2C
:404B0000EE84FF1F07F11003DA78B14B1B78DBB29A4267D1AE4B5B78DBB20B2B1DD0AD4B00221A7012F03EFA12F0C8F9AA4B00221A70A74B5B78DBB2192B04D0A44B5B786E
:404B4000DBB21B2B06D102202E210FF0F7FAA34B0022DA709E4B01225A70A14B5B78DAB2A04B5B781046002140F2AF320FF02AF99C4B5B7818461B2110F064F8994B5B78DE
:404B80001846402110F05EF8964B5B7818460A2110F058F8934B5B7818460A2110F052F80023A7F8F23510E08E4B5978B7F8F235073307F11002D35C0846194610F042F81C
:404BC000B7F8F2350133A7F8F235B7F8F22507F110035B79194607F110039B791B020B439A42E1D302F04DBA7F4B04225A7107F11003DA787D4B1B78DBB29A4224D107F105
:404C000010035B79012B0FD1784B5B78DBB2012B40F09A80754B00225A70704B01221A70714B03225A718FE0704B5B78DBB2002B40F08A806D4B01225A706B4B03225A71EE
:404C4000664B00221A707FE007F11003DA78684B1B78DBB29A4222D107F110035B79012B0ED1634B5B78DBB2012B6DD1604B00225A705A4B01225A705B4B03225A7163E015
:404C80005B4B5B78DBB2002B5ED1594B01225A70554B03225A71514B00225A7054E007F11003DA78534B1B78DBB29A4222D107F110035B79012B0ED14E4B5B78DBB2012BBE
:404CC00042D14C4B00225A70474B03225A71434B01229A7038E0474B5B78DBB2002B33D1444B01225A70404B03225A713B4B00229A7029E007F11003DA78354B1B78DBB2F9
:404D00009A4221D107F110035B79012B0ED1304B5B78DBB2012B17D12D4B00225A70324B03225A712D4B0122DA700DE0284B5B78DBB2002B08D1264B01225A702A4B03225A
:404D40005A71264B0022DA70274BE0221A7126480721FBF7D1FE03461A46234B9A71264B01221A700723A7F8F63502F08AB91E4B04225A7107F11003DA781C4B1B78DBB28E
:404D80009A4265D107F110035B79012B40D1174B0F225A70012023210FF0D0F9174B65221A70174B02221A80154B24225A80154811F0C6FE11F08EFF134B00221A700A4B19
:404DC00003225A71114B012283F85F2026E100BFC883FF1FB985FF1F6285FF1FB888FF1FEC86FF1F5488FF1FBC85FF1F5888FF1F8C84FF1FF086FF1F5285FF1F6887FF1FB1
:404E00006889FF1F250601008486FF1FE088FF1FB94B0F225A7001202A210FF08FF9B74B65221A70B64B02221A80B54B24225A80B44811F085FE11F04DFFB34B00221A702E
:404E4000B24B03225A71B24B002283F85F20E5E007F11003DA78AF4B1B78DBB29A4244D107F110035B79012B1FD1AA4B0F225A70022023210FF062F9A74B65221A70A04B66
:404E800002229A809E4B2422DA80A44812F078F812F004F8A24B00221A709C4B03225A71A04B012283F85F20B8E09A4B0F225A7002202A210FF042F9974B65221A70904B6A
:404EC00002229A808E4B2422DA80944812F058F811F0E4FF924B00221A708C4B03225A71904B002283F85F2098E007F11003DA788D4B1B78DBB29A4244D107F110035B7905
:404F0000012B1FD1884B0F225A70012023210FF015F9864B65221A70794B02221A81784B24225A81774811F00BFE11F0D3FE764B00221A70754B03225A717D4B012283F8AE
:404F40005F206BE0784B0F225A7001202A210FF0F5F8764B65221A70694B02221A81684B24225A81674811F0EBFD11F0B3FE664B00221A70654B03225A716D4B002283F89C
:404F80005F204BE007F11003DA786A4B1B78DBB29A4243D107F110035B79012B1FD1654B0F225A70022023210FF0C8F8624B65221A70534B02229A81514B2422DA815748E3
:404FC00011F0DEFF11F06AFF554B00221A704F4B03225A71594B012283F85F201EE0554B0F225A7002202A210FF0A8F8524B65221A70434B02229A81414B2422DA814748F6
:4050000011F0BEFF11F04AFF454B00221A703F4B03225A71494B002283F85F203B4BE1221A713A480721FBF767FD03461A46374B9A71434B01221A700723A7F8F63502F097
:4050400020B8324BDB221A7107F11003DA782A4B1B78DBB29A423BD12D4B93F85F202B4B5A712A4B43229A710123A7F8F2350FE0B7F8F2350633B7F8F22525490A4492F8DD
:405080004910224AD154B7F8F2350133A7F8F235B7F8F2350A2BEBD91C4B50225A740123A7F8F2350FE0B7F8F2351133B7F8F22517490A4492F85410144AD154B7F8F23512
:4050C0000133A7F8F235B7F8F235082BEBD9F0E007F11003DA780F4B1B78DBB29A4261D1104B93F85F20094B5A71084B43229A710123A7F8F23535E05888FF1F6887FF1FE3
:405100006889FF1F250601008486FF1FBC85FF1FE088FF1F8C84FF1F5E85FF1F99060100EF84FF1F6C87FF1FF086FF1FEE84FF1F8886FF1FC883FF1FB985FF1F2884FF1FD7
:405140005285FF1FB7F8F2350633B7F8F225C7490A4492F84910C64AD154B7F8F2350133A7F8F235B7F8F2350A2BEBD9C04B50225A740123A7F8F2350FE0B7F8F235113312
:40518000B7F8F225B9490A4492F85410B84AD154B7F8F2350133A7F8F235B7F8F235082BEBD986E007F11003DA78B24B1B78DBB29A423BD1B04B93F85F20AD4B5A71AC4BA0
:4051C00043229A710123A7F8F2350FE0B7F8F2350633B7F8F225A8490A4492F84910A44AD154B7F8F2350133A7F8F235B7F8F2350A2BEBD99E4B50225A740123A7F8F235AA
:405200000FE0B7F8F2351133B7F8F2259A490A4492F85410964AD154B7F8F2350133A7F8F235B7F8F235082BEBD942E007F11003DA78924B1B78DBB29A423AD1904B93F815
:405240005F208B4B5A718A4B43229A710123A7F8F2350FE0B7F8F2350633B7F8F22588490A4492F84910824AD154B7F8F2350133A7F8F235B7F8F2350A2BEBD97C4B502250
:405280005A740123A7F8F2350FE0B7F8F2351133B7F8F2257A490A4492F85410744AD154B7F8F2350133A7F8F235B7F8F235082BEBD96F481B21FBF71FFC03461A466C4B88
:4052C0009A76704B01221A701B23A7F8F63501F0D8BE674B04225A7107F11003DA786A4B1B78DBB29A4266D1674B01225A70674B64221A70664811F023FC11F0EBFC654BF8
:4053000000221A705A4B03225A7107F110035B79013B052B00F2BC8101A252F823F000BF39530000635300006D53000077530000815300008B53000001203C210EF0FEFEFD
:40534000554B312283F86020484B312283F86020494B312283F86020494B312283F8602028E0012043210EF0E9FE23E0012042210EF0E4FE1EE0012055210EF0DFFE19E058
:40538000012041210EF0DAFE14E001203C210EF0D5FE414B302283F86020344B302283F86020354B302283F86020354B302283F8602000BF6CE107F11003DA78374B1B7894
:4053C000DBB29A4240F08880344B01225A70344B64221A70334811F0D3FD11F05FFD324B00221A70224B03225A7107F110035B79013B052B00F24C8101A252F823F000BF19
:4054000019540000435400004D5400005754000061540000AD54000002203C210EF08EFE1D4B312283F86020104B312283F86020114B312283F86020114B312283F86020AA
:4054400049E0022043210EF079FE44E0022042210EF074FE3FE0022055210EF06FFE3AE0022041210EF06AFE35E000BF6C87FF1FBC85FF1FF086FF1F8886FF1FC883FF1F5C
:405480002884FF1F5285FF1F5888FF1F6887FF1F250601008486FF1FE088FF1F8C84FF1F5E85FF1F99060100EF84FF1F02203C210EF044FEB94B302283F86020B84B302283
:4054C00083F86020B74B302283F86020B64B302283F8602000BFDBE007F11003DA78B34B1B78DBB29A4266D1B04B01225A70B04B64221A70AF4811F023FB11F0EBFBAE4B23
:4055000000221A70AD4B03225A7107F110035B79013B052B00F2BC8001A252F823F000BF39550000635500006D55000077550000815500008B55000001203C210EF0FEFD9E
:40554000964B312283F86020954B312283F86020944B312283F86020934B312283F8602028E0012043210EF0E9FD23E0012042210EF0E4FD1EE0012055210EF0DFFD19E036
:40558000012041210EF0DAFD14E001203C210EF0D5FD824B302283F86020814B302283F86020804B302283F860207F4B302283F8602000BF6CE007F11003DA78804B1B7829
:4055C000DBB29A4264D17E4B01225A707D4B64221A70784811F0D4FC11F060FC7A4B00221A70764B03225A7107F110035B79013B052B4DD801A252F823F000BF15560000D5
:405600003F56000049560000535600005D5600006756000002203C210EF090FD5F4B312283F860205E4B312283F860205D4B312283F860205C4B312283F8602028E002200F
:4056400043210EF07BFD23E0022042210EF076FD1EE0022055210EF071FD19E0022041210EF06CFD14E002203C210EF067FD4B4B302283F860204A4B302283F86020494B43
:40568000302283F86020484B302283F8602000BF4A4BE2221A7149480721FBF72DFA03461A46464B9A71494B01221A700723A7F8F63501F0E6BC414B04225A7107F1100373
:4056C000DA78434B1B78DBB29A421CD1404B1A225A70404B0D221A70384B03225A713E4B00221A703D4B07221A703D4B04221A803C4B03221A803C4B01221A8001200A210B
:405700000EF01CFDA4E007F11003DA78374B1B78DBB29A421CD1354B1A225A70344B0D221A70264B03225A71324B00221A70324B07221A70314B04221A80314B03221A8017
:40574000304B01221A8002200A210EF0F7FC7FE007F11003DA78154B1B78DBB29A4253D1124B1A225A70124B0D221A70134B03225A71204B00221A70184B07221A70184B20
:4057800004221A80174B03221A80174B01221A8001200A210EF0D2FC5AE000BFE088FF1F6C87FF1F8886FF1F2884FF1FF086FF1FEE84FF1F990601008486FF1FBC85FF1F00
:4057C000C883FF1FB985FF1FEF84FF1F5285FF1F5888FF1F6887FF1F4D87FF1F6385FF1FB688FF1F0885FF1F5C85FF1F8C84FF1F5E85FF1FBC88FF1F5288FF1FE687FF1F41
:405800004E87FF1F6085FF1F07F11003DA78BE4B1B78DBB29A421BD1BB4B1A225A70BB4B0D221A70BA4B03225A71BA4B00221A70B94B07221A70B94B04221A80B84B032210
:405840001A80B84B01221A8002200A210EF076FCAF4BE3221A71AE480721FBF74DF903461A46AB4B9A71B04B01221A700723A7F8F63501F006BCA64BE4221A7107F11003AB
:40588000DA78AA4B1B78DBB29A421BD1A04B50225A710123A7F8F2350FE0B7F8F2350533B7F8F225A2490A4492F83E10984AD154B7F8F2350133A7F8F235B7F8F235072BF4
:4058C000EBD96AE007F11003DA789A4B1B78DBB29A421BD18E4B50225A710123A7F8F2350FE0B7F8F2350533B7F8F22592490A4492F83E10864AD154B7F8F2350133A7F80E
:40590000F235B7F8F235072BEBD946E007F11003DA788A4B1B78DBB29A421BD17C4B50225A710123A7F8F2350FE0B7F8F2350533B7F8F22582490A4492F83E10744AD154AF
:40594000B7F8F2350133A7F8F235B7F8F235072BEBD922E007F11003DA786B4B1B78DBB29A421AD16A4B50225A710123A7F8F2350FE0B7F8F2350533B7F8F22571490A44E8
:4059800092F83E10624AD154B7F8F2350133A7F8F235B7F8F235072BEBD95D480E21FBF7ABF803461A465A4B5A735F4B01221A700E23A7F8F63501F064BB554B04225A712B
:4059C00007F11003DA78594B1B78DBB29A424AD1564B5B78DBB2012B45D15B4B1B78DBB2002B04D0584B1B78DBB2032B3BD1574B1B78002B37D1564B1B78002B33D14C4B28
:405A000093F86030312B2BD14F4B06221A70474B1E225A70012007210EF090FB444B022283F84820494B01221A70494B01221A70374B03225A710023A7F8F2350BE0B7F82C
:405A4000F2353B4A1344002283F83320B7F8F2350133A7F8F235B7F8F2350A2BEFD902E0324B1C225A7007F11003DA78314B1B78DBB29A4275D12F4B5B78DBB2012B70D1C7
:405A8000344B1B78DBB2002B04D0324B1B78DBB2032B66D12D4B5B78002B62D12E4B1B78002B5ED1244B93F86030312B56D1294B06221A701F4B1E225A70022007210EF048
:405AC0003DFB1D4B022283F84820204B01225A70214B01221A700E4B03225A710023A7F8F2350BE0B7F8F235134A1344002283F83320B7F8F2350133A7F8F235B7F8F23551
:405B00000A2BEFD92DE000BFC883FF1FB985FF1FBC85FF1FBC88FF1F5288FF1FE687FF1F4E87FF1F6085FF1F5285FF1F5888FF1FE088FF1F8C84FF1F6C87FF1FF086FF1F51
:405B40008886FF1F2884FF1F6887FF1FB888FF1FEF86FF1F5E85FF1F6285FF1F5D4B1C225A7007F11003DA785B4B1B78DBB29A424AD1594B5B78DBB2012B45D1574B1B78E6
:405B8000DBB2002B04D0554B1B78DBB2032B3BD1534B9B78002B37D1524B1B78002B33D1514B93F86030312B2BD14C4B06221A70494B1E225A70012007210EF0BFFA4A4B91
:405BC000022283F84820464B01229A70454B01221A70464B03225A710023A7F8F2350BE0B7F8F235404A1344002283F83320B7F8F2350133A7F8F235B7F8F2350A2BEFD904
:405C000002E0354B1C225A7007F11003DA78384B1B78DBB29A424AD1354B5B78DBB2012B45D1344B1B78DBB2002B04D0314B1B78DBB2032B3BD12A4BDB78002B37D12E4BF9
:405C40001B78002B33D12D4B93F86030312B2BD1284B06221A70264B1E225A70022007210EF06CFA254B022283F848201C4B0122DA70214B01221A701C4B03225A7100234B
:405C8000A7F8F2350BE0B7F8F2351C4A1344002283F83320B7F8F2350133A7F8F235B7F8F2350A2BEFD902E0114B1C225A700F4BE6221A710D480721FAF71EFF03461A46A6
:405CC0000A4B9A710E4B01221A700723A7F8F63501F0D7B98C84FF1FF086FF1FEE84FF1FB888FF1FEF86FF1F8886FF1FBC85FF1FC883FF1FB985FF1F6285FF1F2884FF1F67
:405D00005285FF1F714BE5221A7107F110035B79302B04D007F110035B79312B0ED107F110039B79303BDAB2694B5A70684B01221A7040F25A2066490EF0B0FE07F11003F2
:405D4000DA78644B1B78DBB29A4240F0EF815F4B03225A7107F110035A795F4B83F860205C4B5B78DBB21C2B02D15A4B01225A7007F110035B79302B05D007F110035B79C8
:405D8000312B40F0B18007F110039B7A303BDAB2504B83F85C204F4B93F85C30DAB23B461A7007F110031B7B303BDAB2494B83F85920484B93F85930DAB23B465A7007F19F
:405DC00010039B7C303BDAB2424B83F85A20414B93F85A30DAB23B469A7007F110031B7E303BDAB23B4B83F85B203A4B93F85B30DAB23B46DA703B4640F2A62019460EF069
:405E00004DFE0023A7F8F4353B465B78012B07D03B469B78012B03D03B46DB78012B02D10123A7F8F4353B465B78022B07D03B469B78022B03D03B46DB78022B05D1B7F811
:405E4000F43543F00203A7F8F4353B465B78032B07D03B469B78032B03D03B46DB78032B05D1B7F8F43543F00403A7F8F435B7F8F435013B062B37D801A252F823F000BF46
:405E80009D5E0000A55E0000BD5E0000AD5E0000B55E0000C55E0000E15E00000F4B01221A8021E00D4B01221A801DE00B4B01221A8019E0094B7C221A8015E0074B7D22A1
:405EC0001A8011E0054B7F221A800DE0BC85FF1F0485FF1F5888FF1FE088FF1F6687FF1F904B7E221A8000BF07F110031B7B302B58D007F110035B7B303BDAB23B461A702F
:405F000007F110039B7B303BDAB23B465A7007F11003DB7B303BDAB23B469A7007F110031B7C303BDAB23B46DA7007F110035B7C303BDAB23B461A713B461A787A4B83F87F
:405F40004A203B465A78784B83F84B203B469A78754B83F84C203B46DA78734B83F84D203B461A79704B83F84E203B461A793B465A713B46DA783B461A713B469A783B46FD
:405F8000DA703B465A783B469A703B461A783B465A703B4605221A703B4640F2A71019460EF07CFD07F110039B7C302B58D007F11003DB7C303BDAB23B461A7007F11003D5
:405FC0001B7D303BDAB23B465A7007F110035B7D303BDAB23B469A7007F110039B7D303BDAB23B46DA7007F11003DB7D303BDAB23B461A713B461A784B4B83F84F203B4603
:406000005A78494B83F850203B469A78464B83F851203B46DA78444B83F852203B461A79414B83F853203B461A793B465A713B46DA783B461A713B469A783B46DA703B4604
:406040005A783B469A703B461A783B465A703B4605221A703B4640F2AD1019460EF01EFD07F110031B7E302B00F03A8607F110035B7E303BDAB23B461A7007F110039B7E92
:40608000303BDAB23B465A7007F11003DB7E303BDAB23B469A7007F110031B7F303BDAB23B46DA7007F110035B7F303BDAB23B461A713B461A781C4B83F854203B465A78AD
:4060C000194B83F855203B469A78174B83F856203B46DA78144B83F857203B461A79124B83F858203B461A793B465A713B46DA783B461A713B469A783B46DA703B465A78EE
:406100003B469A703B461A783B465A703B4605221A703B4640F2B31019460EF0BFFC00F0DFBD00BF6687FF1F5888FF1F07F11003DA78644B1B78DBB29A4240F0EF81624B0D
:4061400003225A7107F110035A79604B83F860205C4B5B78DBB21C2B02D15A4B01225A7007F110035B79302B05D007F110035B79312B40F0B38007F110039B7A03F00F0326
:40618000DAB2504B83F85C204E4B93F85C30DAB23B461A7007F110031B7B03F00F03DAB2484B83F85920474B93F85930DAB23B465A7007F110039B7C03F00F03DAB2414B05
:4061C00083F85A203F4B93F85A30DAB23B469A7007F110031B7E03F00F03DAB2394B83F85B20384B93F85B30DAB23B46DA703B4640F2AA2019460EF051FC0023A7F8F43543
:406200003B465B78012B07D03B469B78012B03D03B46DB78012B02D10123A7F8F4353B465B78022B07D03B469B78022B03D03B46DB78022B05D1B7F8F43543F00203A7F843
:40624000F4353B465B78032B07D03B469B78032B03D03B46DB78032B05D1B7F8F43543F00403A7F8F435B7F8F435013B062B35D801A252F823F000BF956200009D6200004E
:40628000B5620000A5620000AD620000BD620000D56200000E4B01221A801FE00C4B01221A801BE00A4B01221A8017E0084B7C221A8013E0064B7D221A800FE0044B7F2247
:4062C0001A800BE08C84FF1FBC85FF1F6C87FF1F2E85FF1F8F4B7E221A8000BF07F110031B7B302B58D007F110035B7B303BDAB23B461A7007F110039B7B303BDAB23B4637
:406300005A7007F11003DB7B303BDAB23B469A7007F110031B7C303BDAB23B46DA7007F110035B7C303BDAB23B461A713B461A78794B83F84A203B465A78774B83F84B20B0
:406340003B469A78744B83F84C203B46DA78724B83F84D203B461A796F4B83F84E203B461A793B465A713B46DA783B461A713B469A783B46DA703B465A783B469A703B46B9
:406380001A783B465A703B4605221A703B4640F2E22019460EF082FB07F110039B7C302B58D007F11003DB7C303BDAB23B461A7007F110031B7D303BDAB23B465A7007F159
:4063C00010035B7D303BDAB23B469A7007F110039B7D303BDAB23B46DA7007F11003DB7D303BDAB23B461A713B461A784A4B83F84F203B465A78484B83F850203B469A78EF
:40640000454B83F851203B46DA78434B83F852203B461A79404B83F853203B461A793B465A713B46DA783B461A713B469A783B46DA703B465A783B469A703B461A783B46F6
:406440005A703B4605221A703B464FF43A7019460EF024FB07F110031B7E302B00F0408407F110035B7E303BDAB23B461A7007F110039B7E303BDAB23B465A7007F110032C
:40648000DB7E303BDAB23B469A7007F110031B7F303BDAB23B46DA7007F110035B7F303BDAB23B461A713B461A781B4B83F854203B465A78184B83F855203B469A78164BB0
:4064C00083F856203B46DA78134B83F857203B461A79114B83F858203B461A793B465A713B46DA783B461A713B469A783B46DA703B465A783B469A703B461A783B465A704C
:406500003B4605221A703B4640F2EE2019460EF0C5FAE5E32E85FF1F8C84FF1F07F11003DA78624B1B78DBB29A4240F0EB81604B03225A7107F110035A795E4B83F86020C6
:406540005A4B5B78DBB21C2B02D1584B01225A7007F110035B79302B05D007F110035B79312B40F0AF8007F110039B7A303BDAB24E4B83F85C204D4B93F85C30DAB23B4660
:406580001A7007F110031B7B303BDAB2474B83F85920464B93F85930DAB23B465A7007F110039B7C303BDAB2404B83F85A203F4B93F85A30DAB23B469A7007F110031B7EC4
:4065C000303BDAB2394B83F85B20384B93F85B30DAB23B46DA703B4640F2F62019460EF05DFA0023A7F8F4353B465B78012B07D03B469B78012B03D03B46DB78012B02D115
:406600000123A7F8F4353B465B78022B07D03B469B78022B03D03B46DB78022B05D1B7F8F43543F00203A7F8F4353B465B78032B07D03B469B78032B03D03B46DB78032BE3
:4066400005D1B7F8F43543F00403A7F8F435B7F8F435013B062B35D801A252F823F000BF7D660000856600009D6600008D66000095660000A5660000BD6600000E4B0122F0
:406680001A801FE00C4B01221A801BE00A4B01221A8017E0084B7C221A8013E0064B7D221A800FE0044B7F221A800BE0F086FF1FBC85FF1F8886FF1F0C88FF1F8F4B7E2272
:4066C0001A8000BF07F110031B7B302B58D007F110035B7B303BDAB23B461A7007F110039B7B303BDAB23B465A7007F11003DB7B303BDAB23B469A7007F110031B7C303BE7
:40670000DAB23B46DA7007F110035B7C303BDAB23B461A713B461A78794B83F84A203B465A78774B83F84B203B469A78744B83F84C203B46DA78724B83F84D203B461A79A1
:406740006F4B83F84E203B461A793B465A713B46DA783B461A713B469A783B46DA703B465A783B469A703B461A783B465A703B4605221A703B464FF4407019460EF08EF913
:4067800007F110039B7C302B58D007F11003DB7C303BDAB23B461A7007F110031B7D303BDAB23B465A7007F110035B7D303BDAB23B469A7007F110039B7D303BDAB23B46EB
:4067C000DA7007F11003DB7D303BDAB23B461A713B461A784A4B83F84F203B465A78484B83F850203B469A78454B83F851203B46DA78434B83F852203B461A79404B83F80F
:4068000053203B461A793B465A713B46DA783B461A713B469A783B46DA703B465A783B469A703B461A783B465A703B4605221A703B4640F2063019460EF030F907F1100360
:406840001B7E302B00F04C8207F110035B7E303BDAB23B461A7007F110039B7E303BDAB23B465A7007F11003DB7E303BDAB23B469A7007F110031B7F303BDAB23B46DA70CD
:4068800007F110035B7F303BDAB23B461A713B461A781B4B83F854203B465A78184B83F855203B469A78164B83F856203B46DA78134B83F857203B461A79114B83F8582077
:4068C0003B461A793B465A713B46DA783B461A713B469A783B46DA703B465A783B469A703B461A783B465A703B4605221A703B464FF4437019460EF0D1F8F1E10C88FF1F6C
:40690000F086FF1F07F11003DA78624B1B78DBB29A4240F0E581604B03225A7107F110035A795E4B83F860205A4B5B78DBB21C2B02D1584B01225A7007F110035B79302B21
:4069400005D007F110035B79312B40F0AF8007F110039B7A303BDAB24E4B83F85C204D4B93F85C30DAB23B461A7007F110031B7B303BDAB2474B83F85920464B93F85930F8
:40698000DAB23B465A7007F110039B7C303BDAB2404B83F85A203F4B93F85A30DAB23B469A7007F110031B7E303BDAB2394B83F85B20384B93F85B30DAB23B46DA703B462B
:4069C00040F2FA2019460EF069F80023A7F8F4353B465B78012B07D03B469B78012B03D03B46DB78012B02D10123A7F8F4353B465B78022B07D03B469B78022B03D03B468C
:406A0000DB78022B05D1B7F8F43543F00203A7F8F4353B465B78032B07D03B469B78032B03D03B46DB78032B05D1B7F8F43543F00403A7F8F435B7F8F435013B062B35D836
:406A400001A252F823F000BF656A00006D6A0000856A0000756A00007D6A00008D6A0000A56A00000E4B01221A801FE00C4B01221A801BE00A4B01221A8017E0084B7C22D8
:406A80001A8013E0064B7D221A800FE0044B7F221A800BE0C883FF1FBC85FF1F2884FF1F4289FF1FC14B7E221A8000BF07F110031B7B302B58D007F110035B7B303BDAB2DF
:406AC0003B461A7007F110039B7B303BDAB23B465A7007F11003DB7B303BDAB23B469A7007F110031B7C303BDAB23B46DA7007F110035B7C303BDAB23B461A713B461A78E9
:406B0000AB4B83F84A203B465A78A94B83F84B203B469A78A64B83F84C203B46DA78A44B83F84D203B461A79A14B83F84E203B461A793B465A713B46DA783B461A713B468F
:406B40009A783B46DA703B465A783B469A703B461A783B465A703B4605221A703B4640F2123019460DF09AFF07F110039B7C302B58D007F11003DB7C303BDAB23B461A70D7
:406B800007F110031B7D303BDAB23B465A7007F110035B7D303BDAB23B469A7007F110039B7D303BDAB23B46DA7007F11003DB7D303BDAB23B461A713B461A787C4B83F8EB
:406BC0004F203B465A787A4B83F850203B469A78774B83F851203B46DA78754B83F852203B461A79724B83F853203B461A793B465A713B46DA783B461A713B469A783B4650
:406C0000DA703B465A783B469A703B461A783B465A703B4605221A703B464FF4467019460DF03CFF07F110031B7E302B58D007F110035B7E303BDAB23B461A7007F1100373
:406C40009B7E303BDAB23B465A7007F11003DB7E303BDAB23B469A7007F110031B7F303BDAB23B46DA7007F110035B7F303BDAB23B461A713B461A784D4B83F854203B4669
:406C80005A784B4B83F855203B469A78484B83F856203B46DA78464B83F857203B461A79434B83F858203B461A793B465A713B46DA783B461A713B469A783B46DA703B465C
:406CC0005A783B469A703B461A783B465A703B4605221A703B4640F21E3019460DF0DEFE34480721F9F708FF03461A46314B9A71314B01221A700723A7F8F635C1E107F1EC
:406D00001003DA782D4B1B78DBB29A4278D107F110035B79013B062B00F2B28101A252F823F000BF416D0000496D00006F6D0000776D0000D56D000081700000DD6D000060
:406D40001E4B0B225A705AE01D4B93F84830002B03D01A4B07225A7051E0184B01225A70184B00221A70184B00221A7047E0134B0A225A7043E0134B64221A70134B00228D
:406D80001A7013480FF0DCFE0FF0A4FF0B4B5B78DBB21C2B08D0094B5B78DBB20B2B03D0064B01225A702AE029E000BF4289FF1FC883FF1FBC85FF1F5285FF1F5888FF1F2D
:406DC000E088FF1F6887FF1FB888FF1F8486FF1F25060100AF4B11225A7010E0AD4B01225A70AD4B00221A70AC4B00221A7001202E210DF0A3F9AA4B00221A7000BF3FE1B2
:406E000007F11003DA78A74B1B78DBB29A4262D107F110035B79013B062B00F2318101A252F823F0416E0000496E00006F6E0000776E0000AB6E000081700000B36E000091
:406E4000984B0B225A7045E0974B93F84830002B03D0944B07225A703CE0924B01225A70924B00221A708D4B00225A7032E08D4B0A225A702EE08D4B64221A708C4B00225C
:406E80001A708C4810F07CF810F008F8854B5B78DBB21C2B08D0834B5B78DBB20B2B03D0804B01225A7015E014E07E4B11225A7010E07C4B01225A707C4B00221A70774B3A
:406EC00000225A7002202E210DF038F97A4B00221A7000BFD4E007F11003DA78774B1B78DBB29A4263D107F110035B79013B062B00F2C68001A252F823F000BF196F000009
:406F0000216F0000476F00004F6F0000836F0000817000008B6F0000684B0B225A7045E0674B93F84830002B03D0644B07225A703CE0624B01225A70624B00221A70574B9B
:406F400000229A7032E05D4B0A225A702EE05D4B64221A705C4B00221A705C480FF0F0FD0FF0B8FE554B5B78DBB21C2B08D0534B5B78DBB20B2B03D0504B01225A7015E034
:406F800014E04E4B11225A7010E04C4B01225A704C4B00221A70414B00229A7001202E210DF0CCF83E4B00221A7000BF68E007F11003DA78464B1B78DBB29A4260D107F158
:406FC00010035B79013B062B5AD801A252F823F0ED6F0000F56F00001B7000002370000057700000817000005F700000384B0B225A7045E0374B93F84830002B03D0344B05
:4070000007225A703CE0324B01225A70324B00221A70224B0022DA7032E02D4B0A225A702EE02D4B64221A70274B00221A7021480FF0A6FF0FF032FF254B5B78DBB21C2B4D
:4070400008D0234B5B78DBB20B2B03D0204B01225A7015E014E01E4B11225A7010E01C4B01225A701C4B00221A700C4B0022DA7002202E210DF062F80F4B00221A7000BF13
:4070800000BF164B1B78012B3CD10023A7F8F23532E000BF5888FF1F6887FF1FB888FF1FEF86FF1F8C84FF1F6C87FF1F5E85FF1FEF84FF1F990601006285FF1FF086FF1F24
:4070C0008886FF1FEE84FF1F8486FF1F25060100C883FF1F2884FF1FB985FF1F5285FF1FB7F8F2350D4AD35C18460EF001FDB7F8F2350133A7F8F235B7F8F225B7F8F635D6
:407100009A42EDD30EF0B6FC0023A7F8EE350023A7F8EC3507F2FC57BD4690BDBC85FF1F80B500AF1D4B1B78012B36D11B4B00221A701B4B1B78002B08D11A4B1B78DBB29A
:40714000184609F071FB05200EF09AF8144B5B78002B08D1144B1B78DBB2184609F064FB05200EF08DF80E4B9B78002B08D10F4B1B78DBB2184609F057FB05200EF080F856
:40718000074BDB78002B08D1094B1B78DBB2184609F04AFB05200EF073F880BD5388FF1FB888FF1F5888FF1F8C84FF1FF086FF1FC883FF1FB0B590B004AFB54B1B78DBB253
:4071C000682B02F2F68501A252F823F07173000027740000A9740000DF7B0000ED7D0000038000007B8000009B8100003782000021830000B39D0000A18300003B85000002
:407200005D860000E1890000638A0000098C00003D8D00009D8E0000D19000004B920000D992000027960000479A0000FB9A0000B39D0000B39D0000B39D0000B39D00006E
