:400000000080002011000000114A0100114A010080B500AF024B034A12681A6014F026FDBC760040FA46004010B5054C237833B9044B13B10448AFF300800123237010BD2A
:400040007883FF1F000000002C97010008B5064B1BB106480649AFF300800648036813B1054B03B1984708BD000000002C9701007C83FF1F0881FF1F0000000080B582B0F6
:4000800000AF62B6A54B08221A60A44B04221A6015F0C2FC15F072F815F034FA16F074F816F0ECF99D4B01221A609C4B02221A6016F0D2FE9A4B002283F85920984B0022B4
:4000C00083F85A20964B002283F85B20954B002283F85920934B002283F85A20914B002283F85B200023BB7116E00023FB710DE0BA79F8798A4913465B001344DB000344CE
:400100000B4400229A70FB790133FB71FB79172BEED9BB790133BB71BB79022BE5D90023BB7116E00023FB710DE0BA79F8797D4913465B001344DB0003440B4400229A702D
:40014000FB790133FB71FB79172BEED9BB790133BB71BB79022BE5D9052014F041FF0020202114F0ABFB704B1B78002B14D06E4B1B78202B10D80023FB7108E0FB79FA798D
:400180006949895C694AD154FB790133FB71664B1B78FA799A42F1D920200F2114F08EFB614B1B78002B14D05F4B1B780F2B10D80023FB7108E0FB79FA795B49895C5C4A28
:4001C000D154FB790133FB71574B1B78FA799A42F1D94020202114F071FB534B1B78002B14D0514B1B78202B10D80023FB7108E0FB79FA794C49895C4E4AD154FB79013388
:40020000FB71494B1B78FA799A42F1D92F200C2114F054FB444B1B78002B14D0424B1B780C2B10D80023FB7108E0FB79FA793E49895C414AD154FB790133FB713A4B1B782D
:40024000FA799A42F1D98020202114F037FB364B1B78002B14D0344B1B78202B10D80023FB7108E0FB79FA792F49895C334AD154FB790133FB712C4B1B78FA799A42F1D952
:40028000A020202114F01AFB274B1B78002B14D0254B1B78202B10D80023FB7108E0FB79FA792149895C264AD154FB790133FB711D4B1B78FA799A42F1D940F2C710022144
:4002C00014F0FCFA184B1B78012B07D1164B1A781C4B1A70144B5A781A4B5A704FF43D70022114F0EBFA104B1B78012B07D10E4B1A78154B1A700C4B5A78134B5A70602032
:40030000092114F0DBFA084B1B78092B31D8064B1B78002B2DD00023FB7122E000E100E05888FF1F8C84FF1F6885FF1F1088FF1FF484FF1F0C85FF1FD087FF1FC088FF1F2C
:400340003085FF1FEC86FF1FEC84FF1FFB790133FA790132A749895CA74AD154FB790133FB71FB79072BF1D9A24B1A78A24B1A700CE00123FB7106E0FB799F4AF979D15483
:40038000FB790133FB71FB79082BF5D940F2A620042114F093FA974B1B78042B00F29280944B1B78002B00F08D80924B1A78934B83F85C200023FB710BE0FB79FA790132EC
:4003C0008C498A5C8D490B4483F85920FB790133FB71884B1B78FA799A42EED300237B71864B93F85930DBB2012B0BD0834B93F85A30DBB2012B05D0804B93F85B30DBB238
:40040000012B01D101237B717C4B93F85930DBB2022B0BD0794B93F85A30DBB2022B05D0764B93F85B30DBB2022B03D17B7943F002037B71714B93F85930DBB2032B0BD0F3
:400440006E4B93F85A30DBB2032B05D06B4B93F85B30DBB2032B03D17B7943F004037B717B79013B062B2DD801A252F823F000BF8D04000095040000AD0400009D04000008
:40048000A5040000B5040000BD0400005C4B01221A8017E05A4B01221A8013E0584B01221A800FE0564B7C221A800BE0544B7D221A8007E0524B7F221A8003E0504B7E22A1
:4004C0001A8000BF40F2AA20042114F0F7F9494B1B78042B00F29E80464B1B78002B00F09980444B1A78474B83F85C200023FB710BE0FB79FA7901323E498A5C41490B444C
:4005000083F85920FB790133FB713A4B1B78FA799A42EED300237B713A4B93F85930DBB2012B0BD0374B93F85A30DBB2012B05D0344B93F85B30DBB2012B01D101237B71FA
:40054000304B93F85930DBB2022B0BD02D4B93F85A30DBB2022B05D02A4B93F85B30DBB2022B03D17B7943F002037B71254B93F85930DBB2032B0BD0224B93F85A30DBB2E1
:40058000032B05D01F4B93F85B30DBB2032B03D17B7943F004037B717B79013B062B39D801A252F823F000BFC5050000CD050000E5050000D5050000DD050000ED050000AA
:4005C0000D060000104B01221A8023E00E4B01221A801FE00C4B01221A801BE00A4B7C221A8017E0084B7D221A8013E0064B7F221A800FE06885FF1FFC87FF1F5888FF1F81
:400600006687FF1F8C84FF1F2E85FF1FAD4B7E221A8000BF40F2F620042114F04FF9AA4B1B78042B00F29280A74B1B78002B00F08D80A54B1A78A54B83F85C200023FB71A6
:400640000BE0FB79FA7901329F498A5C9F490B4483F85920FB790133FB719B4B1B78FA799A42EED300237B71984B93F85930DBB2012B0BD0954B93F85A30DBB2012B05D0C2
:40068000924B93F85B30DBB2012B01D101237B718E4B93F85930DBB2022B0BD08B4B93F85A30DBB2022B05D0884B93F85B30DBB2022B03D17B7943F002037B71834B93F8C8
:4006C0005930DBB2032B0BD0804B93F85A30DBB2032B05D07D4B93F85B30DBB2032B03D17B7943F004037B717B79013B062B2DD801A252F823F000BF150700001D0700007F
:4007000035070000250700002D0700003D070000450700006E4B01221A8017E06C4B01221A8013E06A4B01221A800FE0684B7C221A800BE0664B7D221A8007E0644B7F2261
:400740001A8003E0624B7E221A8000BF40F2FA20042114F0B3F85C4B1B78042B00F29280594B1B78002B00F08D80574B1A78594B83F85C200023FB710BE0FB79FA79013207
:4007800051498A5C53490B4483F85920FB790133FB714D4B1B78FA799A42EED300237B714C4B93F85930DBB2012B0BD0494B93F85A30DBB2012B05D0464B93F85B30DBB2D2
:4007C000012B01D101237B71424B93F85930DBB2022B0BD03F4B93F85A30DBB2022B05D03C4B93F85B30DBB2022B03D17B7943F002037B71374B93F85930DBB2032B0BD018
:40080000344B93F85A30DBB2032B05D0314B93F85B30DBB2032B03D17B7943F004037B717B79013B062B2DD801A252F823F000BF4D080000550800006D0800005D080000A8
:4008400065080000750800007D080000224B01221A8017E0204B01221A8013E01E4B01221A800FE01C4B7C221A800BE01A4B7D221A8007E0184B7F221A8003E0164B7E2227
:400880001A8000BF4FF4DE70022114F017F80E4B1B78012B06D10C4B5B7803F00F03DAB20E4B1A7040F2AE20112114F007F8064B1B78112B22D8044B1B78002B1ED000231E
:4008C000FB7116E02E85FF1F6885FF1FF086FF1F0C88FF1FC883FF1F4289FF1FEE86FF1FFB79FA797349895C734AD154FB790133FB71704B1B78FA799A42F1D94FF43070C8
:40090000112113F0DBFF6B4B1B78112B14D8694B1B78002B10D00023FB7108E0FB79FA796449895C654AD154FB790133FB71614B1B78FA799A42F1D940F2D120112113F05D
:40094000BDFF5C4B1B78112B14D85A4B1B78002B10D00023FB7108E0FB79FA795549895C574AD154FB790133FB71524B1B78FA799A42F1D940F25A20062113F09FFF4D4B06
:400980001B78032B07D04B4B1B78012B03D0494B1B78052B14D1474B5B7803F00F03DAB2484B5A70434B9B7803F00F03DAB2454B9A70404BDB7803F00F03DAB2414BDA70D7
:4009C0004FF41870022113F079FF3A4B1B78012B04D1384B5A783C4B1A7002E03A4BFF221A7040F26220022113F068FF314B1B78012B04D12F4B5A78334B1A7002E0324BF9
:400A0000FF221A704FF44970022113F057FF294B1B78012B04D1274B5A782C4B1A7002E02A4BFF221A7040F22630022113F046FF204B1B78012B04D11E4B5A78244B1A701E
:400A400002E0234BFF221A7040F29A20022113F035FF184B1B78012B06D1164B5B7803F00F03DAB21B4B5A7040F26520022113F025FF104B1B78012B06D10E4B5B7803F036
:400A80000F03DAB2144B5A70144B642283F86020134B642283F86020124B642283F86020114B642283F86020052014F099FA0837BD4680BD6885FF1F5487FF1FA885FF1F6B
:400AC000E887FF1F0485FF1F5888FF1FF086FF1FC883FF1FE487FF1F5488FF1FE088FF1F6C87FF1F8886FF1F2884FF1F80B5C4B000AF3B1D18600A46BB1C1A8007F10802CC
:400B00001A4B11461A464FF48073084611461A4616F0DAFB002387F80F310023A7F80C3116E0B7F80C313A1D126813441A7897F80F31534087F80B3197F80B3107F108021C
:400B4000D35C87F80F31B7F80C310133A7F80C31B7F80C21BB1C1B88013B9A42E1DB97F80F31184607F58877BD4680BD3097010080B582B000AF02460B46FA71BB80FB7968
:400B8000012B13D1BB880120194613F08FF9124B64221A70114B64221A70114B01221A70104815F06FFE15F037FF12E0BB880220194613F07BF90C4B64221A700B4B642280
:400BC0001A700B4B01221A700A4816F07BF816F007F80837BD4680BD6887FF1FEE84FF1F8486FF1FA90401005E85FF1FB985FF1FEF84FF1F1905010080B584B000AF00235E
:400C0000FB73CAE00023FB7300BF0FF097FD0346002BFAD0322014F0E3F9634B1B78DAB2614B93F85C30DBB21046194610F02AFF322014F0D5F95D4B1B78DAB25B4B93F832
:400C40005C30DBB21046194610F01CFF322014F0C7F9574B1B78DAB2554B93F85C30DBB21046194610F00EFF322014F0B9F9514B1B78DAB24F4B93F85C30DBB210461946F8
:400C800010F000FF322014F0ABF901233B70464B1B78DBB27B703B464FF41870194613F0ABFD0346002B04D001203C2113F0FEF803E00120552113F0F9F801233B703B4BF8
:400CC0001B78DBB27B703B4640F26220194613F093FD0346002B04D002203C2113F0E6F803E00220552113F0E1F801233B70304B1B78DBB27B703B464FF44970194613F08F
:400D00007BFD0346002B04D001203C2113F0CEF803E00120552113F0C9F801233B70254B1B78DBB27B703B4640F22630194613F063FD0346002B04D002203C2113F0B6F8E1
:400D400003E00220552113F0B1F81B4B00221A701A4B00221A701A4B00221A70194B00221A7002202E2113F0A1F801202E2113F09DF8154B00221A70144B00221A70144B7D
:400D800000221A70124B00225A70114B00229A700F4B0022DA700223FB73FB7B022B7FF431AF1037BD4680BD5888FF1F8C84FF1FF086FF1FC883FF1F6887FF1F5E85FF1FA9
:400DC000EE84FF1FB985FF1FEF86FF1F6285FF1FB888FF1F90B5ADF2FC5D00AF14F0ACFC0346052B46F2778114F0A6FC0346A7F8EE3540F6B83014F015F914F09DFC034609
:400E0000A7F8EC35B7F8EE25B7F8EC359A4246F0628114F091FC0346A7F8F6350023A7F8F4350DE0B7F8F44514F03AFC03461A4607F110031A55B7F8F4350133A7F8F435D6
:400E400014F07AFC0346002BECD107F110031B78BC2B46F0388107F110035B78BB2B46F0328107F110039B78B82B46F02C8107F11003DA78BE4B1B78DBB29A4218D007F180
:400E80001003DA78BB4B1B78DBB29A4210D007F11003DA78B84B1B78DBB29A4208D007F11003DA78B54B1B78DBB29A4246F00B8107F11002B7F8F63510461946FFF716FEF9
:400EC00003461A46B7F8F635013B07F11001CB5C9A4246F0F880AA4B00221A70A94BB8221A70A84BAD225A70A64BAF229A7007F11003DA78A34BDA70A34B00221A7007F101
:400F000010031B79A03B162B06F2C38001A252F823F000BFA7470000710F0000432B0000BB2B0000612F00009370000093700000D36C00006F100000471700000920000057
:400F40004D500000C1350000F13B0000F3430000C5400000F54B00007B4D0000D7520000BB5600000D580000BF5C0000B959000007F11003DA787E4B1B78DBB29A4216D19A
:400F8000804BD1221A717A4B5B78DAB27D4B5A717C480721FFF7AAFD03461A46794B9A71794B01221A700723A7F8F6355DE007F11003DA786F4B1B78DBB29A4216D1714BD8
:400FC000D1221A716B4B5B78DAB26E4B5A716D480721FFF78BFD03461A466A4B9A716A4B01221A700723A7F8F6353EE007F11003DA78614B1B78DBB29A4216D1614BD12217
:401000001A715D4B5B78DAB25E4B5A715D480721FFF76CFD03461A465A4B9A715A4B01221A700723A7F8F6351FE007F11003DA78524B1B78DBB29A4217D1524BD1221A71E7
:401040004E4B5B78DAB24F4B5A714E480721FFF74DFD03461A464B4B9A714B4B01221A700723A7F8F63506F014B806F012B807F11003DA783E4B1B78DBB29A4240F0D980A7
:40108000404BD8221A71414B9A7E3E4B5A713F4BDA7E3C4B9A710123A7F8F2350EE0B7F8F2350633B7F8F22538490A44D17E354AD154B7F8F2350133A7F8F235B7F8F2359F
:4010C000072BECD92F4B54229A730023A7F8F2351DE0B7F8F23503F10F012C4B9B7E5A1EB7F8F23503F10C04214813465B001344DB00234403449B78DBB203F00F03DAB22C
:40110000204B5A54B7F8F2350133A7F8F235B7F8F2350B2BDDD90023A7F8F2351BE0B7F8F23503F11B01194B9B7E5A1EB7F8F2450F4813465B001344DB00234403449B7861
:40114000DBB203F00F03DAB20E4B5A54B7F8F2350133A7F8F235B7F8F2350B2BDFD9094B502283F827200023A7F8F2352CE000BF5888FF1F8C84FF1FF086FF1FC883FF1F51
:401180005087FF1FBC85FF1F5285FF1FE088FF1FB7F8F23503F12801BA4B9B7E5A1EB7F8F205B94C13469B0013442344034448339B78DBB203F00F03DAB2B44B5A54B7F82B
:4011C000F2350133A7F8F235B7F8F235042BDFD9AE4B482283F82D20AD4B1A78AB4B83F82E20AB4B5A78A94B83F82F20A74B462283F83020A74B1A78A44B83F83120A54BC3
:401200005A78A24B83F83220A24B9A789F4B83F833209E483521FFF769FC03461A469B4B83F834209C4B01221A703523A7F8F63587E207F11003DA78984B1B78DBB29A421B
:4012400040F0C880914BD8221A71954B9A7E8F4B5A71934BDA7E8D4B9A710123A7F8F2350EE0B7F8F2350633B7F8F2258C490A44D17E864AD154B7F8F2350133A7F8F235FB
:40128000B7F8F235072BECD9804B54229A730023A7F8F2351DE0B7F8F23503F10F01804B9B7E5A1EB7F8F23503F10C047B4813465B001344DB00234403449B78DBB203F033
:4012C0000F03DAB2714B5A54B7F8F2350133A7F8F235B7F8F2350B2BDDD90023A7F8F2351BE0B7F8F23503F11B016D4B9B7E5A1EB7F8F245694813465B001344DB0023445D
:4013000003449B78DBB203F00F03DAB25F4B5A54B7F8F2350133A7F8F235B7F8F2350B2BDFD95A4B502283F827200023A7F8F2351BE0B7F8F23503F12801594B9B7E5A1E64
:40134000B7F8F205554C13469B0013442344034448339B78DBB203F00F03DAB24B4B5A54B7F8F2350133A7F8F235B7F8F235042BDFD9464B482283F82D20454B1A78434B3D
:4013800083F82E20424B5A78404B83F82F203F4B462283F830203F4B1A783C4B83F831203C4B5A78394B83F832203A4B9A78374B83F8332035483521FFF798FB03461A46EE
:4013C000324B83F83420344B01221A703523A7F8F635B6E107F11003DA78324B1B78DBB29A4240F0DC80294BD8221A712E4B9A7E264B5A712C4BDA7E244B9A710123A7F888
:40140000F2350EE0B7F8F2350633B7F8F22526490A44D17E1D4AD154B7F8F2350133A7F8F235B7F8F235072BECD9184B54229A730023A7F8F2351DE0B7F8F23503F10F01E7
:40144000194B9B7E5A1EB7F8F23503F10C04154813465B001344DB00234403449B78DBB203F00F03DAB2094B5A54B7F8F2350133A7F8F235B7F8F2350B2BDDD90023A7F825
:40148000F2352FE0E088FF1F5888FF1FBC85FF1FF084FF1F0888FF1F5285FF1F8C84FF1F6C87FF1FF086FF1F8886FF1FB7F8F23503F11B01BD4B9B7E5A1EB7F8F245BC4876
:4014C00013465B001344DB00234403449B78DBB203F00F03DAB2B74B5A54B7F8F2350133A7F8F235B7F8F2350B2BDFD9B14B502283F827200023A7F8F2351BE0B7F8F235F9
:4015000003F12801A94B9B7E5A1EB7F8F205A84C13469B0013442344034448339B78DBB203F00F03DAB2A34B5A54B7F8F2350133A7F8F235B7F8F235042BDFD99D4B48224F
:4015400083F82D209C4B1A789A4B83F82E209A4B5A78984B83F82F20964B462283F83020964B1A78934B83F83120944B5A78914B83F83220914B9A788E4B83F833208D4823
:401580003521FFF7B3FA03461A468A4B83F834208B4B01221A703523A7F8F635D1E007F11003DA78874B1B78DBB29A4240F0C980804BD8221A71844B9A7E7E4B5A71824B53
:4015C000DA7E7C4B9A710123A7F8F2350EE0B7F8F2350633B7F8F2257B490A44D17E754AD154B7F8F2350133A7F8F235B7F8F235072BECD96F4B54229A730023A7F8F2350C
:401600001DE0B7F8F23503F10F016F4B9B7E5A1EB7F8F23503F10C046A4813465B001344DB00234403449B78DBB203F00F03DAB2604B5A54B7F8F2350133A7F8F235B7F85F
:40164000F2350B2BDDD90023A7F8F2351BE0B7F8F23503F11B015C4B9B7E5A1EB7F8F245584813465B001344DB00234403449B78DBB203F00F03DAB24E4B5A54B7F8F235ED
:401680000133A7F8F235B7F8F2350B2BDFD9494B502283F827200023A7F8F2351BE0B7F8F23503F12801484B9B7E5A1EB7F8F205444C13469B0013442344034448339B78EC
:4016C000DBB203F00F03DAB23A4B5A54B7F8F2350133A7F8F235B7F8F235042BDFD9354B482283F82D20344B1A78324B83F82E20314B5A782F4B83F82F202E4B462283F815
:4017000030202E4B1A782B4B83F831202B4B5A78284B83F83220294B9A78264B83F8332024483521FFF7E2F903461A46214B83F83420234B01221A703523A7F8F63505F016
:40174000A8BC05F0A6BC07F11003DA781F4B1B78DBB29A4240F01681164BD9221A711C4B9A7E144B5A711A4BDA7E124B9A710123A7F8F2350EE0B7F8F2350633B7F8F225C2
:4017800013490A44D17E0B4AD154B7F8F2350133A7F8F235B7F8F235072BECD9054B54229A730023A7F8F23532E000BF8886FF1FF086FF1FBC85FF1FF084FF1F0888FF1F2D
:4017C0005285FF1FC883FF1F2884FF1F5888FF1FE088FF1FB7F8F23503F10F01A94B9B7E5A1EB7F8F23503F10C04A74813465B001344DB00234403449B78DBB203F00F03DC
:40180000DAB2A24B5A54B7F8F2350133A7F8F235B7F8F2350B2BDDD90023A7F8F2351BE0B7F8F23503F11B01964B9B7E5A1EB7F8F245954813465B001344DB00234403445C
:401840009B78DBB203F00F03DAB2904B5A54B7F8F2350133A7F8F235B7F8F2350B2BDFD98A4B502283F827200023A7F8F2351BE0B7F8F23503F12801824B9B7E5A1EB7F82D
:40188000F205814C13469B0013442344034448339B78DBB203F00F03DAB27C4B5A54B7F8F2350133A7F8F235B7F8F235042BDFD9764B482283F82D20754B1A78734B83F83F
:4018C0002E20734B5A78714B83F82F206F4B462283F830206F4B1A786C4B83F831206D4B5A786A4B83F832206A4B9A78674B83F83320664B492283F834200023A7F8F235A1
:401900000FE0B7F8F2353533B7F8F2255D490A4492F823105D4AD154B7F8F2350133A7F8F235B7F8F235072BEBD9584B4B2283F83D200023A7F8F23510E0B7F8F2353E3393
:40194000B7F8F22501324F490A4492F833104F4AD154B7F8F2350133A7F8F235B7F8F235092BEAD949484921FFF7C0F803461A46464B83F84820484B01221A704923A7F84F
:40198000F6353FE307F11003DA78444B1B78DBB29A4240F011813D4BD9221A71404B9A7E3A4B5A713E4BDA7E384B9A710123A7F8F2350EE0B7F8F2350633B7F8F225384992
:4019C0000A44D17E314AD154B7F8F2350133A7F8F235B7F8F235072BECD92C4B54229A730023A7F8F2351DE0B7F8F23503F10F012B4B9B7E5A1EB7F8F23503F10C04274803
:401A000013465B001344DB00234403449B78DBB203F00F03DAB21D4B5A54B7F8F2350133A7F8F235B7F8F2350B2BDDD90023A7F8F2351BE0B7F8F23503F11B01184B9B7EF3
:401A40005A1EB7F8F245154813465B001344DB00234403449B78DBB203F00F03DAB20B4B5A54B7F8F2350133A7F8F235B7F8F2350B2BDFD9054B502283F827200023A7F808
:401A8000F2352BE0E088FF1F5888FF1FBC85FF1FF084FF1F0888FF1F5285FF1F8C84FF1F6C87FF1FB7F8F23503F12801B54B9B7E5A1EB7F8F205B44C13469B0013442344C1
:401AC000034448339B78DBB203F00F03DAB2AF4B5A54B7F8F2350133A7F8F235B7F8F235042BDFD9A94B482283F82D20A84B1A78A64B83F82E20A64B5A78A44B83F82F20DD
:401B0000A24B462283F83020A24B1A789F4B83F83120A04B5A789D4B83F832209D4B9A789A4B83F83320994B492283F834200023A7F8F2350FE0B7F8F2353533B7F8F22537
:401B400090490A4492F82310904AD154B7F8F2350133A7F8F235B7F8F235072BEBD98B4B4B2283F83D200023A7F8F23510E0B7F8F2353E33B7F8F225013282490A4492F80F
:401B80003310824AD154B7F8F2350133A7F8F235B7F8F235092BEAD97C484921FEF7A6FF03461A46794B83F848207B4B01221A704923A7F8F63525E207F11003DA78774B6D
:401BC0001B78DBB29A4240F01281704BD9221A71734B9A7E6D4B5A71714BDA7E6B4B9A710123A7F8F2350EE0B7F8F2350633B7F8F2256B490A44D17E644AD154B7F8F23510
:401C00000133A7F8F235B7F8F235072BECD95F4B54229A730023A7F8F2351DE0B7F8F23503F10F015E4B9B7E5A1EB7F8F23503F10C045A4813465B001344DB0023440344A6
:401C40009B78DBB203F00F03DAB2504B5A54B7F8F2350133A7F8F235B7F8F2350B2BDDD90023A7F8F2351BE0B7F8F23503F11B014B4B9B7E5A1EB7F8F245484813465B003D
:401C80001344DB00234403449B78DBB203F00F03DAB23E4B5A54B7F8F2350133A7F8F235B7F8F2350B2BDFD9384B502283F827200023A7F8F2351BE0B7F8F23503F12801BA
:401CC000374B9B7E5A1EB7F8F205344C13469B0013442344034448339B78DBB203F00F03DAB22A4B5A54B7F8F2350133A7F8F235B7F8F235042BDFD9244B482283F82D20B5
:401D0000234B1A78214B83F82E20214B5A781F4B83F82F201D4B462283F830201D4B1A781A4B83F831201B4B5A78184B83F83220184B9A78154B83F83320144B492283F8E6
:401D400034200023A7F8F2350FE0B7F8F2353533B7F8F22512490A4492F823100B4AD154B7F8F2350133A7F8F235B7F8F235072BEBD9064B4B2283F83D200023A7F8F23538
:401D800021E000BF6C87FF1F8C84FF1FBC85FF1FF084FF1F0888FF1F5285FF1FF086FF1F8886FF1FB7F8F2353E33B7F8F2250132BF490A4492F83310BE4AD154B7F8F2356A
:401DC0000133A7F8F235B7F8F235092BEAD9B9484921FEF78BFE03461A46B64B83F84820B54B01221A704923A7F8F6350AE107F11003DA78B14B1B78DBB29A4240F00281D0
:401E0000AC4BD9221A71AE4B9A7EAA4B5A71AC4BDA7EA84B9A710123A7F8F2350EE0B7F8F2350633B7F8F225A5490A44D17EA14AD154B7F8F2350133A7F8F235B7F8F23519
:401E4000072BECD99B4B54229A730023A7F8F2351DE0B7F8F23503F10F01994B9B7E5A1EB7F8F23503F10C04944813465B001344DB00234403449B78DBB203F00F03DAB252
:401E80008C4B5A54B7F8F2350133A7F8F235B7F8F2350B2BDDD90023A7F8F2351BE0B7F8F23503F11B01864B9B7E5A1EB7F8F245824813465B001344DB00234403449B7888
:401EC000DBB203F00F03DAB27A4B5A54B7F8F2350133A7F8F235B7F8F2350B2BDFD9754B502283F827200023A7F8F2351BE0B7F8F23503F12801724B9B7E5A1EB7F8F205FE
:401F00006E4C13469B0013442344034448339B78DBB203F00F03DAB2664B5A54B7F8F2350133A7F8F235B7F8F235042BDFD9614B482283F82D20634B1A785E4B83F82E20C6
:401F4000604B5A785B4B83F82F205A4B462283F830205D4B1A78574B83F831205A4B5A78544B83F83220584B9A78524B83F83320504B492283F834200023A7F8F2350FE044
:401F8000B7F8F2353533B7F8F2254D490A4492F82310484AD154B7F8F2350133A7F8F235B7F8F235072BEBD9424B4B2283F83D200023A7F8F23510E0B7F8F2353E33B7F888
:401FC000F22501323E490A4492F83310394AD154B7F8F2350133A7F8F235B7F8F235092BEAD934484921FEF781FD03461A46314B83F84820304B01221A704923A7F8F635F1
:4020000005F047B805F045B807F11003DA782F4B1B78DBB29A4240F05F81264BDA221A712B4B5A7E234B5A71224B44229A71294B5B78DBB2062B1AD10023A7F8F23511E0B0
:40204000B7F8F2350733B7F8F22521490A44D27902F00F02D1B2174AD154B7F8F2350133A7F8F235B7F8F235062BE9D919E00123A7F8F23511E0B7F8F2350633B7F8F22539
:4020800013490A44D27902F00F02D1B2094AD154B7F8F2350133A7F8F235B7F8F235072BE9D9044B56229A730023A7F8F23525E08886FF1FBC85FF1F5285FF1FC883FF1FE8
:4020C0002884FF1FF084FF1F0888FF1F5888FF1FE088FF1F0485FF1FB7F8F2350F33B7F8F225B6490A44127C02F00F02D1B2B44AD154B7F8F2350133A7F8F235B7F8F235A3
:40210000062BE9D9AE4B54229A750023A7F8F2351DE0B7F8F23503F11701A84B5B7E5A1EB7F8F23503F10C04A64813465B001344DB00234403449B78DBB203F00F03DAB295
:402140009F4B5A54B7F8F2350133A7F8F235B7F8F2350B2BDDD90023A7F8F2351BE0B7F8F23503F12301954B5B7E5A1EB7F8F245944813465B001344DB00234403449B78C9
:40218000DBB203F00F03DAB28D4B5A54B7F8F2350133A7F8F235B7F8F2350B2BDFD9884B502283F82F200023A7F8F2351BE0B7F8F23503F13001814B5B7E5A1EB7F8F20536
:4021C000804C13469B0013442344034448339B78DBB203F00F03DAB2794B5A54B7F8F2350133A7F8F235B7F8F235052BDFD9744B482283F83520744B1A78714B83F8362097
:40220000714B5A786E4B83F837206D4B462283F838206E4B1A786A4B83F839206B4B5A78674B83F83A20694B9A78654B83F83B20634B502283F83C200123A7F8F2350FE093
:40224000B7F8F2353C33B7F8F2255C490A4492F83E105B4AD154B7F8F2350133A7F8F235B7F8F235082BEBD9554B492283F84420524B93F84720524B83F84520504B4B2223
:4022800083F846200023A7F8F23510E0B7F8F2354733B7F8F225013248490A4492F83310474AD154B7F8F2350133A7F8F235B7F8F235092BEAD942485221FEF717FC0346CE
:4022C0001A463F4B83F85120414B01221A705223A7F8F63500F033BC07F11003DA783D4B1B78DBB29A4240F05D81354BDA221A71394B5A7E324B5A71314B44229A71374BA8
:402300005B78DBB2062B1AD10023A7F8F23511E0B7F8F2350733B7F8F2252F490A44D27902F00F02D1B2264AD154B7F8F2350133A7F8F235B7F8F235062BE9D919E001238F
:40234000A7F8F23511E0B7F8F2350633B7F8F22521490A44D27902F00F02D1B2184AD154B7F8F2350133A7F8F235B7F8F235072BE9D9134B56229A730023A7F8F23511E06A
:40238000B7F8F2350F33B7F8F22513490A44127C02F00F02D1B20A4AD154B7F8F2350133A7F8F235B7F8F235062BE9D9044B54229A750023A7F8F23530E000BFE088FF1F5D
:4023C000BC85FF1F5888FF1FF084FF1F0888FF1F5285FF1F8C84FF1F6C87FF1F0485FF1FB7F8F23503F11701BA4B5B7E5A1EB7F8F23503F10C04B84813465B001344DB006D
:40240000234403449B78DBB203F00F03DAB2B34B5A54B7F8F2350133A7F8F235B7F8F2350B2BDDD90023A7F8F2351BE0B7F8F23503F12301A74B5B7E5A1EB7F8F245A64896
:4024400013465B001344DB00234403449B78DBB203F00F03DAB2A14B5A54B7F8F2350133A7F8F235B7F8F2350B2BDFD99B4B502283F82F200023A7F8F2351BE0B7F8F2358D
:4024800003F13001934B5B7E5A1EB7F8F205924C13469B0013442344034448339B78DBB203F00F03DAB28D4B5A54B7F8F2350133A7F8F235B7F8F235052BDFD9874B48224F
:4024C00083F83520864B1A78844B83F83620844B5A78824B83F83720804B462283F83820804B1A787D4B83F839207E4B5A787B4B83F83A207B4B9A78784B83F83B20774B61
:40250000502283F83C200123A7F8F2350FE0B7F8F2353C33B7F8F2256E490A4492F83E106E4AD154B7F8F2350133A7F8F235B7F8F235082BEBD9694B492283F84420654B69
:4025400093F84720654B83F84520644B4B2283F846200023A7F8F23510E0B7F8F2354733B7F8F22501325B490A4492F833105B4AD154B7F8F2350133A7F8F235B7F8F2358B
:40258000092BEAD955485221FEF7B0FA03461A46524B83F85120544B01221A705223A7F8F635CCE207F11003DA78504B1B78DBB29A4240F05D81494BDA221A714C4B5A7E7E
:4025C000464B5A71454B44229A714A4B5B78DBB2062B1AD10023A7F8F23511E0B7F8F2350733B7F8F22542490A44D27902F00F02D1B23A4AD154B7F8F2350133A7F8F2359A
:40260000B7F8F235062BE9D919E00123A7F8F23511E0B7F8F2350633B7F8F22534490A44D27902F00F02D1B22C4AD154B7F8F2350133A7F8F235B7F8F235072BE9D9274BE5
:4026400056229A730023A7F8F23511E0B7F8F2350F33B7F8F22526490A44127C02F00F02D1B21E4AD154B7F8F2350133A7F8F235B7F8F235062BE9D9184B54229A7500231B
:40268000A7F8F2351DE0B7F8F23503F11701184B5B7E5A1EB7F8F23503F10C04134813465B001344DB00234403449B78DBB203F00F03DAB2094B5A54B7F8F2350133A7F81C
:4026C000F235B7F8F2350B2BDDD90023A7F8F2352EE000BF6C87FF1F8C84FF1FBC85FF1FF084FF1F0888FF1F5285FF1FF086FF1F8886FF1F0485FF1FB7F8F23503F1230113
:40270000BB4B5B7E5A1EB7F8F245BA4813465B001344DB00234403449B78DBB203F00F03DAB2B54B5A54B7F8F2350133A7F8F235B7F8F2350B2BDFD9AF4B502283F82F201D
:402740000023A7F8F2351BE0B7F8F23503F13001A74B5B7E5A1EB7F8F205A64C13469B0013442344034448339B78DBB203F00F03DAB2A14B5A54B7F8F2350133A7F8F23590
:40278000B7F8F235052BDFD99B4B482283F835209A4B1A78984B83F83620984B5A78964B83F83720944B462283F83820944B1A78914B83F83920924B5A788F4B83F83A200F
:4027C0008F4B9A788C4B83F83B208B4B502283F83C200123A7F8F2350FE0B7F8F2353C33B7F8F22582490A4492F83E10824AD154B7F8F2350133A7F8F235B7F8F235082B82
:40280000EBD97D4B492283F84420794B93F84720794B83F84520784B4B2283F846200023A7F8F23510E0B7F8F2354733B7F8F22501326F490A4492F833106F4AD154B7F8D5
:40284000F2350133A7F8F235B7F8F235092BEAD969485221FEF74AF903461A46664B83F85120684B01221A705223A7F8F63566E107F11003DA78644B1B78DBB29A4240F0AA
:402880005E815D4BDA221A71604B5A7E5A4B5A71594B44229A715E4B5B78DBB2062B1AD10023A7F8F23511E0B7F8F2350733B7F8F22556490A44D27902F00F02D1B24E4AD7
:4028C000D154B7F8F2350133A7F8F235B7F8F235062BE9D919E00123A7F8F23511E0B7F8F2350633B7F8F22548490A44D27902F00F02D1B2404AD154B7F8F2350133A7F869
:40290000F235B7F8F235072BE9D93B4B56229A730023A7F8F23511E0B7F8F2350F33B7F8F2253A490A44127C02F00F02D1B2324AD154B7F8F2350133A7F8F235B7F8F235B7
:40294000062BE9D92C4B54229A750023A7F8F2351DE0B7F8F23503F117012C4B5B7E5A1EB7F8F23503F10C04274813465B001344DB00234403449B78DBB203F00F03DAB2CA
:402980001D4B5A54B7F8F2350133A7F8F235B7F8F2350B2BDDD90023A7F8F2351BE0B7F8F23503F12301194B5B7E5A1EB7F8F245154813465B001344DB00234403449B78FE
:4029C000DBB203F00F03DAB20B4B5A54B7F8F2350133A7F8F235B7F8F2350B2BDFD9064B502283F82F200023A7F8F2352EE000BF8886FF1FF086FF1FBC85FF1FF084FF1F2D
:402A00000888FF1F5285FF1FC883FF1F2884FF1F0485FF1FB7F8F23503F13001C64B5B7E5A1EB7F8F205C54C13469B0013442344034448339B78DBB203F00F03DAB2C04B55
:402A40005A54B7F8F2350133A7F8F235B7F8F235052BDFD9BA4B482283F83520B94B1A78B74B83F83620B74B5A78B54B83F83720B34B462283F83820B34B1A78B04B83F88D
:402A80003920B14B5A78AE4B83F83A20AE4B9A78AB4B83F83B20AA4B502283F83C200123A7F8F2350FE0B7F8F2353C33B7F8F225A1490A4492F83E10A14AD154B7F8F23532
:402AC0000133A7F8F235B7F8F235082BEBD99C4B492283F84420984B93F84720984B83F84520974B4B2283F846200023A7F8F23510E0B7F8F2354733B7F8F22501328E491D
:402B00000A4492F833108E4AD154B7F8F2350133A7F8F235B7F8F235092BEAD988485221FDF7E4FF03461A46854B83F85120874B01221A705223A7F8F63504F0AABA04F057
:402B4000A8BA07F110035A797E4B1A7007F110039A797C4B5A7007F11003DA797A4B1A7007F110031A7A784B5A7007F110035A7A754B9A70724BD2221A71714B04225A71A8
:402B80006F480721FDF7B2FF03461A466C4B9A7111F0B8FD0346012B07D111F0EFFD0346012B02D1664B03225A71684B01221A700723A7F8F63504F06CBA0523A7F8F235F1
:402BC0000123A7F8F43512E0B7F8F435B7F8F22507F11001895C5E4AD154B7F8F2350133A7F8F235B7F8F4350133A7F8F435B7F8F23507F11002D35C2A2BE5D1B7F8F43508
:402C0000DBB2013BDAB2524B1A700020504911F0F3FDB7F8F2350133A7F8F2350123A7F8F43512E0B7F8F435B7F8F22507F11001895C484AD154B7F8F2350133A7F8F235AD
:402C4000B7F8F4350133A7F8F435B7F8F23507F11002D35C2A2BE5D1B7F8F435DBB2013BDAB23C4B1A7040203A4911F0C5FDB7F8F2350133A7F8F2350123A7F8F43512E0D4
:402C8000B7F8F435B7F8F22507F11001895C324AD154B7F8F2350133A7F8F235B7F8F4350133A7F8F435B7F8F23507F11002D35C2A2BE5D1B7F8F435DBB2013BDAB2264B8B
:402CC0001A702F20244911F097FDB7F8F2350133A7F8F2350123A7F8F43512E0B7F8F435B7F8F22507F11001895C1C4AD154B7F8F2350133A7F8F235B7F8F4350133A7F8B9
:402D0000F435B7F8F23507F11002D35C2A2BE5D1B7F8F435DBB2013BDAB2104B1A7020200E4911F069FDB7F8F2350133A7F8F2350123A7F8F43526E02884FF1FC883FF1F4B
:402D4000BC85FF1FF084FF1F0888FF1F5285FF1F1088FF1F0C85FF1FD087FF1FF484FF1FB7F8F435B7F8F22507F11001895C754AD154B7F8F2350133A7F8F235B7F8F43537
:402D80000133A7F8F435B7F8F23507F11002D35C2A2BE5D1B7F8F435DBB2013BDAB2694B1A7040F2AE20674911F026FDB7F8F2350133A7F8F2350123A7F8F43512E0B7F861
:402DC000F435B7F8F22507F11001895C5E4AD154B7F8F2350133A7F8F235B7F8F4350133A7F8F435B7F8F23507F11002D35C2A2BE5D1B7F8F435DBB2013BDAB2524B1A7017
:402E00004FF43070504911F0F7FCB7F8F2350133A7F8F2350123A7F8F43512E0B7F8F435B7F8F22507F11001895C484AD154B7F8F2350133A7F8F235B7F8F4350133A7F8B6
:402E4000F435B7F8F23507F11002D35C2A2BE5D1B7F8F435DBB2013BDAB23C4B1A7040F2D1203A4911F0C8FCB7F8F2350133A7F8F2350123A7F8F43512E0B7F8F435B7F831
:402E8000F22507F11001895C314AD154B7F8F2350133A7F8F235B7F8F4350133A7F8F435B7F8F23507F11002D35C2A2BE5D1284B01221A7040F2C710254911F09DFCB7F8CF
:402EC000F2350133A7F8F2350123A7F8F43514E0B7F8F435B7F8F22507F110018A5C303AD1B21C4AD154B7F8F2350133A7F8F235B7F8F4350133A7F8F435B7F8F23507F15A
:402F00001002D35C2A2BE3D1124B01221A704FF43D70104911F070FC0F4BD3221A710E4B03225A710C480721FDF7E0FD03461A46094B9A71094B01221A700723A7F8F6351A
:402F400004F0A7B85487FF1FA885FF1FE887FF1FEC86FF1FEC84FF1FBC85FF1F5285FF1F07F110035B7903F00F03DAB2B34B5A7007F11003DB7903F00F03DAB2AF4B9A708F
:402F800007F110035B7A03F00F03DAB2AB4BDA70AA4B03221A7040F25A20A84911F02CFC07F11003DA78A64B1B78DBB29A4240F0AC8007F11003DB7A03F00F03DAB2A04B74
:402FC00083F85C209E4B93F85C30DAB23B461A7007F110035B7B03F00F03DAB2984B83F85920974B93F85930DAB23B465A7007F11003DB7B03F00F03DAB2914B83F85A206A
:403000008F4B93F85A30DAB23B469A7007F110035B7C03F00F03DAB2894B83F85B20884B93F85B30DAB23B46DA703B4640F2A620194611F0E1FB0023A7F8F4353B465B7819
:40304000012B07D03B469B78012B03D03B46DB78012B02D10123A7F8F4353B465B78022B07D03B469B78022B03D03B46DB78022B05D1B7F8F43543F00203A7F8F4353B46DF
:403080005B78032B07D03B469B78032B03D03B46DB78032B05D1B7F8F43543F00403A7F8F435B7F8F435013B062B00F25D8201A252F823F0D1300000D9300000F1300000B0
:4030C000E1300000E9300000F9300000013100005C4B01221A8017E05A4B01221A8013E0584B01221A800FE0564B7C221A800BE0544B7D221A8007E0524B7F221A8003E00E
:40310000504B7E221A8000BF2EE207F11003DA784D4B1B78DBB29A4240F0B58007F11003DB7A03F00F03DAB2474B83F85C20464B93F85C30DAB23B461A7007F110035B7BFB
:4031400003F00F03DAB2404B83F859203E4B93F85930DAB23B465A7007F11003DB7B03F00F03DAB2384B83F85A20374B93F85A30DAB23B469A7007F110035B7C03F00F03CC
:40318000DAB2314B83F85B202F4B93F85B30DAB23B46DA703B4640F2AA20194611F02CFB0023A7F8F4353B465B78012B07D03B469B78012B03D03B46DB78012B02D101235A
:4031C000A7F8F4353B465B78022B07D03B469B78022B03D03B46DB78022B05D1B7F8F43543F00203A7F8F4353B465B78032B07D03B469B78032B03D03B46DB78032B05D1A6
:40320000B7F8F43543F00403A7F8F435B7F8F435013B062B00F2A88101A252F823F000BF4D320000553200006D3200005D32000065320000753200007D3200000485FF1FCD
:403240005888FF1F6687FF1F8C84FF1F694B01221A8017E0674B01221A8013E0654B01221A800FE0634B7C221A800BE0614B7D221A8007E05F4B7F221A8003E05D4B7E2244
:403280001A8000BF70E107F11003DA785A4B1B78DBB29A4240F0B48007F11003DB7A03F00F03DAB2544B83F85C20534B93F85C30DAB23B461A7007F110035B7B03F00F0349
:4032C000DAB24D4B83F859204B4B93F85930DAB23B465A7007F11003DB7B03F00F03DAB2454B83F85A20444B93F85A30DAB23B469A7007F110035B7C03F00F03DAB23E4B07
:4033000083F85B203C4B93F85B30DAB23B46DA703B4640F2F620194611F06EFA0023A7F8F4353B465B78012B07D03B469B78012B03D03B46DB78012B02D10123A7F8F4357E
:403340003B465B78022B07D03B469B78022B03D03B46DB78022B05D1B7F8F43543F00203A7F8F4353B465B78032B07D03B469B78032B03D03B46DB78032B05D1B7F8F43514
:4033800043F00403A7F8F435B7F8F435013B062B00F2EA8001A252F823F000BFB9330000C1330000D9330000C9330000D1330000E1330000E9330000104B01221A8017E080
:4033C0000E4B01221A8013E00C4B01221A800FE00A4B7C221A800BE0084B7D221A8007E0064B7F221A8003E0044B7E221A8000BFBAE000BF2E85FF1FF086FF1F0C88FF1FAF
:4034000007F11003DA78B24B1B78DBB29A4240F0AB8007F11003DB7A03F00F03DAB2AC4B83F85C20AA4B93F85C30DAB23B461A7007F110035B7B03F00F03DAB2A44B83F87D
:403440005920A34B93F85930DAB23B465A7007F11003DB7B03F00F03DAB29D4B83F85A209B4B93F85A30DAB23B469A7007F110035B7C03F00F03DAB2954B83F85B20944BF1
:4034800093F85B30DAB23B46DA703B4640F2FA20194611F0B1F90023A7F8F4353B465B78012B07D03B469B78012B03D03B46DB78012B02D10123A7F8F4353B465B78022BB3
:4034C00007D03B469B78022B03D03B46DB78022B05D1B7F8F43543F00203A7F8F4353B465B78032B07D03B469B78032B03D03B46DB78032B05D1B7F8F43543F00403A7F83B
:40350000F435B7F8F435013B062B2DD801A252F823F000BF31350000393500005135000041350000493500005935000061350000684B01221A8017E0664B01221A8013E01F
:40354000644B01221A800FE0624B7C221A800BE0604B7D221A8007E05E4B7F221A8003E05C4B7E221A8000BF07F11003DB7C03F00F03DAB2584B1A703B4601221A70564BFF
:403580001B78DAB23B465A703B464FF4DE70194611F032F9514BD4221A71504B03225A714E480721FDF7A2FA03461A464B4B9A714B4B01221A700723A7F8F63503F069BD74
:4035C000464BDC221A71454B31225A7107F11003DA78444B1B78DBB29A4240F0BB800023A7F8F23513E0B7F8F2350633B7F8F2250C323C490A449278D2B202F00F02D1B2DA
:40360000364AD154B7F8F2350133A7F8F235B7F8F2350B2BE7D90023A7F8F23512E0B7F8F2351233B7F8F2252E490A449278D2B202F00F02D1B2294AD154B7F8F235013312
:40364000A7F8F235B7F8F2350B2BE8D9234B32229A770023A7F8F23513E0B7F8F2351F33B7F8F2250C321F490A44927ED2B202F00F02D1B2194AD154B7F8F2350133A7F8DB
:40368000F235B7F8F2350B2BE7D90023A7F8F23512E0B7F8F2352B33B7F8F22511490A44927ED2B202F00F02D1B20C4AD154B7F8F2350133A7F8F235B7F8F2350B2BE8D968
:4036C000064B332283F837200023A7F8F23520E0C883FF1F4289FF1FEE86FF1FBC85FF1F5285FF1F5888FF1FB7F8F2353833B7F8F2250C32C3490A4492F83220D2B202F042
:403700000F02D1B2C04AD154B7F8F2350133A7F8F235B7F8F2350B2BE6D90023A7F8F23513E0B7F8F2354433B7F8F225B5490A4492F83220D2B202F00F02D1B2B24AD154E9
:40374000B7F8F2350133A7F8F235B7F8F2350B2BE7D92FE207F11003DA78AC4B1B78DBB29A4240F0AF800023A7F8F23513E0B7F8F2350633B7F8F2250C32A4490A449278B9
:40378000D2B202F00F02D1B29F4AD154B7F8F2350133A7F8F235B7F8F2350B2BE7D90023A7F8F23512E0B7F8F2351233B7F8F22596490A449278D2B202F00F02D1B2924A7C
:4037C000D154B7F8F2350133A7F8F235B7F8F2350B2BE8D98C4B32229A770023A7F8F23513E0B7F8F2351F33B7F8F2250C3287490A44927ED2B202F00F02D1B2824AD1549A
:40380000B7F8F2350133A7F8F235B7F8F2350B2BE7D90023A7F8F23512E0B7F8F2352B33B7F8F22579490A44927ED2B202F00F02D1B2754AD154B7F8F2350133A7F8F23539
:40384000B7F8F2350B2BE8D96F4B332283F837200023A7F8F23514E0B7F8F2353833B7F8F2250C3269490A4492F83220D2B202F00F02D1B2644AD154B7F8F2350133A7F816
:40388000F235B7F8F2350B2BE6D90023A7F8F23513E0B7F8F2354433B7F8F2255B490A4492F83220D2B202F00F02D1B2564AD154B7F8F2350133A7F8F235B7F8F2350B2BAE
:4038C000E7D977E107F11003DA78514B1B78DBB29A4240F0B8800023A7F8F23513E0B7F8F2350633B7F8F2250C3249490A449278D2B202F00F02D1B2434AD154B7F8F235E8
:403900000133A7F8F235B7F8F2350B2BE7D90023A7F8F23512E0B7F8F2351233B7F8F2253B490A449278D2B202F00F02D1B2364AD154B7F8F2350133A7F8F235B7F8F235D4
:403940000B2BE8D9304B32229A770023A7F8F23513E0B7F8F2351F33B7F8F2250C322C490A44927ED2B202F00F02D1B2264AD154B7F8F2350133A7F8F235B7F8F2350B2B1A
:40398000E7D90023A7F8F23512E0B7F8F2352B33B7F8F2251E490A44927ED2B202F00F02D1B2194AD154B7F8F2350133A7F8F235B7F8F2350B2BE8D9134B332283F83720F9
:4039C0000023A7F8F23514E0B7F8F2353833B7F8F2250C320E490A4492F83220D2B202F00F02D1B2084AD154B7F8F2350133A7F8F235B7F8F2350B2BE6D90023A7F8F2351F
:403A00001CE000BF5888FF1FBC85FF1F8C84FF1FF086FF1FB7F8F2354433B7F8F22570490A4492F83220D2B202F00F02D1B26D4AD154B7F8F2350133A7F8F235B7F8F2352A
:403A40000B2BE7D9B6E007F11003DA78664B1B78DBB29A4240F0AE800023A7F8F23513E0B7F8F2350633B7F8F2250C325E490A449278D2B202F00F02D1B25A4AD154B7F8E2
:403A8000F2350133A7F8F235B7F8F2350B2BE7D90023A7F8F23512E0B7F8F2351233B7F8F22551490A449278D2B202F00F02D1B24C4AD154B7F8F2350133A7F8F235B7F827
:403AC000F2350B2BE8D9474B32229A770023A7F8F23513E0B7F8F2351F33B7F8F2250C3241490A44927ED2B202F00F02D1B23D4AD154B7F8F2350133A7F8F235B7F8F23565
:403B00000B2BE7D90023A7F8F23512E0B7F8F2352B33B7F8F22534490A44927ED2B202F00F02D1B22F4AD154B7F8F2350133A7F8F235B7F8F2350B2BE8D92A4B332283F855
:403B400037200023A7F8F23514E0B7F8F2353833B7F8F2250C3224490A4492F83220D2B202F00F02D1B21F4AD154B7F8F2350133A7F8F235B7F8F2350B2BE6D90023A7F840
:403B8000F23513E0B7F8F2354433B7F8F22516490A4492F83220D2B202F00F02D1B2114AD154B7F8F2350133A7F8F235B7F8F2350B2BE7D90B4B342283F8502009485221CE
:403BC000FCF794FF03461A46064B83F85120074B01221A705223A7F8F63503F05ABA00BFF086FF1FBC85FF1FC883FF1F5285FF1F07F110039B79303BDAB23B461A7007F1EB
:403C00001003DB79303BDAB23B465A7007F110031B7A303BDAB23B469A7007F110035B7A303BDAB23B46DA7007F110039B7A303BDAB23B461A7107F11003D97807F110038D
:403C40005B793A46084611461A460DF0F1FD0346012B40F031828F4BDD221A718D4B03225A718C480721FCF741FF03461A46894B9A71894B01221A700723A7F8F63507F158
:403C80001003DA78854B1B78DBB29A427CD107F110035B795A1E3B461978804813469B001344034448330A469A7007F110035B795A1E3B465978794813469B0013440344F2
:403CC00049330A469A7007F110035B795A1E3B469978724813469B00134403444A330A469A7007F110035B795A1E3B46D9786B4813469B00134403444B330A469A7007F1A4
:403D000010035B795A1E3B461979644813469B00134403444C330A469A703B461A793B465A713B46DA783B461A713B469A783B46DA703B465A783B469A703B461A783B46EB
:403D40005A703B4605221A7007F110035B79022B0BD0032B10D0012B00D0ADE13B4640F2A710194610F048FD0DE03B4640F2AD10194610F041FD06E03B4640F2B310194605
:403D800010F03AFD00BF97E107F11003DA78444B1B78DBB29A4240F0858007F110035B795A1E3B4619783E4813469B001344034448330A469A7007F110035B795A1E3B464A
:403DC0005978374813469B001344034449330A469A7007F110035B795A1E3B469978304813469B00134403444A330A469A7007F110035B795A1E3B46D978294813469B00B3
:403E0000134403444B330A469A7007F110035B795A1E3B461979224813469B00134403444C330A469A703B461A793B465A713B46DA783B461A713B469A783B46DA703B46AF
:403E40005A783B469A703B461A783B465A703B4605221A7007F110035B79022B0BD0032B10D0012B00D027E13B4640F2E220194610F0C2FC0DE03B464FF43A70194610F0D0
:403E8000BBFC06E03B4640F2EE20194610F0B4FC00BF11E1BC85FF1F5285FF1F5888FF1F8C84FF1F07F11003DA78844B1B78DBB29A427CD107F110035B795A1E3B46197886
:403EC0007E4813469B001344034448330A469A7007F110035B795A1E3B465978774813469B001344034449330A469A7007F110035B795A1E3B469978704813469B001344D9
:403F000003444A330A469A7007F110035B795A1E3B46D978694813469B00134403444B330A469A7007F110035B795A1E3B461979624813469B00134403444C330A469A70A0
:403F40003B461A793B465A713B46DA783B461A713B469A783B46DA703B465A783B469A703B461A783B465A703B4605221A7007F110035B79022B0BD0032B10D0012B00D045
:403F80009AE03B464FF44070194610F035FC0DE03B4640F20630194610F02EFC06E03B464FF44370194610F027FC00BF84E007F11003DA78424B1B78DBB29A427CD107F1F7
:403FC00010035B795A1E3B4619783D4813469B001344034448330A469A7007F110035B795A1E3B465978364813469B001344034449330A469A7007F110035B795A1E3B46FD
:4040000099782F4813469B00134403444A330A469A7007F110035B795A1E3B46D978284813469B00134403444B330A469A7007F110035B795A1E3B461979214813469B00C5
:40404000134403444C330A469A703B461A793B465A713B46DA783B461A713B469A783B46DA703B465A783B469A703B461A783B465A703B4605221A7007F110035B79022BB2
:404080000CD0032B11D0012B01D003F002B83B4640F21230194610F0AFFB0DE03B464FF44670194610F0A8FB06E03B4640F21E30194610F0A1FB00BF02F0EBBFF086FF1F33
:4040C000C883FF1F904BDF221A7107F110035A798D4B5A7107F11003DA788C4B1B78DBB29A4255D107F110035B795A1E874913469B0013440B4448339B78DBB203F00F0338
:40410000DAB2814B9A7107F110035B795A1E7F4913469B0013440B4449339B78DBB203F00F03DAB2784BDA7107F110035B795A1E764913469B0013440B444A339B78DBB2DB
:4041400003F00F03DAB2704B1A7207F110035B795A1E6E4913469B0013440B444B339B78DBB203F00F03DAB2674B5A7207F110035B795A1E654913469B0013440B444C3374
:404180009B78DBB203F00F03DAB25F4B9A7220E107F11003DA785E4B1B78DBB29A4255D107F110035B795A1E594913469B0013440B4448339B78DBB203F00F03DAB2524B13
:4041C0009A7107F110035B795A1E514913469B0013440B4449339B78DBB203F00F03DAB2494BDA7107F110035B795A1E484913469B0013440B444A339B78DBB203F00F03F9
:40420000DAB2414B1A7207F110035B795A1E404913469B0013440B444B339B78DBB203F00F03DAB2384B5A7207F110035B795A1E374913469B0013440B444C339B78DBB2D2
:4042400003F00F03DAB2304B9A72C2E007F11003DA78304B1B78DBB29A425DD107F110035B795A1E2B4913469B0013440B4448339B78DBB203F00F03DAB2234B9A7107F100
:4042800010035B795A1E234913469B0013440B4449339B78DBB203F00F03DAB21A4BDA7107F110035B795A1E1A4913469B0013440B444A339B78DBB203F00F03DAB2124BDD
:4042C0001A7207F110035B795A1E124913469B0013440B444B339B78DBB203F00F03DAB2094B5A7207F110035B795A1E094913469B0013440B444C339B78DBB203F00F03B0
:40430000DAB2014B9A7264E0BC85FF1F5888FF1F8C84FF1FF086FF1F07F11003DA78B84B1B78DBB29A4254D107F110035B795A1EB34913469B0013440B4448339B78DBB2AD
:4043400003F00F03DAB2AF4B9A7107F110035B795A1EAB4913469B0013440B4449339B78DBB203F00F03DAB2A64BDA7107F110035B795A1EA24913469B0013440B444A3380
:404380009B78DBB203F00F03DAB29E4B1A7207F110035B795A1E9A4913469B0013440B444B339B78DBB203F00F03DAB2954B5A7207F110035B795A1E914913469B001344AC
:4043C0000B444C339B78DBB203F00F03DAB28D4B9A728C480C21FCF789FB03461A46894BDA72894B01221A700C23A7F8F63502F050BE07F11003DB7818460CF053F90346D2
:40440000072B40F0AF810A2010F0EAFD07F11003DA793B465A7007F110031A7A3B469A7007F110035A7A3B46DA7007F110039B79012B1CD13B462E221A7107F110039A7AA9
:404440003B465A7107F11003DA7A3B469A7107F110031A7B3B46DA7107F110035A7B3B461A7207F110039A7B3B465A7218E007F110039A7A3B461A7107F11003DA7A3B463C
:404480005A7107F110031A7B3B469A7107F110035A7B3B46DA7107F110039A7B3B461A72012387F8F13507F11003DA78574B1B78DBB29A420FD1564B93F84830022B51D195
:4044C00007F110035A79524B9B7E9A424AD0002387F8F13546E007F11003DA784D4B1B78DBB29A420FD14C4B93F84830022B39D107F110035A79484B9B7E9A4232D0002317
:4045000087F8F1352EE007F11003DA78434B1B78DBB29A420FD1424B93F84830022B21D107F110035A793E4B9B7E9A421AD0002387F8F13516E007F11003DA78304B1B78E3
:40454000DBB29A420ED1374B93F84830022B09D107F110035A79334B9B7E9A4202D0002387F8F13597F8F135012B40F0E58007F11003D87807F11003597907F110039B79AF
:404580003A460CF017FD0346012B40F095800A2010F026FD07F11003DB7843F01003DBB2184610F02BFF07F11003DA78174B1B78DBB29A420DD1154B0B225A701A4B0B2229
:4045C0001A701A4B00221A7001202E210FF06EFC5DE007F11003DA780E4B1B78DBB29A422AD10C4B0B225A70114B0B221A70114B00221A7002202E210FF058FC47E000BF4A
:40460000C883FF1FBC85FF1F5285FF1F5888FF1FE088FF1F8C84FF1F6C87FF1FF086FF1F8886FF1F2884FF1F6887FF1FEF86FF1F5E85FF1F6285FF1F07F11003DA78A84B7A
:404640001B78DBB29A420DD1A54B0B225A70A54B0B221A70A44B00221A7001202E210FF025FC14E007F11003DA78A04B1B78DBB29A420CD19D4B0B225A709D4B0B221A7014
:404680009C4B00221A7002202E210FF00FFC9A4BDE221A71984B03225A7197480721FCF725FA03461A46944B9A71944B01221A700723A7F8F63574E007F11003DA78904BF1
:4046C0001B78DBB29A4207D18D4B01225A7001205521FCF74DFA64E007F11003DA78894B1B78DBB29A4207D1864B01225A7002205521FCF73DFA54E007F11003DA78784B33
:404700001B78DBB29A4207D1754B01225A7001205521FCF72DFA44E007F11003DA78734B1B78DBB29A423CD1704B01225A7002205521FCF71DFA34E06F4BDE221A716E4BA3
:4047400004225A716C480721FCF7D0F903461A46694B9A71694B01221A700723A7F8F63502F097BC07F11003DB7818460BF09AFF0346092B15D1604BDE221A715E4B0322F7
:404780005A715D480721FCF7B1F903461A465A4B9A715A4B01221A700723A7F8F63502F078BC02F076BC544BD0221A71524B03225A7151480721FCF799F903461A464E4BAA
:4047C0009A714E4B00221A700723A7F8F6350023A7F8F2350BE0B7F8F235474AD35C184611F032F8B7F8F2350133A7F8F235B7F8F225B7F8F6359A42EDD307F11003DA7819
:404800003F4B1B78DBB29A4240F086803C4B5B78DBB20B2B1DD03C4B00221A7012F044F812F00AF9304B00221A70354B5B78DBB2192B04D0324B5B78DBB21B2B06D1012002
:404840002E210FF033FB314B00221A702C4B01225A702F4B5B78DAB22E4B5B781046002140F2AF320FF06EF92A4B5B7818461B2110F094F8274B5B781846402110F08EF823
:40488000244B5B7818460A2110F088F8214B5B7818460A2110F082F80023A7F8F23510E01C4B5A78B7F8F235073307F11001CB5C1046194610F072F8B7F8F2350133A7F851
:4048C000F235B7F8F22507F110035B79194607F110039B791B020B439A42E1D302F0D9BBF086FF1FEE84FF1FEF86FF1FC883FF1FB985FF1F6285FF1FBC85FF1F5285FF1F18
:404900005888FF1F8C84FF1F6887FF1FB888FF1FEC86FF1FE487FF1F07F11003DA78A94B1B78DBB29A4269D1A64B5B78DBB20B2B1DD0A54B00221A7012F0D6F912F060F904
:40494000A24B00221A709F4B5B78DBB2192B04D09C4B5B78DBB21B2B06D102202E210FF0A5FA9B4B00225A70964B01225A70994B5B78DAB2984B5B781046002140F2AF32A6
:404980000FF0E0F8944B5B7818461B2110F006F8914B5B781846402110F000F88E4B5B7818460A210FF0FAFF8B4B5B7818460A210FF0F4FF0023A7F8F23510E0864B5A78A3
:4049C000B7F8F235073307F11001CB5C104619460FF0E4FFB7F8F2350133A7F8F235B7F8F22507F110035B79194607F110039B791B020B439A42E1D302F04BBB07F11003EF
:404A0000DA78764B1B78DBB29A4269D1734B5B78DBB20B2B1DD0724B00221A7011F044FF12F00AF86F4B00221A706C4B5B78DBB2192B04D0694B5B78DBB21B2B06D1012054
:404A40002E210FF033FA624B00229A70634B01225A70604B5B78DAB2634B5B781046002140F2AF320FF06EF85F4B5B7818461B210FF094FF5C4B5B78184640210FF08EFF5F
:404A8000594B5B7818460A210FF088FF564B5B7818460A210FF082FF0023A7F8F23510E0514B5A78B7F8F235073307F11001CB5C104619460FF072FFB7F8F2350133A7F89E
:404AC000F235B7F8F22507F110035B79194607F110039B791B020B439A42E1D302F0D9BA07F11003DA78414B1B78DBB29A4267D13E4B5B78DBB20B2B1DD03D4B00221A708F
:404B000012F0F2F812F07CF8304B00221A70374B5B78DBB2192B04D0344B5B78DBB21B2B06D102202E210FF0C1F9294B0022DA702E4B01225A70274B5B78DAB2264B5B7871
:404B40001046002140F2AF320EF0FCFF224B5B7818461B210FF022FF1F4B5B78184640210FF01CFF1C4B5B7818460A210FF016FF194B5B7818460A210FF010FF0023A7F83B
:404B8000F23510E0144B5A78B7F8F235073307F11001CB5C104619460FF000FFB7F8F2350133A7F8F235B7F8F22507F110035B79194607F110039B791B020B439A42E1D3CC
:404BC00002F067BA8C84FF1F5E85FF1F6285FF1FB888FF1FEC86FF1F5488FF1FF086FF1FEE84FF1FEF86FF1FE487FF1FC883FF1FB985FF1FAF4B04225A7107F11003DA7839
:404C0000AD4B1B78DBB29A4224D107F110035B79012B0FD1A84B5B78DBB2012B40F09A80A54B00225A70A54B01221A70A14B03225A718FE0A04B5B78DBB2002B40F08A8063
:404C40009D4B01225A709B4B03225A719B4B00221A707FE007F11003DA78994B1B78DBB29A4222D107F110035B79012B0ED1944B5B78DBB2012B6DD1914B00225A708F4B33
:404C800001225A708B4B03225A7163E08C4B5B78DBB2002B5ED18A4B01225A70854B03225A71864B00225A7054E007F11003DA78844B1B78DBB29A4222D107F110035B7900
:404CC000012B0ED17F4B5B78DBB2012B42D17D4B00225A70774B03225A71784B01229A7038E0784B5B78DBB2002B33D1754B01225A70704B03225A71704B00229A7029E038
:404D000007F11003DA78704B1B78DBB29A4221D107F110035B79012B0ED16B4B5B78DBB2012B17D1684B00225A70624B03225A71624B0122DA700DE0634B5B78DBB2002BDD
:404D400008D1614B01225A705A4B03225A715B4B0022DA70574BE0221A7156480721FBF7C5FE03461A46534B9A71584B01221A700723A7F8F63502F08CB94E4B04225A7119
:404D800007F11003DA784C4B1B78DBB29A4244D107F110035B79012B1FD1474B0F225A70012023210FF082F8494B65221A70494B02221A80474B24225A80474811F062FDF0
:404DC00011F02AFE454B00221A703A4B03225A71434B012283F85F2025E1374B0F225A7001202A210FF062F8394B65221A70394B02221A80374B24225A80374811F042FDAE
:404E000011F00AFE354B00221A702A4B03225A71334B002283F85F2005E107F11003DA78274B1B78DBB29A4264D107F110035B79012B1FD1224B0F225A70022023210FF090
:404E400035F8284B65221A70224B02229A80214B2422DA80244811F035FF11F0C1FE234B00221A70134B03225A71214B012283F85F20D8E0124B0F225A7002202A210FF0FC
:404E800015F8184B65221A70124B02229A80114B2422DA80144811F015FF11F0A1FE134B00221A70034B03225A71114B002283F85F20B8E0BC85FF1F5888FF1FB888FF1FB6
:404EC0008C84FF1FF086FF1FC883FF1F5285FF1F6887FF1F6889FF1FA90401008486FF1FE088FF1F5E85FF1F19050100EF84FF1F6C87FF1F07F11003DA78BC4B1B78DBB2D4
:404F00009A4244D107F110035B79012B1FD1B74B0F225A70012023210EF0C8FFB44B65221A70B44B02221A81B24B24225A81B24811F0A8FC11F070FDB04B00221A70B04BC3
:404F400003225A71AF4B012283F85F206BE0A74B0F225A7001202A210EF0A8FFA44B65221A70A44B02221A81A24B24225A81A24811F088FC11F050FDA04B00221A70A04BE6
:404F800003225A719F4B002283F85F204BE007F11003DA789C4B1B78DBB29A4243D107F110035B79012B1FD1974B0F225A70022023210EF07BFF954B65221A708D4B0222D9
:404FC0009A818C4B2422DA81914811F07BFE11F007FE904B00221A70894B03225A718E4B012283F85F201EE0874B0F225A7002202A210EF05BFF854B65221A707D4B022227
:405000009A817C4B2422DA81814811F05BFE11F0E7FD804B00221A70794B03225A717E4B002283F85F20764BE1221A7174480721FBF75CFD03461A46714B9A71774B012202
:405040001A700723A7F8F63502F023B86C4BDB221A7107F11003DA78714B1B78DBB29A423BD1704B93F85F20654B5A71644B43229A710123A7F8F2350FE0B7F8F23506333E
:40508000B7F8F22567490A4492F849105C4AD154B7F8F2350133A7F8F235B7F8F2350A2BEBD9574B50225A740123A7F8F2350FE0B7F8F2351133B7F8F2255A490A4492F8C9
:4050C00054104F4AD154B7F8F2350133A7F8F235B7F8F235082BEBD9EDE007F11003DA78514B1B78DBB29A423BD1504B93F85F20434B5A71424B43229A710123A7F8F2353E
:405100000FE0B7F8F2350633B7F8F22547490A4492F849103A4AD154B7F8F2350133A7F8F235B7F8F2350A2BEBD9354B50225A740123A7F8F2350FE0B7F8F2351133B7F840
:40514000F2253A490A4492F854102D4AD154B7F8F2350133A7F8F235B7F8F235082BEBD9A9E007F11003DA78204B1B78DBB29A425ED1244B93F85F20214B5A71204B432224
:405180009A710123A7F8F2350FE0B7F8F2350633B7F8F2251B490A4492F84910184AD154B7F8F2350133A7F8F235B7F8F2350A2BEBD9134B50225A740123A7F8F2350FE004
:4051C000B7F8F2351133B7F8F2250E490A4492F854100B4AD154B7F8F2350133A7F8F235B7F8F235082BEBD965E000BFF086FF1FEE84FF1F6889FF1FA90401008486FF1F18
:40520000BC85FF1F8886FF1FC883FF1FB985FF1F19050100EF84FF1F2884FF1F5285FF1F5888FF1FE088FF1F8C84FF1F6C87FF1F07F11003DA78C54B1B78DBB29A423AD178
:40524000C34B93F85F20C34B5A71C24B43229A710123A7F8F2350FE0B7F8F2350633B7F8F225BB490A4492F84910BA4AD154B7F8F2350133A7F8F235B7F8F2350A2BEBD915
:40528000B44B50225A740123A7F8F2350FE0B7F8F2351133B7F8F225AD490A4492F85410AC4AD154B7F8F2350133A7F8F235B7F8F235082BEBD9A7481B21FBF717FC034693
:4052C0001A46A44B9A76A44B01221A701B23A7F8F63501F0DEBE9F4B04225A7107F11003DA789E4B1B78DBB29A4266D19B4B01225A709B4B64221A709A4811F0C3FA11F060
:405300008BFB994B00221A70924B03225A7107F110035B79013B052B00F2BC8101A252F823F000BF3D53000067530000715300007B530000855300008F53000001203C213D
:405340000EF0B4FD894B312283F86020884B312283F86020874B312283F860207C4B312283F8602028E0012043210EF09FFD23E0012042210EF09AFD1EE0012055210EF030
:4053800095FD19E0012041210EF090FD14E001203C210EF08BFD754B302283F86020744B302283F86020734B302283F86020684B302283F8602000BF6CE107F11003DA78CF
:4053C0006D4B1B78DBB29A4265D16B4B01225A706A4B64221A706A4811F074FC11F000FC684B00221A705B4B03225A7107F110035B79013B052B00F24D8101A252F823F03B
:4054000019540000435400004D54000057540000615400006B54000002203C210EF046FD524B312283F86020514B312283F86020504B312283F86020454B312283F860204C
:4054400028E0022043210EF031FD23E0022042210EF02CFD1EE0022055210EF027FD19E0022041210EF022FD14E002203C210EF01DFD3E4B302283F860203D4B302283F8BB
:4054800060203C4B302283F86020314B302283F8602000BFFEE007F11003DA783A4B1B78DBB29A4240F08A80374B01225A70374B64221A70324811F0E5F911F0ADFA2A4BA3
:4054C00000221A70234B03225A7107F110035B79013B052B00F2DE8001A252F823F000BFF9540000235500002D55000037550000415500009155000001203C210EF0D6FCAB
:405500001A4B312283F86020194B312283F86020184B312283F860200D4B312283F860204BE0012043210EF0C1FC46E0012042210EF0BCFC41E0012055210EF0B7FC3CE05F
:40554000012041210EF0B2FC37E000BFC883FF1F2884FF1FBC85FF1F5285FF1F5888FF1F6887FF1FA90401008486FF1FE088FF1F6C87FF1F8886FF1F8C84FF1F5E85FF1FCC
:4055800019050100EF84FF1FF086FF1FEE84FF1F01203C210EF08AFCB74B302283F86020B64B302283F86020B54B302283F86020B44B302283F8602000BF6BE007F11003CA
:4055C000DA78B14B1B78DBB29A4263D1AE4B01225A70AE4B64221A70AD4811F073FB11F0FFFAAC4B00221A70AB4B03225A7107F110035B79013B052B4CD801A252F823F0E8
:4056000019560000435600004D56000057560000615600006B56000002203C210EF046FC954B312283F86020944B312283F86020934B312283F86020924B312283F8602029
:4056400028E0022043210EF031FC23E0022042210EF02CFC1EE0022055210EF027FC19E0022041210EF022FC14E002203C210EF01DFC814B302283F86020804B302283F838
:4056800060207F4B302283F860207E4B302283F8602000BF804BE2221A717F480721FBF725FA03461A467C4B9A717C4B01221A700723A7F8F63501F0ECBC774B04225A71F5
:4056C00007F11003DA78764B1B78DBB29A421CD1734B1A225A70734B0D221A706E4B03225A71714B00221A70704B07221A70704B04221A806F4B03221A806F4B01221A807E
:4057000001200A210EF0D2FB6DE007F11003DA786A4B1B78DBB29A421CD1684B1A225A70674B0D221A705C4B03225A71654B00221A70654B07221A70644B04221A80644B72
:4057400003221A80634B01221A8002200A210EF0ADFB48E007F11003DA785F4B1B78DBB29A421CD15C4B1A225A705C4B0D221A70494B03225A71534B00221A704B4B07225A
:405780001A704B4B04221A804A4B03221A804A4B01221A8001200A210EF088FB23E007F11003DA78384B1B78DBB29A421BD1364B1A225A70354B0D221A70374B03225A7199
:4057C000404B00221A70404B07221A703F4B04221A803F4B03221A803E4B01221A8002200A210EF063FB2C4BE3221A712A480721FBF77CF903461A46274B9A71274B0122EF
:405800001A700723A7F8F63501F043BC224BE4221A7107F11003DA78214B1B78DBB29A421BD11D4B50225A710123A7F8F2350FE0B7F8F2350533B7F8F2250F490A4492F8C9
:405840003E10154AD154B7F8F2350133A7F8F235B7F8F235072BEBD99EE007F11003DA78164B1B78DBB29A424FD10B4B50225A710123A7F8F23543E0E088FF1F6C87FF1F2B
:405880008886FF1F2884FF1FC883FF1FB985FF1F19050100EF84FF1FBC85FF1F5285FF1F5888FF1F6887FF1F4D87FF1F6385FF1FB688FF1F0885FF1F5C85FF1F8C84FF1FF2
:4058C0005E85FF1FBC88FF1F5288FF1FE687FF1F4E87FF1F6085FF1FF086FF1FEE84FF1FB7F8F2350533B7F8F225B0490A4492F83E10AF4AD154B7F8F2350133A7F8F235C7
:40590000B7F8F235072BEBD946E007F11003DA78A84B1B78DBB29A421BD1A54B50225A710123A7F8F2350FE0B7F8F2350533B7F8F225A1490A4492F83E109D4AD154B7F898
:40594000F2350133A7F8F235B7F8F235072BEBD922E007F11003DA78984B1B78DBB29A421AD1934B50225A710123A7F8F2350FE0B7F8F2350533B7F8F22591490A4492F897
:405980003E108B4AD154B7F8F2350133A7F8F235B7F8F235072BEBD985480E21FBF7A6F803461A46824B5A73864B01221A700E23A7F8F63501F06DBB7D4B04225A7107F1F1
:4059C0001003DA78804B1B78DBB29A424AD17E4B5B78DBB2012B45D17C4B1B78DBB2002B04D07A4B1B78DBB2032B3BD1784B1B78002B37D1774B1B78002B33D1764B93F897
:405A00006030312B2BD1714B06221A706E4B1E225A70012007210EF049FA6F4B022283F848206B4B01221A706A4B01221A70604B03225A710023A7F8F2350BE0B7F8F235F8
:405A4000654A1344002283F83320B7F8F2350133A7F8F235B7F8F2350A2BEFD902E05A4B1C225A7007F11003DA785C4B1B78DBB29A424AD1594B5B78DBB2012B45D1584BFA
:405A80001B78DBB2002B04D0554B1B78DBB2032B3BD14F4B5B78002B37D1524B1B78002B33D1424B93F86030312B2BD14C4B06221A704A4B1E225A70022007210EF0F6F9AF
:405AC0003A4B022283F84820414B01225A70454B01221A70364B03225A710023A7F8F2350BE0B7F8F235314A1344002283F83320B7F8F2350133A7F8F235B7F8F2350A2BAC
:405B0000EFD902E0354B1C225A7007F11003DA78284B1B78DBB29A426BD1264B5B78DBB2012B66D1304B1B78DBB2002B04D02E4B1B78DBB2032B5CD1254B9B78002B58D192
:405B4000244B1B78002B54D11B4B93F86030312B4CD1254B06221A70164B1E225A70012007210EF0A3F9144B022283F84820184B01229A70174B01221A700D4B03225A711C
:405B80000023A7F8F2350BE0B7F8F2350A4A1344002283F83320B7F8F2350133A7F8F235B7F8F2350A2BEFD923E000BF6C87FF1FBC85FF1FF086FF1F8886FF1FC883FF1FA2
:405BC0002884FF1F5285FF1F5888FF1F6887FF1FB888FF1FEF86FF1FE088FF1F8C84FF1F5E85FF1F6285FF1FEE84FF1FA54B1C225A7007F11003DA78A34B1B78DBB29A4261
:405C00004AD1A14B5B78DBB2012B45D19F4B1B78DBB2002B04D09D4B1B78DBB2032B3BD19B4BDB78002B37D19A4B1B78002B33D1994B93F86030312B2BD1944B06221A7075
:405C4000914B1E225A70022007210EF02FF9924B022283F848208E4B0122DA708D4B01221A708E4B03225A710023A7F8F2350BE0B7F8F235884A1344002283F83320B7F8E4
:405C8000F2350133A7F8F235B7F8F2350A2BEFD902E07D4B1C225A70804BE6221A717F480721FAF723FF03461A467C4B9A717C4B01221A700723A7F8F63501F0EAB9774BA5
:405CC000E5221A7107F110035B79302B04D007F110035B79312B0ED107F110039B79303BDAB2704B5A706F4B01221A7040F25A206C490EF081FD07F11003DA786A4B1B7866
:405D0000DBB29A4240F0FC81644B03225A7107F110035A79654B83F86020634B5B78DBB21C2B02D1604B01225A7007F110035B79302B05D007F110035B79312B40F0BE80AD
:405D400007F110039B7A303BDAB2574B83F85C20554B93F85C30DAB23B461A7007F110031B7B303BDAB2504B83F859204E4B93F85930DAB23B465A7007F110039B7C303BED
:405D8000DAB2494B83F85A20474B93F85A30DAB23B469A7007F110031B7E303BDAB2424B83F85B20404B93F85B30DAB23B46DA703B4640F2A62019460EF01EFD0023A7F847
:405DC000F4353B465B78012B07D03B469B78012B03D03B46DB78012B02D10123A7F8F4353B465B78022B07D03B469B78022B03D03B46DB78022B05D1B7F8F43543F00203FE
:405E0000A7F8F4353B465B78032B07D03B469B78032B03D03B46DB78032B05D1B7F8F43543F00403A7F8F435B7F8F435013B062B44D801A252F823F0555E00005D5E00002B
:405E4000755E0000655E00006D5E00007D5E0000B55E0000164B01221A802FE0144B01221A802BE0124B01221A8027E0104B7C221A8023E00E4B7D221A801FE00C4B7F223F
:405E80001A801BE0F086FF1FC883FF1FB985FF1FB888FF1F6285FF1F2884FF1FBC85FF1F5285FF1F0485FF1F5888FF1FE088FF1F6687FF1F904B7E221A8000BF07F110035E
:405EC0001B7B302B58D007F110035B7B303BDAB23B461A7007F110039B7B303BDAB23B465A7007F11003DB7B303BDAB23B469A7007F110031B7C303BDAB23B46DA7007F104
:405F000010035B7C303BDAB23B461A713B461A787A4B83F84A203B465A78784B83F84B203B469A78754B83F84C203B46DA78734B83F84D203B461A79704B83F84E203B46CF
:405F40001A793B465A713B46DA783B461A713B469A783B46DA703B465A783B469A703B461A783B465A703B4605221A703B4640F2A71019460EF040FC07F110039B7C302B17
:405F800058D007F11003DB7C303BDAB23B461A7007F110031B7D303BDAB23B465A7007F110035B7D303BDAB23B469A7007F110039B7D303BDAB23B46DA7007F11003DB7DC3
:405FC000303BDAB23B461A713B461A784B4B83F84F203B465A78494B83F850203B469A78464B83F851203B46DA78444B83F852203B461A79414B83F853203B461A793B46B7
:406000005A713B46DA783B461A713B469A783B46DA703B465A783B469A703B461A783B465A703B4605221A703B4640F2AD1019460EF0E2FB07F110031B7E302B00F03A8691
:4060400007F110035B7E303BDAB23B461A7007F110039B7E303BDAB23B465A7007F11003DB7E303BDAB23B469A7007F110031B7F303BDAB23B46DA7007F110035B7F303B37
:40608000DAB23B461A713B461A781C4B83F854203B465A78194B83F855203B469A78174B83F856203B46DA78144B83F857203B461A79124B83F858203B461A793B465A716A
:4060C0003B46DA783B461A713B469A783B46DA703B465A783B469A703B461A783B465A703B4605221A703B4640F2B31019460EF083FB00F0DFBD00BF6687FF1F5888FF1F50
:4061000007F11003DA78644B1B78DBB29A4240F0EF81624B03225A7107F110035A79604B83F860205C4B5B78DBB21C2B02D15A4B01225A7007F110035B79302B05D007F1DC
:4061400010035B79312B40F0B38007F110039B7A03F00F03DAB2504B83F85C204E4B93F85C30DAB23B461A7007F110031B7B03F00F03DAB2484B83F85920474B93F8593090
:40618000DAB23B465A7007F110039B7C03F00F03DAB2414B83F85A203F4B93F85A30DAB23B469A7007F110031B7E03F00F03DAB2394B83F85B20384B93F85B30DAB23B46C9
:4061C000DA703B4640F2AA2019460EF015FB0023A7F8F4353B465B78012B07D03B469B78012B03D03B46DB78012B02D10123A7F8F4353B465B78022B07D03B469B78022BBE
:4062000003D03B46DB78022B05D1B7F8F43543F00203A7F8F4353B465B78032B07D03B469B78032B03D03B46DB78032B05D1B7F8F43543F00403A7F8F435B7F8F435013B28
:40624000062B35D801A252F823F000BF696200007162000089620000796200008162000091620000A96200000E4B01221A801FE00C4B01221A801BE00A4B01221A8017E0AF
:40628000084B7C221A8013E0064B7D221A800FE0044B7F221A800BE08C84FF1FBC85FF1F6C87FF1F2E85FF1F8F4B7E221A8000BF07F110031B7B302B58D007F110035B7B2B
:4062C000303BDAB23B461A7007F110039B7B303BDAB23B465A7007F11003DB7B303BDAB23B469A7007F110031B7C303BDAB23B46DA7007F110035B7C303BDAB23B461A710D
:406300003B461A78794B83F84A203B465A78774B83F84B203B469A78744B83F84C203B46DA78724B83F84D203B461A796F4B83F84E203B461A793B465A713B46DA783B468A
:406340001A713B469A783B46DA703B465A783B469A703B461A783B465A703B4605221A703B4640F2E22019460EF046FA07F110039B7C302B58D007F11003DB7C303BDAB276
:406380003B461A7007F110031B7D303BDAB23B465A7007F110035B7D303BDAB23B469A7007F110039B7D303BDAB23B46DA7007F11003DB7D303BDAB23B461A713B461A782A
:4063C0004A4B83F84F203B465A78484B83F850203B469A78454B83F851203B46DA78434B83F852203B461A79404B83F853203B461A793B465A713B46DA783B461A713B46A3
:406400009A783B46DA703B465A783B469A703B461A783B465A703B4605221A703B464FF43A7019460EF0E8F907F110031B7E302B00F0408407F110035B7E303BDAB23B4656
:406440001A7007F110039B7E303BDAB23B465A7007F11003DB7E303BDAB23B469A7007F110031B7F303BDAB23B46DA7007F110035B7F303BDAB23B461A713B461A781B4B7E
:4064800083F854203B465A78184B83F855203B469A78164B83F856203B46DA78134B83F857203B461A79114B83F858203B461A793B465A713B46DA783B461A713B469A780A
:4064C0003B46DA703B465A783B469A703B461A783B465A703B4605221A703B4640F2EE2019460EF089F9E5E32E85FF1F8C84FF1F07F11003DA78624B1B78DBB29A4240F0C6
:40650000EB81604B03225A7107F110035A795E4B83F860205A4B5B78DBB21C2B02D1584B01225A7007F110035B79302B05D007F110035B79312B40F0AF8007F110039B7A5A
:40654000303BDAB24E4B83F85C204D4B93F85C30DAB23B461A7007F110031B7B303BDAB2474B83F85920464B93F85930DAB23B465A7007F110039B7C303BDAB2404B83F895
:406580005A203F4B93F85A30DAB23B469A7007F110031B7E303BDAB2394B83F85B20384B93F85B30DAB23B46DA703B4640F2F62019460EF021F90023A7F8F4353B465B7827
:4065C000012B07D03B469B78012B03D03B46DB78012B02D10123A7F8F4353B465B78022B07D03B469B78022B03D03B46DB78022B05D1B7F8F43543F00203A7F8F4353B462A
:406600005B78032B07D03B469B78032B03D03B46DB78032B05D1B7F8F43543F00403A7F8F435B7F8F435013B062B35D801A252F823F000BF516600005966000071660000DD
:40664000616600006966000079660000916600000E4B01221A801FE00C4B01221A801BE00A4B01221A8017E0084B7C221A8013E0064B7D221A800FE0044B7F221A800BE015
:40668000F086FF1FBC85FF1F8886FF1F0C88FF1F8F4B7E221A8000BF07F110031B7B302B58D007F110035B7B303BDAB23B461A7007F110039B7B303BDAB23B465A7007F1D4
:4066C0001003DB7B303BDAB23B469A7007F110031B7C303BDAB23B46DA7007F110035B7C303BDAB23B461A713B461A78794B83F84A203B465A78774B83F84B203B469A781C
:40670000744B83F84C203B46DA78724B83F84D203B461A796F4B83F84E203B461A793B465A713B46DA783B461A713B469A783B46DA703B465A783B469A703B461A783B4675
:406740005A703B4605221A703B464FF4407019460EF052F807F110039B7C302B58D007F11003DB7C303BDAB23B461A7007F110031B7D303BDAB23B465A7007F110035B7D31
:40678000303BDAB23B469A7007F110039B7D303BDAB23B46DA7007F11003DB7D303BDAB23B461A713B461A784A4B83F84F203B465A78484B83F850203B469A78454B83F80B
:4067C00051203B46DA78434B83F852203B461A79404B83F853203B461A793B465A713B46DA783B461A713B469A783B46DA703B465A783B469A703B461A783B465A703B46F3
:4068000005221A703B4640F2063019460DF0F4FF07F110031B7E302B00F04C8207F110035B7E303BDAB23B461A7007F110039B7E303BDAB23B465A7007F11003DB7E303B97
:40684000DAB23B469A7007F110031B7F303BDAB23B46DA7007F110035B7F303BDAB23B461A713B461A781B4B83F854203B465A78184B83F855203B469A78164B83F85620BF
:406880003B46DA78134B83F857203B461A79114B83F858203B461A793B465A713B46DA783B461A713B469A783B46DA703B465A783B469A703B461A783B465A703B460522D1
:4068C0001A703B464FF4437019460DF095FFF1E10C88FF1FF086FF1F07F11003DA78624B1B78DBB29A4240F0E581604B03225A7107F110035A795E4B83F860205A4B5B785E
:40690000DBB21C2B02D1584B01225A7007F110035B79302B05D007F110035B79312B40F0AF8007F110039B7A303BDAB24E4B83F85C204D4B93F85C30DAB23B461A7007F192
:4069400010031B7B303BDAB2474B83F85920464B93F85930DAB23B465A7007F110039B7C303BDAB2404B83F85A203F4B93F85A30DAB23B469A7007F110031B7E303BDAB28B
:40698000394B83F85B20384B93F85B30DAB23B46DA703B4640F2FA2019460DF02DFF0023A7F8F4353B465B78012B07D03B469B78012B03D03B46DB78012B02D10123A7F8AD
:4069C000F4353B465B78022B07D03B469B78022B03D03B46DB78022B05D1B7F8F43543F00203A7F8F4353B465B78032B07D03B469B78032B03D03B46DB78032B05D1B7F85E
:406A0000F43543F00403A7F8F435B7F8F435013B062B35D801A252F823F000BF396A0000416A0000596A0000496A0000516A0000616A0000796A00000E4B01221A801FE0D8
:406A40000C4B01221A801BE00A4B01221A8017E0084B7C221A8013E0064B7D221A800FE0044B7F221A800BE0C883FF1FBC85FF1F2884FF1F4289FF1FA84B7E221A8000BF2B
:406A800007F110031B7B302B58D007F110035B7B303BDAB23B461A7007F110039B7B303BDAB23B465A7007F11003DB7B303BDAB23B469A7007F110031B7C303BDAB23B466F
:406AC000DA7007F110035B7C303BDAB23B461A713B461A78924B83F84A203B465A78904B83F84B203B469A788D4B83F84C203B46DA788B4B83F84D203B461A79884B83F839
:406B00004E203B461A793B465A713B46DA783B461A713B469A783B46DA703B465A783B469A703B461A783B465A703B4605221A703B4640F2123019460DF05EFE07F1100324
:406B40009B7C302B58D007F11003DB7C303BDAB23B461A7007F110031B7D303BDAB23B465A7007F110035B7D303BDAB23B469A7007F110039B7D303BDAB23B46DA7007F1F0
:406B80001003DB7D303BDAB23B461A713B461A78634B83F84F203B465A78614B83F850203B469A785E4B83F851203B46DA785C4B83F852203B461A79594B83F853203B461C
:406BC0001A793B465A713B46DA783B461A713B469A783B46DA703B465A783B469A703B461A783B465A703B4605221A703B464FF4467019460DF000FE07F110031B7E302B38
:406C000058D007F110035B7E303BDAB23B461A7007F110039B7E303BDAB23B465A7007F11003DB7E303BDAB23B469A7007F110031B7F303BDAB23B46DA7007F110035B7FAE
:406C4000303BDAB23B461A713B461A78344B83F854203B465A78324B83F855203B469A782F4B83F856203B46DA782D4B83F857203B461A792A4B83F858203B461A793B4684
:406C80005A713B46DA783B461A713B469A783B46DA703B465A783B469A703B461A783B465A703B4605221A703B4640F21E3019460DF0A2FD1B480721F9F718FF03461A4627
:406CC000184B9A71184B01221A700723A7F8F635DFE107F11003DA78144B1B78DBB29A426DD107F110035B79013B062B00F2D08101A252F823F000BF156D0000316D0000FE
:406D0000576D00005F6D0000936D0000917000009B6D0000054B0B225A704FE04289FF1FC883FF1FBC85FF1F5285FF1F5888FF1FB94B93F84830002B03D0B84B07225A70A5
:406D40003CE0B64B01225A70B54B00221A70B54B00221A7032E0B14B0A225A702EE0B04B64221A70B04B00221A70B0480FF08AFD0FF052FEA94B5B78DBB21C2B08D0A74BBB
:406D80005B78DBB20B2B03D0A44B01225A7015E014E0A24B11225A7010E0A04B01225A709F4B00221A709F4B00221A7001202E210DF07CF89E4B00221A7000BF68E107F151
:406DC0001003DA789B4B1B78DBB29A4263D107F110035B79013B062B00F25A8101A252F823F000BF016E0000096E00002F6E0000376E00006B6E000091700000736E00005D
:406E00008C4B0B225A7045E08B4B93F84830002B03D0884B07225A703CE0864B01225A70864B00221A707F4B00225A7032E0814B0A225A702EE0814B64221A70804B00220A
:406E40001A7080480FF03EFF0FF0CAFE794B5B78DBB21C2B08D0774B5B78DBB20B2B03D0744B01225A7015E014E0724B11225A7010E0704B01225A70704B00221A70694B4D
:406E800000225A7002202E210DF010F86E4B00221A7000BFFCE007F11003DA786B4B1B78DBB29A4263D107F110035B79013B062B00F2EE8001A252F823F000BFD96E00007B
:406EC000E16E0000076F00000F6F0000436F0000917000004B6F00005C4B0B225A7045E05B4B93F84830002B03D0584B07225A703CE0564B01225A70564B00221A70494B57
:406F000000229A7032E0514B0A225A702EE0514B64221A70444B00221A7044480FF0B2FC0FF07AFD494B5B78DBB21C2B08D0474B5B78DBB20B2B03D0444B01225A7015E05E
:406F400014E0424B11225A7010E0404B01225A70404B00221A70334B00229A7001202E210CF0A4FF324B00221A7000BF90E007F11003DA78384B1B78DBB29A4240F08880CF
:406F800007F110035B79013B062B00F2818001A252F823F0B16F0000B96F0000DF6F0000E76F000067700000917000006F700000294B0B225A706BE0284B93F84830002B98
:406FC00003D0254B07225A7062E0234B01225A70234B00221A70134B0022DA7058E01E4B0A225A7054E01E4B64221A700E4B00221A7014480FF066FE0FF0F2FD164B5B78B0
:40700000DBB21C2B2ED0144B5B78DBB20B2B29D0114B01225A703BE0E088FF1F5888FF1F6887FF1FB888FF1F8486FF1FA9040100EF86FF1F8C84FF1F6C87FF1F5E85FF1F94
:40704000EF84FF1F190501006285FF1FF086FF1F8886FF1FEE84FF1FC883FF1F2884FF1FB985FF1F14E01E4B11225A7010E01C4B01225A701B4B00221A701B4B0022DA70FA
:4070800002202E210CF012FF184B00221A7000BF00BF174B1B78012B15D10023A7F8F2350BE0B7F8F235134AD35C18460EF0CCFBB7F8F2350133A7F8F235B7F8F225B7F820
:4070C000F6359A42EDD30EF081FB0023A7F8EE350023A7F8EC3507F2FC57BD4690BD00BFC883FF1FB985FF1FB888FF1F6285FF1F5285FF1FBC85FF1F80B500AF1D4B1B78D1
:40710000012B36D11B4B00221A701B4B1B78002B08D11A4B1B78DBB2184609F0C3FA05200DF05EFF144B5B78002B08D1144B1B78DBB2184609F0B6FA05200DF051FF0E4B6E
:407140009B78002B08D10F4B1B78DBB2184609F0A9FA05200DF044FF074BDB78002B08D1094B1B78DBB2184609F09CFA05200DF037FF80BD5388FF1FB888FF1F5888FF1F2B
:407180008C84FF1FF086FF1FC883FF1F90B591B004AFB54B1B78DBB2682B02F2BC8501A151F823F049730000FF730000817400008F7B0000997D0000AF7F0000278000006D
:4071C00047810000E3810000CD820000179D00004D830000E78400000986000065890000E7890000918B0000C58C0000258E000045900000BF9100004D9200009B950000E4
:40720000B7990000859A0000179D0000179D0000179D0000179D0000179D0000179D0000179D0000179D0000179D0000179D0000179D0000179D0000179D0000179D000007
